{
  "contractName": "ERC20Shaker",
  "abi": [
    {
      "inputs": [
        {
          "internalType": "contract IVerifier",
          "name": "_verifier",
          "type": "address"
        },
        {
          "internalType": "uint256",
          "name": "_denomination",
          "type": "uint256"
        },
        {
          "internalType": "uint32",
          "name": "_merkleTreeHeight",
          "type": "uint32"
        },
        {
          "internalType": "address",
          "name": "_operator",
          "type": "address"
        },
        {
          "internalType": "address",
          "name": "_token",
          "type": "address"
        }
      ],
      "payable": false,
      "stateMutability": "nonpayable",
      "type": "constructor"
    },
    {
      "anonymous": false,
      "inputs": [
        {
          "indexed": true,
          "internalType": "bytes32",
          "name": "commitment",
          "type": "bytes32"
        },
        {
          "indexed": false,
          "internalType": "uint32",
          "name": "leafIndex",
          "type": "uint32"
        },
        {
          "indexed": false,
          "internalType": "uint256",
          "name": "timestamp",
          "type": "uint256"
        },
        {
          "indexed": false,
          "internalType": "uint8",
          "name": "orderStatus",
          "type": "uint8"
        },
        {
          "indexed": false,
          "internalType": "address",
          "name": "recipient",
          "type": "address"
        },
        {
          "indexed": false,
          "internalType": "uint256",
          "name": "effectiveTime",
          "type": "uint256"
        }
      ],
      "name": "Deposit",
      "type": "event"
    },
    {
      "anonymous": false,
      "inputs": [
        {
          "indexed": false,
          "internalType": "address",
          "name": "to",
          "type": "address"
        },
        {
          "indexed": false,
          "internalType": "bytes32",
          "name": "nullifierHash",
          "type": "bytes32"
        },
        {
          "indexed": true,
          "internalType": "address",
          "name": "relayer",
          "type": "address"
        },
        {
          "indexed": false,
          "internalType": "uint256",
          "name": "fee",
          "type": "uint256"
        },
        {
          "indexed": false,
          "internalType": "uint256",
          "name": "amount",
          "type": "uint256"
        }
      ],
      "name": "Withdrawal",
      "type": "event"
    },
    {
      "constant": true,
      "inputs": [],
      "name": "FIELD_SIZE",
      "outputs": [
        {
          "internalType": "uint256",
          "name": "",
          "type": "uint256"
        }
      ],
      "payable": false,
      "stateMutability": "view",
      "type": "function"
    },
    {
      "constant": true,
      "inputs": [],
      "name": "ROOT_HISTORY_SIZE",
      "outputs": [
        {
          "internalType": "uint32",
          "name": "",
          "type": "uint32"
        }
      ],
      "payable": false,
      "stateMutability": "view",
      "type": "function"
    },
    {
      "constant": true,
      "inputs": [],
      "name": "ZERO_VALUE",
      "outputs": [
        {
          "internalType": "uint256",
          "name": "",
          "type": "uint256"
        }
      ],
      "payable": false,
      "stateMutability": "view",
      "type": "function"
    },
    {
      "constant": false,
      "inputs": [
        {
          "internalType": "address",
          "name": "_newOperator",
          "type": "address"
        }
      ],
      "name": "changeOperator",
      "outputs": [],
      "payable": false,
      "stateMutability": "nonpayable",
      "type": "function"
    },
    {
      "constant": true,
      "inputs": [],
      "name": "currentRootIndex",
      "outputs": [
        {
          "internalType": "uint32",
          "name": "",
          "type": "uint32"
        }
      ],
      "payable": false,
      "stateMutability": "view",
      "type": "function"
    },
    {
      "constant": true,
      "inputs": [],
      "name": "denomination",
      "outputs": [
        {
          "internalType": "uint256",
          "name": "",
          "type": "uint256"
        }
      ],
      "payable": false,
      "stateMutability": "view",
      "type": "function"
    },
    {
      "constant": false,
      "inputs": [
        {
          "internalType": "uint256[]",
          "name": "_amounts",
          "type": "uint256[]"
        },
        {
          "internalType": "bytes32[]",
          "name": "_commitments",
          "type": "bytes32[]"
        },
        {
          "internalType": "uint8",
          "name": "_orderStatus",
          "type": "uint8"
        },
        {
          "internalType": "address payable",
          "name": "_recipient",
          "type": "address"
        },
        {
          "internalType": "uint256",
          "name": "_effectiveTime",
          "type": "uint256"
        }
      ],
      "name": "depositERC20Batch",
      "outputs": [],
      "payable": true,
      "stateMutability": "payable",
      "type": "function"
    },
    {
      "constant": false,
      "inputs": [
        {
          "internalType": "bytes",
          "name": "_proof",
          "type": "bytes"
        },
        {
          "internalType": "bytes32",
          "name": "_root",
          "type": "bytes32"
        },
        {
          "internalType": "bytes32",
          "name": "_nullifierHash",
          "type": "bytes32"
        },
        {
          "internalType": "address payable",
          "name": "_recipient",
          "type": "address"
        },
        {
          "internalType": "address payable",
          "name": "_relayer",
          "type": "address"
        },
        {
          "internalType": "uint8",
          "name": "_orderStatus",
          "type": "uint8"
        },
        {
          "internalType": "uint256",
          "name": "_amount",
          "type": "uint256"
        },
        {
          "internalType": "bytes32",
          "name": "_oldCommitment",
          "type": "bytes32"
        },
        {
          "internalType": "bytes32",
          "name": "_newCommitment",
          "type": "bytes32"
        },
        {
          "internalType": "uint256",
          "name": "_effectiveTime",
          "type": "uint256"
        }
      ],
      "name": "endorse",
      "outputs": [],
      "payable": true,
      "stateMutability": "payable",
      "type": "function"
    },
    {
      "constant": true,
      "inputs": [
        {
          "internalType": "uint256",
          "name": "",
          "type": "uint256"
        }
      ],
      "name": "filledSubtrees",
      "outputs": [
        {
          "internalType": "bytes32",
          "name": "",
          "type": "bytes32"
        }
      ],
      "payable": false,
      "stateMutability": "view",
      "type": "function"
    },
    {
      "constant": true,
      "inputs": [],
      "name": "getLastRoot",
      "outputs": [
        {
          "internalType": "bytes32",
          "name": "",
          "type": "bytes32"
        }
      ],
      "payable": false,
      "stateMutability": "view",
      "type": "function"
    },
    {
      "constant": true,
      "inputs": [
        {
          "internalType": "bytes32",
          "name": "_left",
          "type": "bytes32"
        },
        {
          "internalType": "bytes32",
          "name": "_right",
          "type": "bytes32"
        }
      ],
      "name": "hashLeftRight",
      "outputs": [
        {
          "internalType": "bytes32",
          "name": "",
          "type": "bytes32"
        }
      ],
      "payable": false,
      "stateMutability": "pure",
      "type": "function"
    },
    {
      "constant": true,
      "inputs": [
        {
          "internalType": "bytes32",
          "name": "_root",
          "type": "bytes32"
        }
      ],
      "name": "isKnownRoot",
      "outputs": [
        {
          "internalType": "bool",
          "name": "",
          "type": "bool"
        }
      ],
      "payable": false,
      "stateMutability": "view",
      "type": "function"
    },
    {
      "constant": true,
      "inputs": [
        {
          "internalType": "bytes32",
          "name": "_nullifierHash",
          "type": "bytes32"
        }
      ],
      "name": "isSpent",
      "outputs": [
        {
          "internalType": "bool",
          "name": "",
          "type": "bool"
        }
      ],
      "payable": false,
      "stateMutability": "view",
      "type": "function"
    },
    {
      "constant": true,
      "inputs": [
        {
          "internalType": "bytes32[]",
          "name": "_nullifierHashes",
          "type": "bytes32[]"
        }
      ],
      "name": "isSpentArray",
      "outputs": [
        {
          "internalType": "bool[]",
          "name": "spent",
          "type": "bool[]"
        }
      ],
      "payable": false,
      "stateMutability": "view",
      "type": "function"
    },
    {
      "constant": true,
      "inputs": [],
      "name": "levels",
      "outputs": [
        {
          "internalType": "uint32",
          "name": "",
          "type": "uint32"
        }
      ],
      "payable": false,
      "stateMutability": "view",
      "type": "function"
    },
    {
      "constant": true,
      "inputs": [],
      "name": "nextIndex",
      "outputs": [
        {
          "internalType": "uint32",
          "name": "",
          "type": "uint32"
        }
      ],
      "payable": false,
      "stateMutability": "view",
      "type": "function"
    },
    {
      "constant": true,
      "inputs": [],
      "name": "operator",
      "outputs": [
        {
          "internalType": "address",
          "name": "",
          "type": "address"
        }
      ],
      "payable": false,
      "stateMutability": "view",
      "type": "function"
    },
    {
      "constant": true,
      "inputs": [
        {
          "internalType": "uint256",
          "name": "",
          "type": "uint256"
        }
      ],
      "name": "roots",
      "outputs": [
        {
          "internalType": "bytes32",
          "name": "",
          "type": "bytes32"
        }
      ],
      "payable": false,
      "stateMutability": "view",
      "type": "function"
    },
    {
      "constant": true,
      "inputs": [],
      "name": "token",
      "outputs": [
        {
          "internalType": "address",
          "name": "",
          "type": "address"
        }
      ],
      "payable": false,
      "stateMutability": "view",
      "type": "function"
    },
    {
      "constant": true,
      "inputs": [],
      "name": "totalAmount",
      "outputs": [
        {
          "internalType": "uint256",
          "name": "",
          "type": "uint256"
        }
      ],
      "payable": false,
      "stateMutability": "view",
      "type": "function"
    },
    {
      "constant": true,
      "inputs": [],
      "name": "totalBalance",
      "outputs": [
        {
          "internalType": "uint256",
          "name": "",
          "type": "uint256"
        }
      ],
      "payable": false,
      "stateMutability": "view",
      "type": "function"
    },
    {
      "constant": false,
      "inputs": [
        {
          "internalType": "address",
          "name": "_newVerifier",
          "type": "address"
        }
      ],
      "name": "updateVerifier",
      "outputs": [],
      "payable": false,
      "stateMutability": "nonpayable",
      "type": "function"
    },
    {
      "constant": true,
      "inputs": [],
      "name": "verifier",
      "outputs": [
        {
          "internalType": "contract IVerifier",
          "name": "",
          "type": "address"
        }
      ],
      "payable": false,
      "stateMutability": "view",
      "type": "function"
    },
    {
      "constant": false,
      "inputs": [
        {
          "internalType": "bytes",
          "name": "_proof",
          "type": "bytes"
        },
        {
          "internalType": "bytes32",
          "name": "_root",
          "type": "bytes32"
        },
        {
          "internalType": "bytes32",
          "name": "_nullifierHash",
          "type": "bytes32"
        },
        {
          "internalType": "address payable",
          "name": "_recipient",
          "type": "address"
        },
        {
          "internalType": "address payable",
          "name": "_relayer",
          "type": "address"
        },
        {
          "internalType": "uint256",
          "name": "_fee",
          "type": "uint256"
        },
        {
          "internalType": "uint256",
          "name": "_refund",
          "type": "uint256"
        },
        {
          "internalType": "bytes32",
          "name": "_commitment",
          "type": "bytes32"
        }
      ],
      "name": "withdraw",
      "outputs": [],
      "payable": true,
      "stateMutability": "payable",
      "type": "function"
    },
    {
      "constant": true,
      "inputs": [
        {
          "internalType": "uint256",
          "name": "",
          "type": "uint256"
        }
      ],
      "name": "zeros",
      "outputs": [
        {
          "internalType": "bytes32",
          "name": "",
          "type": "bytes32"
        }
      ],
      "payable": false,
      "stateMutability": "view",
      "type": "function"
    }
  ],
  "bytecode": "0x6080604052600380546001600160401b031916905560006069819055606a553480156200002b57600080fd5b506040516200287838038062002878833981810160405260a08110156200005157600080fd5b50805160208201516040830151606084015160809094015192939192909190848484848163ffffffff8116620000b95760405162461bcd60e51b8152600401808060200182810382526027815260200180620027ef6027913960400191505060405180910390fd5b60208163ffffffff1610620001005760405162461bcd60e51b8152600401808060200182810382526022815260200180620028366022913960400191505060405180910390fd5b6000805463ffffffff191663ffffffff83161781556002805460018181019092557f2fe54c60d3acabf3343a35b6eba15db4821b340f76e741e2249685ed4899af6c600080516020620027ae8339815191529091018190558154808301835592829052600080516020620028588339815191529092018290555b60005463ffffffff9081169082161015620001ee57620001a482806001600160e01b036200029e16565b600280546001818101909255600080516020620027ae833981519152018290558054808201825560008290526000805160206200285883398151915201829055909250016200017a565b506200020481806001600160e01b036200029e16565b60045550506001606855826200024c5760405162461bcd60e51b8152600401808060200182810382526025815260200180620027896025913960400191505060405180910390fd5b606b80546001600160a01b039586166001600160a01b031991821617909155606c805492861692821692909217909155606d929092555060748054939092169216919091179055506200048b92505050565b600060008051602062002816833981519152831062000304576040805162461bcd60e51b815260206004820181905260248201527f5f6c6566742073686f756c6420626520696e7369646520746865206669656c64604482015290519081900360640190fd5b600080516020620028168339815191528210620003535760405162461bcd60e51b8152600401808060200182810382526021815260200180620027ce6021913960400191505060405180910390fd5b6040805163f47d33b560e01b81526004810185905260006024820181905282518693919273__Hasher________________________________9263f47d33b592604480840193829003018186803b158015620003ae57600080fd5b505af4158015620003c3573d6000803e3d6000fd5b505050506040513d6040811015620003da57600080fd5b508051602090910151909250905060008051602062002816833981519152848308915073__Hasher________________________________63f47d33b583836040518363ffffffff1660e01b81526004018083815260200182815260200192505050604080518083038186803b1580156200045457600080fd5b505af415801562000469573d6000803e3d6000fd5b505050506040513d60408110156200048057600080fd5b505195945050505050565b6122ee806200049b6000396000f3fe6080604052600436106101665760003560e01c80639fa12d0b116100d1578063da9080391161008a578063ec73295911610064578063ec732959146106c9578063f178e47c146106de578063fc0c546a14610708578063fc7e9c6f1461071d57610166565b8063da908039146105d5578063e5285dcc14610675578063e82955881461069f57610166565b80639fa12d0b146103cb578063a8be3cd614610496578063ad7a672f1461056c578063ba70f75714610581578063c2b40ae414610596578063cd87a3b4146105c057610166565b8063570ca73511610123578063570ca7351461026b5780636d9833e314610280578063827a2600146102be5780638bca6d161461036e57806390eeb02b1461038357806397fc007c1461039857610166565b806306394c9b1461016b5780631a39d8ef146101a05780632b7ac3f3146101c757806338bf282e146101f8578063414a37ba146102285780634ecf518b1461023d575b600080fd5b34801561017757600080fd5b5061019e6004803603602081101561018e57600080fd5b50356001600160a01b0316610732565b005b3480156101ac57600080fd5b506101b561079d565b60408051918252519081900360200190f35b3480156101d357600080fd5b506101dc6107a3565b604080516001600160a01b039092168252519081900360200190f35b34801561020457600080fd5b506101b56004803603604081101561021b57600080fd5b50803590602001356107b2565b34801561023457600080fd5b506101b5610993565b34801561024957600080fd5b506102526109a5565b6040805163ffffffff9092168252519081900360200190f35b34801561027757600080fd5b506101dc6109b1565b34801561028c57600080fd5b506102aa600480360360208110156102a357600080fd5b50356109c0565b604080519115158252519081900360200190f35b61019e60048036036101408110156102d557600080fd5b810190602081018135600160201b8111156102ef57600080fd5b82018360208201111561030157600080fd5b803590602001918460018302840111600160201b8311171561032257600080fd5b91935091508035906020810135906001600160a01b03604082013581169160608101359091169060ff6080820135169060a08101359060c08101359060e0810135906101000135610a33565b34801561037a57600080fd5b506101b56110b2565b34801561038f57600080fd5b506102526110b8565b3480156103a457600080fd5b5061019e600480360360208110156103bb57600080fd5b50356001600160a01b03166110c4565b3480156103d757600080fd5b50610446600480360360208110156103ee57600080fd5b810190602081018135600160201b81111561040857600080fd5b82018360208201111561041a57600080fd5b803590602001918460208302840111600160201b8311171561043b57600080fd5b50909250905061112f565b60408051602080825283518183015283519192839290830191858101910280838360005b8381101561048257818101518382015260200161046a565b505050509050019250505060405180910390f35b61019e600480360360a08110156104ac57600080fd5b810190602081018135600160201b8111156104c657600080fd5b8201836020820111156104d857600080fd5b803590602001918460208302840111600160201b831117156104f957600080fd5b919390929091602081019035600160201b81111561051657600080fd5b82018360208201111561052857600080fd5b803590602001918460208302840111600160201b8311171561054957600080fd5b919350915060ff813516906001600160a01b0360208201351690604001356111b7565b34801561057857600080fd5b506101b56112c8565b34801561058d57600080fd5b506101b56112ce565b3480156105a257600080fd5b506101b5600480360360208110156105b957600080fd5b50356112ee565b3480156105cc57600080fd5b50610252611302565b61019e60048036036101008110156105ec57600080fd5b810190602081018135600160201b81111561060657600080fd5b82018360208201111561061857600080fd5b803590602001918460018302840111600160201b8311171561063957600080fd5b91935091508035906020810135906001600160a01b03604082013581169160608101359091169060808101359060a08101359060c00135611307565b34801561068157600080fd5b506102aa6004803603602081101561069857600080fd5b503561180c565b3480156106ab57600080fd5b506101b5600480360360208110156106c257600080fd5b5035611821565b3480156106d557600080fd5b506101b561183f565b3480156106ea57600080fd5b506101b56004803603602081101561070157600080fd5b5035611863565b34801561071457600080fd5b506101dc611870565b34801561072957600080fd5b5061025261187f565b606c546001600160a01b0316331461077b5760405162461bcd60e51b81526004018080602001828103825260258152602001806122716025913960400191505060405180910390fd5b606c80546001600160a01b0319166001600160a01b0392909216919091179055565b60695481565b606b546001600160a01b031681565b60006000805160206122008339815191528310610816576040805162461bcd60e51b815260206004820181905260248201527f5f6c6566742073686f756c6420626520696e7369646520746865206669656c64604482015290519081900360640190fd5b60008051602061220083398151915282106108625760405162461bcd60e51b81526004018080602001828103825260218152602001806121836021913960400191505060405180910390fd5b6040805163f47d33b560e01b81526004810185905260006024820181905282518693919273__Hasher________________________________9263f47d33b592604480840193829003018186803b1580156108bc57600080fd5b505af41580156108d0573d6000803e3d6000fd5b505050506040513d60408110156108e657600080fd5b5080516020909101519092509050600080516020612200833981519152848308915073__Hasher________________________________63f47d33b583836040518363ffffffff1660e01b81526004018083815260200182815260200192505050604080518083038186803b15801561095e57600080fd5b505af4158015610972573d6000803e3d6000fd5b505050506040513d604081101561098857600080fd5b505195945050505050565b60008051602061220083398151915281565b60005463ffffffff1681565b606c546001600160a01b031681565b6000816109cf57506000610a2e565b60035463ffffffff165b60048163ffffffff16606481106109ec57fe5b01548314156109ff576001915050610a2e565b63ffffffff8116610a0e575060645b6003546000199091019063ffffffff808316911614156109d95760009150505b919050565b60026068541415610a8b576040805162461bcd60e51b815260206004820152601f60248201527f5265656e7472616e637947756172643a207265656e7472616e742063616c6c00604482015290519081900360640190fd5b60026068556000838152606f602052604090205460ff16610af3576040805162461bcd60e51b815260206004820152601b60248201527f4f6c6420636f6d6d69746d656e742063616e206e6f742066696e640000000000604482015290519081900360640190fd5b6000828152606f602052604090205460ff1615610b415760405162461bcd60e51b81526004018080602001828103825260258152602001806121396025913960400191505060405180910390fd5b6000888152606e602052604090205460ff1615610ba5576040805162461bcd60e51b815260206004820152601f60248201527f546865206e6f746520686173206265656e20616c7265616479207370656e7400604482015290519081900360640190fd5b610bae896109c0565b610bff576040805162461bcd60e51b815260206004820152601c60248201527f43616e6e6f742066696e6420796f7572206d65726b6c6520726f6f7400000000604482015290519081900360640190fd5b600083815260706020526040902054610c5f576040805162461bcd60e51b815260206004820152601f60248201527f4e6f2062616c616e636520616d6f756e74206f6620746869732070726f6f6600604482015290519081900360640190fd5b6000838152607060205260408120548510610c8857600084815260706020526040902054610c8a565b845b905060008111610ce1576040805162461bcd60e51b815260206004820152601d60248201527f526566756e6420616d6f756e742063616e206e6f74206265207a65726f000000604482015290519081900360640190fd5b60008481526071602052604090205460ff166001148015610d1857506000848152607260205260409020546001600160a01b031633145b80610d32575060008481526071602052604090205460ff16155b610d6d5760405162461bcd60e51b81526004018080602001828103825260248152602001806122966024913960400191505060405180910390fd5b606b60009054906101000a90046001600160a01b03166001600160a01b031663695ef6f98d8d6040518060c001604052808f60001c81526020018e60001c81526020018d6001600160a01b031681526020018c6001600160a01b031681526020018b60ff1681526020018a8152506040518463ffffffff1660e01b8152600401808060200183600660200280838360005b83811015610e16578181015183820152602001610dfe565b505050509050018281038252858582818152602001925080828437600081840152601f19601f820116905080830192505050945050505050602060405180830381600087803b158015610e6857600080fd5b505af1158015610e7c573d6000803e3d6000fd5b505050506040513d6020811015610e9257600080fd5b5051610ee5576040805162461bcd60e51b815260206004820152601960248201527f496e76616c696420656e646f7273656d656e742070726f6f6600000000000000604482015290519081900360640190fd5b6000848152607360205260409020544210610f0c5760008381526073602052604090208290555b6000610f1784611892565b6000858152606f60209081526040808320805460ff199081166001908117909255607084528285208c905560719093529220805460ff8c1692168217905591925014610f635733610f65565b885b600085815260726020908152604080832080546001600160a01b0319166001600160a01b039590951694909417909355878252607090522054610fa89083611a29565b600086815260706020526040902081905515610fc5576000610fc8565b60015b60008b8152606e6020908152604091829020805493151560ff1990941693909317909255805163ffffffff84168152429281019290925260ff8916828201526001600160a01b038b166060830152608082018590525185917ff052b28ca720e670068c23c54488dc5b4db3ed42fde7c3fd2d0ea7aee06406eb919081900360a00190a2604080516000808252602082018d9052818301526060810184905290516001600160a01b038a16917f6d7aac54bd3d1c91db3b1fd7b8d6cb45324ad6b5e373c0f0ea4d7b2606c4c2c8919081900360800190a2505060016068555050505050505050505050565b606d5481565b60035463ffffffff1681565b606c546001600160a01b0316331461110d5760405162461bcd60e51b81526004018080602001828103825260258152602001806122716025913960400191505060405180910390fd5b606b80546001600160a01b0319166001600160a01b0392909216919091179055565b60408051828152602080840282010190915260609082801561115b578160200160208202803883390190505b50905060005b828110156111b05761118484848381811061117857fe5b9050602002013561180c565b156111a857600182828151811061119757fe5b911515602092830291909101909101525b600101611161565b5092915050565b6002606854141561120f576040805162461bcd60e51b815260206004820152601f60248201527f5265656e7472616e637947756172643a207265656e7472616e742063616c6c00604482015290519081900360640190fd5b600260685560ff8316158061122757508260ff166001145b6112625760405162461bcd60e51b81526004018080602001828103825260268152602001806120936026913960400191505060405180910390fd5b6001600160a01b03821661127557600080fd5b60005b868110156112b9576112b188888381811061128f57fe5b905060200201358787848181106112a257fe5b90506020020135868686611a86565b600101611278565b50506001606855505050505050565b606a5481565b60035460009060049063ffffffff16606481106112e757fe5b0154905090565b600481606481106112fb57fe5b0154905081565b606481565b6002606854141561135f576040805162461bcd60e51b815260206004820152601f60248201527f5265656e7472616e637947756172643a207265656e7472616e742063616c6c00604482015290519081900360640190fd5b60026068556000868152606e602052604090205460ff16156113c8576040805162461bcd60e51b815260206004820152601f60248201527f546865206e6f746520686173206265656e20616c7265616479207370656e7400604482015290519081900360640190fd5b6113d1876109c0565b611422576040805162461bcd60e51b815260206004820152601c60248201527f43616e6e6f742066696e6420796f7572206d65726b6c6520726f6f7400000000604482015290519081900360640190fd5b600081815260706020526040902054611482576040805162461bcd60e51b815260206004820152601f60248201527f4e6f2062616c616e636520616d6f756e74206f6620746869732070726f6f6600604482015290519081900360640190fd5b60008181526070602052604081205483106114ab576000828152607060205260409020546114ad565b825b905060008111611504576040805162461bcd60e51b815260206004820152601d60248201527f526566756e6420616d6f756e742063616e206e6f74206265207a65726f000000604482015290519081900360640190fd5b6000828152607360205260409020544210156115515760405162461bcd60e51b815260040180806020018281038252602d8152602001806121d3602d913960400191505060405180910390fd5b838110156115905760405162461bcd60e51b815260040180806020018281038252602581526020018061215e6025913960400191505060405180910390fd5b606b546040805160c080820183528b8252602082018b90526001600160a01b038a81168385015289811660608401526080830189905260a08301889052925163695ef6f960e01b8152929093169263695ef6f9928e928e9290916004810191829160240190849080838360005b838110156116155781810151838201526020016115fd565b505050509050018281038252858582818152602001925080828437600081840152601f19601f820116905080830192505050945050505050602060405180830381600087803b15801561166757600080fd5b505af115801561167b573d6000803e3d6000fd5b505050506040513d602081101561169157600080fd5b50516116dd576040805162461bcd60e51b815260206004820152601660248201527524b73b30b634b2103bb4ba34323930bb90383937b7b360511b604482015290519081900360640190fd5b60008281526071602052604081205460ff166001146116fc5786611715565b6000838152607260205260409020546001600160a01b03165b905061172381878785611c13565b600083815260706020526040902054611742908363ffffffff611a2916565b600084815260706020526040902055606954611764908363ffffffff611a2916565b60695560008381526070602052604090205415611782576000611785565b60015b6000898152606e6020908152604091829020805460ff19169315159390931790925580516001600160a01b038a811682529281018b9052808201889052606081018590529051918816917f6d7aac54bd3d1c91db3b1fd7b8d6cb45324ad6b5e373c0f0ea4d7b2606c4c2c8916080908290030190a250506001606855505050505050505050565b6000908152606e602052604090205460ff1690565b6002818154811061182e57fe5b600091825260209091200154905081565b7f2fe54c60d3acabf3343a35b6eba15db4821b340f76e741e2249685ed4899af6c81565b6001818154811061182e57fe5b6074546001600160a01b031681565b600354600160201b900463ffffffff1681565b60035460008054909163ffffffff600160201b909104811691811660020a168114156118ef5760405162461bcd60e51b815260040180806020018281038252602f8152602001806120b9602f913960400191505060405180910390fd5b6003805463ffffffff600160201b80830482166001019091160267ffffffff000000001990911617905582600080805b60005463ffffffff90811690821610156119c757600185166119835783925060028163ffffffff168154811061195157fe5b906000526020600020015491508360018263ffffffff168154811061197257fe5b6000918252602090912001556119a7565b60018163ffffffff168154811061199657fe5b906000526020600020015492508391505b6119b183836107b2565b9350600263ffffffff861604945060010161191f565b5060035460649063ffffffff908116600101166003805463ffffffff19169290910663ffffffff908116929092179081905584916004911660648110611a0957fe5b01555050600354600160201b900463ffffffff1660001901949350505050565b600082821115611a80576040805162461bcd60e51b815260206004820152601e60248201527f536166654d6174683a207375627472616374696f6e206f766572666c6f770000604482015290519081900360640190fd5b50900390565b6000848152606f602052604090205460ff1615611ad45760405162461bcd60e51b81526004018080602001828103825260218152602001806122206021913960400191505060405180910390fd5b6000611adf85611892565b9050611aea86611c35565b6000858152606f60209081526040808320805460ff199081166001908117909255607084528285208b905560719093529220805460ff881692168217905514611b335733611b35565b825b600086815260726020526040902080546001600160a01b0319166001600160a01b0392909216919091179055428210611b6e5781611b70565b425b600086815260736020526040902055606954611b92908763ffffffff611c8016565b606955606a54611ba8908763ffffffff611c8016565b606a556040805163ffffffff8316815242602082015260ff8616818301526001600160a01b038516606082015260808101849052905186917ff052b28ca720e670068c23c54488dc5b4db3ed42fde7c3fd2d0ea7aee06406eb919081900360a00190a2505050505050565b611c1f84838303611ce1565b8115611c2f57611c2f8383611ce1565b50505050565b3415611c725760405162461bcd60e51b81526004018080602001828103825260308152602001806122416030913960400191505060405180910390fd5b611c7d333083611eac565b50565b600082820183811015611cda576040805162461bcd60e51b815260206004820152601b60248201527f536166654d6174683a206164646974696f6e206f766572666c6f770000000000604482015290519081900360640190fd5b9392505050565b607454604080516001600160a01b038581166024830152604480830186905283518084039091018152606490920183526020820180516001600160e01b031663a9059cbb60e01b178152925182516000956060959316939282918083835b60208310611d5e5780518252601f199092019160209182019101611d3f565b6001836020036101000a0380198251168184511680821785525050505050509050019150506000604051808303816000865af19150503d8060008114611dc0576040519150601f19603f3d011682016040523d82523d6000602084013e611dc5565b606091505b509150915081611e10576040805162461bcd60e51b81526020600482015260116024820152706e6f7420656e6f75676820746f6b656e7360781b604482015290519081900360640190fd5b805115611c2f578051602014611e575760405162461bcd60e51b815260040180806020018281038252602a8152602001806120e8602a913960400191505060405180910390fd5b808060200190516020811015611e6c57600080fd5b5051915081611c2f5760405162461bcd60e51b81526004018080602001828103825260278152602001806121126027913960400191505060405180910390fd5b607454604080516001600160a01b0386811660248301528581166044830152606480830186905283518084039091018152608490920183526020820180516001600160e01b03166323b872dd60e01b178152925182516000956060959316939282918083835b60208310611f315780518252601f199092019160209182019101611f12565b6001836020036101000a0380198251168184511680821785525050505050509050019150506000604051808303816000865af19150503d8060008114611f93576040519150601f19603f3d011682016040523d82523d6000602084013e611f98565b606091505b509150915081611fef576040805162461bcd60e51b815260206004820152601960248201527f6e6f7420656e6f75676820616c6c6f77656420746f6b656e7300000000000000604482015290519081900360640190fd5b80511561208b5780516020146120365760405162461bcd60e51b815260040180806020018281038252602a8152602001806120e8602a913960400191505060405180910390fd5b80806020019051602081101561204b57600080fd5b505191508161208b5760405162461bcd60e51b815260040180806020018281038252602f8152602001806121a4602f913960400191505060405180910390fd5b505050505056fe546865726520617265206f6e6c79203220636865717565207374617475733a2030206f7220314d65726b6c6520747265652069732066756c6c2e204e6f206d6f7265206c656166732063616e20626520616464656464617461206c656e6774682073686f756c64206265206569746865722030206f722033322062797465736e6f7420656e6f75676820746f6b656e732e20546f6b656e2072657475726e732066616c73652e546865206e657720636f6d6d69746d656e7420686173206265656e207375626d6974746564526566756e6420616d6f756e742073686f756c64206265206d6f7265207468616e206665655f72696768742073686f756c6420626520696e7369646520746865206669656c646e6f7420656e6f75676820616c6c6f77656420746f6b656e732e20546f6b656e2072657475726e732066616c73652e546865206465706f736974206973206c6f636b656420756e74696c207468652065666665637469766554696d6530644e72e131a029b85045b68181585d2833e84879b9709143e1f593f000000154686520636f6d6d69746d656e7420686173206265656e207375626d69747465644554482076616c756520697320737570706f73656420746f206265203020666f7220455243323020696e7374616e63654f6e6c79206f70657261746f722063616e2063616c6c20746869732066756e6374696f6e2e53656e646572206973206e6f7420746865206f726967696e616c20726563697069656e74a265627a7a72315820614483237e83fd9218ffd114fd32d2c5d04615c8d549b534598cdbcfe39b987764736f6c6343000511003264656e6f6d696e6174696f6e2073686f756c642062652067726561746572207468616e2030405787fa12a823e0f2b7631cc41b3ba8828b3321ca811111fa75cd3aa3bb5ace5f72696768742073686f756c6420626520696e7369646520746865206669656c645f747265654c6576656c732073686f756c642062652067726561746572207468616e207a65726f30644e72e131a029b85045b68181585d2833e84879b9709143e1f593f00000015f747265654c6576656c732073686f756c64206265206c657373207468616e203332b10e2d527612073b26eecdfd717e6a320cf44b4afac2b0732d9fcbe2b7fa0cf6",
  "source": "/**\n *  $$$$$$\\  $$\\                 $$\\                           \n * $$  __$$\\ $$ |                $$ |                          \n * $$ /  \\__|$$$$$$$\\   $$$$$$\\  $$ |  $$\\  $$$$$$\\   $$$$$$\\  \n * \\$$$$$$\\  $$  __$$\\  \\____$$\\ $$ | $$  |$$  __$$\\ $$  __$$\\ \n *  \\____$$\\ $$ |  $$ | $$$$$$$ |$$$$$$  / $$$$$$$$ |$$ |  \\__|\n * $$\\   $$ |$$ |  $$ |$$  __$$ |$$  _$$<  $$   ____|$$ |      \n * \\$$$$$$  |$$ |  $$ |\\$$$$$$$ |$$ | \\$$\\ \\$$$$$$$\\ $$ |      \n *  \\______/ \\__|  \\__| \\_______|\\__|  \\__| \\_______|\\__|\n * $$$$$$$$$$$$$$$$$$$$$$$$$$$$$$$$$$$$$$$$$$$$$$$$$$$$$$$$$$$$\n * ____________________________________________________________\n*/\n\npragma solidity 0.5.17;\n// pragma experimental ABIEncoderV2;\n\nimport \"./Shaker.sol\";\n\ncontract ERC20Shaker is Shaker {\n  address public token;\n\n  constructor(\n    IVerifier _verifier,\n    uint256 _denomination,\n    uint32 _merkleTreeHeight,\n    address _operator,\n    address _token\n  ) Shaker(_verifier, _denomination, _merkleTreeHeight, _operator) public {\n    token = _token;\n  }\n\n  function _processDeposit(uint256 _amount) internal {\n    require(msg.value == 0, \"ETH value is supposed to be 0 for ERC20 instance\");\n    _safeErc20TransferFrom(msg.sender, address(this), _amount);\n  }\n\n  function _processWithdraw(address payable _recipient, address payable _relayer, uint256 _fee, uint256 _refund) internal {\n    // require(msg.value == _refund, \"Incorrect refund amount received by the contract\");\n\n    _safeErc20Transfer(_recipient, _refund - _fee);\n    if (_fee > 0) {\n      _safeErc20Transfer(_relayer, _fee);\n    }\n\n    // if (_refund > 0) {\n    //   (bool success, ) = _recipient.call.value(_refund)(\"\");\n    //   if (!success) {\n    //     // let's return _refund back to the relayer\n    //     _relayer.transfer(_refund);\n    //   }\n    // }\n  }\n\n  function _safeErc20TransferFrom(address _from, address _to, uint256 _amount) internal {\n    (bool success, bytes memory data) = token.call(abi.encodeWithSelector(0x23b872dd /* transferFrom */, _from, _to, _amount));\n    require(success, \"not enough allowed tokens\");\n\n    // if contract returns some data lets make sure that is `true` according to standard\n    if (data.length > 0) {\n      require(data.length == 32, \"data length should be either 0 or 32 bytes\");\n      success = abi.decode(data, (bool));\n      require(success, \"not enough allowed tokens. Token returns false.\");\n    }\n  }\n\n  function _safeErc20Transfer(address _to, uint256 _amount) internal {\n    (bool success, bytes memory data) = token.call(abi.encodeWithSelector(0xa9059cbb /* transfer */, _to, _amount));\n    require(success, \"not enough tokens\");\n\n    // if contract returns some data lets make sure that is `true` according to standard\n    if (data.length > 0) {\n      require(data.length == 32, \"data length should be either 0 or 32 bytes\");\n      success = abi.decode(data, (bool));\n      require(success, \"not enough tokens. Token returns false.\");\n    }\n  }\n}\n",
  "sourcePath": "/Users/guqianfeng/web/my_dapps/hunbi/tornado-core/contracts/ERC20Shaker.sol",
  "compiler": {
    "name": "solc",
    "version": "0.5.17+commit.d19bba13.Emscripten.clang"
  },
  "schemaVersion": "3.2.4",
  "updatedAt": "2020-09-23T09:05:50.716Z",
  "networkType": "ethereum",
  "devdoc": {
    "methods": {
      "changeOperator(address)": {
        "details": "operator can change his address "
      },
      "depositERC20Batch(uint256[],bytes32[],uint8,address,uint256)": {
        "details": "Deposit a set of amount and commitments",
        "params": {
          "_amounts": ", array of ERC20 amount",
          "_commitments": ", array of commitments",
          "_effectiveTime": ", effective time of the Withdrawal",
          "_orderStatus": ", status of deposit, 0: cheque for bearer, 1: cheque for order",
          "_recipient": ", recipient address if cheque for order"
        }
      },
      "endorse(bytes,bytes32,bytes32,address,address,uint8,uint256,bytes32,bytes32,uint256)": {
        "details": "this function is for cheque endorsement",
        "params": {
          "_amount": ", endorsed amount, the endorsement amount can be part of balance of old cheque",
          "_effectiveTime": ", new effectiveTime of note",
          "_newCommitment": ", new commitment from frontend",
          "_nullifierHash": ", old nullifierHashe",
          "_oldCommitment": ", old commitment which will be endorsed",
          "_orderStatus": ", old cheque order type, 0- to Bearer cheque, 1- to order cheque",
          "_proof": ", Proof of zkSNARK",
          "_recipient": ", new recipient address, if orderStatus is 0, the _recipient is sender. Otherwise the _recipient is to order",
          "_relayer": ", relayer address",
          "_root": ", root of merkle tree"
        }
      },
      "getLastRoot()": {
        "details": "Returns the last root"
      },
      "hashLeftRight(bytes32,bytes32)": {
        "details": "Hash 2 tree leaves, returns MiMC(_left, _right)"
      },
      "isKnownRoot(bytes32)": {
        "details": "Whether the root is present in the root history"
      },
      "isSpent(bytes32)": {
        "details": "whether a note is already spent "
      },
      "isSpentArray(bytes32[])": {
        "details": "whether an array of notes is already spent "
      },
      "updateVerifier(address)": {
        "details": "allow operator to update SNARK verification keys. This is needed to update keys after the final trusted setup ceremony is held. After that operator rights are supposed to be transferred to zero address"
      },
      "withdraw(bytes,bytes32,bytes32,address,address,uint256,uint256,bytes32)": {
        "details": "Withdraw a deposit from the contract. `proof` is a zkSNARK proof data, and input is an array of circuit public inputs `input` array consists of: - merkle root of all deposits in the contract - hash of unique deposit nullifier to prevent double spends - the recipient of funds - optional fee that goes to the transaction sender (usually a relay)",
        "params": {
          "_fee": ", relayer decide the fee amount"
        }
      }
    }
  },
  "userdoc": {
    "methods": {}
  }
}