{
  "contractName": "ERC20Shaker",
  "abi": [
    {
      "inputs": [
        {
          "internalType": "contract IVerifier",
          "name": "_verifier",
          "type": "address"
        },
        {
          "internalType": "uint256",
          "name": "_denomination",
          "type": "uint256"
        },
        {
          "internalType": "uint32",
          "name": "_merkleTreeHeight",
          "type": "uint32"
        },
        {
          "internalType": "address",
          "name": "_operator",
          "type": "address"
        },
        {
          "internalType": "address",
          "name": "_commonWithdrawAddress",
          "type": "address"
        },
        {
          "internalType": "address",
          "name": "_token",
          "type": "address"
        }
      ],
      "payable": false,
      "stateMutability": "nonpayable",
      "type": "constructor"
    },
    {
      "anonymous": false,
      "inputs": [
        {
          "indexed": true,
          "internalType": "bytes32",
          "name": "commitment",
          "type": "bytes32"
        },
        {
          "indexed": false,
          "internalType": "uint32",
          "name": "leafIndex",
          "type": "uint32"
        },
        {
          "indexed": false,
          "internalType": "uint256",
          "name": "timestamp",
          "type": "uint256"
        },
        {
          "indexed": false,
          "internalType": "uint8",
          "name": "orderStatus",
          "type": "uint8"
        },
        {
          "indexed": false,
          "internalType": "address",
          "name": "recipient",
          "type": "address"
        },
        {
          "indexed": false,
          "internalType": "uint256",
          "name": "effectiveTime",
          "type": "uint256"
        }
      ],
      "name": "Deposit",
      "type": "event"
    },
    {
      "anonymous": false,
      "inputs": [
        {
          "indexed": false,
          "internalType": "address",
          "name": "to",
          "type": "address"
        },
        {
          "indexed": false,
          "internalType": "bytes32",
          "name": "nullifierHash",
          "type": "bytes32"
        },
        {
          "indexed": true,
          "internalType": "address",
          "name": "relayer",
          "type": "address"
        },
        {
          "indexed": false,
          "internalType": "uint256",
          "name": "fee",
          "type": "uint256"
        },
        {
          "indexed": false,
          "internalType": "uint256",
          "name": "amount",
          "type": "uint256"
        }
      ],
      "name": "Withdrawal",
      "type": "event"
    },
    {
      "constant": true,
      "inputs": [],
      "name": "FIELD_SIZE",
      "outputs": [
        {
          "internalType": "uint256",
          "name": "",
          "type": "uint256"
        }
      ],
      "payable": false,
      "stateMutability": "view",
      "type": "function"
    },
    {
      "constant": true,
      "inputs": [],
      "name": "ROOT_HISTORY_SIZE",
      "outputs": [
        {
          "internalType": "uint32",
          "name": "",
          "type": "uint32"
        }
      ],
      "payable": false,
      "stateMutability": "view",
      "type": "function"
    },
    {
      "constant": true,
      "inputs": [],
      "name": "ZERO_VALUE",
      "outputs": [
        {
          "internalType": "uint256",
          "name": "",
          "type": "uint256"
        }
      ],
      "payable": false,
      "stateMutability": "view",
      "type": "function"
    },
    {
      "constant": true,
      "inputs": [],
      "name": "commonWithdrawAddress",
      "outputs": [
        {
          "internalType": "address",
          "name": "",
          "type": "address"
        }
      ],
      "payable": false,
      "stateMutability": "view",
      "type": "function"
    },
    {
      "constant": true,
      "inputs": [],
      "name": "councilAddress",
      "outputs": [
        {
          "internalType": "address",
          "name": "",
          "type": "address"
        }
      ],
      "payable": false,
      "stateMutability": "view",
      "type": "function"
    },
    {
      "constant": true,
      "inputs": [],
      "name": "currentRootIndex",
      "outputs": [
        {
          "internalType": "uint32",
          "name": "",
          "type": "uint32"
        }
      ],
      "payable": false,
      "stateMutability": "view",
      "type": "function"
    },
    {
      "constant": true,
      "inputs": [],
      "name": "denomination",
      "outputs": [
        {
          "internalType": "uint256",
          "name": "",
          "type": "uint256"
        }
      ],
      "payable": false,
      "stateMutability": "view",
      "type": "function"
    },
    {
      "constant": false,
      "inputs": [
        {
          "internalType": "uint256[]",
          "name": "_amounts",
          "type": "uint256[]"
        },
        {
          "internalType": "bytes32[]",
          "name": "_commitments",
          "type": "bytes32[]"
        },
        {
          "internalType": "uint8",
          "name": "_orderStatus",
          "type": "uint8"
        },
        {
          "internalType": "address payable",
          "name": "_recipient",
          "type": "address"
        },
        {
          "internalType": "uint256",
          "name": "_effectiveTime",
          "type": "uint256"
        }
      ],
      "name": "depositERC20Batch",
      "outputs": [],
      "payable": true,
      "stateMutability": "payable",
      "type": "function"
    },
    {
      "constant": false,
      "inputs": [
        {
          "internalType": "bytes",
          "name": "_proof",
          "type": "bytes"
        },
        {
          "internalType": "bytes32",
          "name": "_root",
          "type": "bytes32"
        },
        {
          "internalType": "bytes32",
          "name": "_nullifierHash",
          "type": "bytes32"
        },
        {
          "internalType": "address payable",
          "name": "_recipient",
          "type": "address"
        },
        {
          "internalType": "address payable",
          "name": "_relayer",
          "type": "address"
        },
        {
          "internalType": "uint8",
          "name": "_orderStatus",
          "type": "uint8"
        },
        {
          "internalType": "uint256",
          "name": "_amount",
          "type": "uint256"
        },
        {
          "internalType": "bytes32",
          "name": "_oldCommitment",
          "type": "bytes32"
        },
        {
          "internalType": "bytes32",
          "name": "_newCommitment",
          "type": "bytes32"
        },
        {
          "internalType": "uint256",
          "name": "_effectiveTime",
          "type": "uint256"
        }
      ],
      "name": "endorse",
      "outputs": [],
      "payable": true,
      "stateMutability": "payable",
      "type": "function"
    },
    {
      "constant": true,
      "inputs": [
        {
          "internalType": "uint256",
          "name": "",
          "type": "uint256"
        }
      ],
      "name": "filledSubtrees",
      "outputs": [
        {
          "internalType": "bytes32",
          "name": "",
          "type": "bytes32"
        }
      ],
      "payable": false,
      "stateMutability": "view",
      "type": "function"
    },
    {
      "constant": true,
      "inputs": [],
      "name": "getLastRoot",
      "outputs": [
        {
          "internalType": "bytes32",
          "name": "",
          "type": "bytes32"
        }
      ],
      "payable": false,
      "stateMutability": "view",
      "type": "function"
    },
    {
      "constant": true,
      "inputs": [],
      "name": "getRelayerWithdrawAddress",
      "outputs": [
        {
          "internalType": "address",
          "name": "",
          "type": "address"
        }
      ],
      "payable": false,
      "stateMutability": "view",
      "type": "function"
    },
    {
      "constant": true,
      "inputs": [
        {
          "internalType": "bytes32",
          "name": "_left",
          "type": "bytes32"
        },
        {
          "internalType": "bytes32",
          "name": "_right",
          "type": "bytes32"
        }
      ],
      "name": "hashLeftRight",
      "outputs": [
        {
          "internalType": "bytes32",
          "name": "",
          "type": "bytes32"
        }
      ],
      "payable": false,
      "stateMutability": "pure",
      "type": "function"
    },
    {
      "constant": true,
      "inputs": [
        {
          "internalType": "bytes32",
          "name": "_root",
          "type": "bytes32"
        }
      ],
      "name": "isKnownRoot",
      "outputs": [
        {
          "internalType": "bool",
          "name": "",
          "type": "bool"
        }
      ],
      "payable": false,
      "stateMutability": "view",
      "type": "function"
    },
    {
      "constant": true,
      "inputs": [
        {
          "internalType": "bytes32",
          "name": "_nullifierHash",
          "type": "bytes32"
        }
      ],
      "name": "isSpent",
      "outputs": [
        {
          "internalType": "bool",
          "name": "",
          "type": "bool"
        }
      ],
      "payable": false,
      "stateMutability": "view",
      "type": "function"
    },
    {
      "constant": true,
      "inputs": [
        {
          "internalType": "bytes32[]",
          "name": "_nullifierHashes",
          "type": "bytes32[]"
        }
      ],
      "name": "isSpentArray",
      "outputs": [
        {
          "internalType": "bool[]",
          "name": "spent",
          "type": "bool[]"
        }
      ],
      "payable": false,
      "stateMutability": "view",
      "type": "function"
    },
    {
      "constant": true,
      "inputs": [],
      "name": "levels",
      "outputs": [
        {
          "internalType": "uint32",
          "name": "",
          "type": "uint32"
        }
      ],
      "payable": false,
      "stateMutability": "view",
      "type": "function"
    },
    {
      "constant": true,
      "inputs": [
        {
          "internalType": "uint256",
          "name": "",
          "type": "uint256"
        }
      ],
      "name": "lockCommitments",
      "outputs": [
        {
          "internalType": "bytes32",
          "name": "",
          "type": "bytes32"
        }
      ],
      "payable": false,
      "stateMutability": "view",
      "type": "function"
    },
    {
      "constant": false,
      "inputs": [
        {
          "internalType": "bytes",
          "name": "_proof",
          "type": "bytes"
        },
        {
          "internalType": "bytes32",
          "name": "_root",
          "type": "bytes32"
        },
        {
          "internalType": "bytes32",
          "name": "_nullifierHash",
          "type": "bytes32"
        },
        {
          "internalType": "address payable",
          "name": "_recipient",
          "type": "address"
        },
        {
          "internalType": "address payable",
          "name": "_relayer",
          "type": "address"
        },
        {
          "internalType": "uint256",
          "name": "_fee",
          "type": "uint256"
        },
        {
          "internalType": "uint256",
          "name": "_refund",
          "type": "uint256"
        },
        {
          "internalType": "bytes32",
          "name": "_commitment",
          "type": "bytes32"
        },
        {
          "internalType": "string",
          "name": "_description",
          "type": "string"
        }
      ],
      "name": "lockDeposit",
      "outputs": [
        {
          "internalType": "uint256",
          "name": "",
          "type": "uint256"
        }
      ],
      "payable": true,
      "stateMutability": "payable",
      "type": "function"
    },
    {
      "constant": true,
      "inputs": [
        {
          "internalType": "bytes32",
          "name": "",
          "type": "bytes32"
        }
      ],
      "name": "lockReason",
      "outputs": [
        {
          "internalType": "string",
          "name": "description",
          "type": "string"
        },
        {
          "internalType": "uint8",
          "name": "status",
          "type": "uint8"
        },
        {
          "internalType": "uint256",
          "name": "datetime",
          "type": "uint256"
        },
        {
          "internalType": "address",
          "name": "recipient",
          "type": "address"
        },
        {
          "internalType": "address",
          "name": "relayer",
          "type": "address"
        },
        {
          "internalType": "address",
          "name": "locker",
          "type": "address"
        },
        {
          "internalType": "uint256",
          "name": "refund",
          "type": "uint256"
        }
      ],
      "payable": false,
      "stateMutability": "view",
      "type": "function"
    },
    {
      "constant": true,
      "inputs": [],
      "name": "nextIndex",
      "outputs": [
        {
          "internalType": "uint32",
          "name": "",
          "type": "uint32"
        }
      ],
      "payable": false,
      "stateMutability": "view",
      "type": "function"
    },
    {
      "constant": true,
      "inputs": [],
      "name": "operator",
      "outputs": [
        {
          "internalType": "address",
          "name": "",
          "type": "address"
        }
      ],
      "payable": false,
      "stateMutability": "view",
      "type": "function"
    },
    {
      "constant": true,
      "inputs": [
        {
          "internalType": "uint256",
          "name": "",
          "type": "uint256"
        }
      ],
      "name": "roots",
      "outputs": [
        {
          "internalType": "bytes32",
          "name": "",
          "type": "bytes32"
        }
      ],
      "payable": false,
      "stateMutability": "view",
      "type": "function"
    },
    {
      "constant": false,
      "inputs": [
        {
          "internalType": "address",
          "name": "_councilAddress",
          "type": "address"
        }
      ],
      "name": "setCouncial",
      "outputs": [],
      "payable": false,
      "stateMutability": "nonpayable",
      "type": "function"
    },
    {
      "constant": true,
      "inputs": [],
      "name": "token",
      "outputs": [
        {
          "internalType": "address",
          "name": "",
          "type": "address"
        }
      ],
      "payable": false,
      "stateMutability": "view",
      "type": "function"
    },
    {
      "constant": true,
      "inputs": [],
      "name": "totalAmount",
      "outputs": [
        {
          "internalType": "uint256",
          "name": "",
          "type": "uint256"
        }
      ],
      "payable": false,
      "stateMutability": "view",
      "type": "function"
    },
    {
      "constant": true,
      "inputs": [],
      "name": "totalBalance",
      "outputs": [
        {
          "internalType": "uint256",
          "name": "",
          "type": "uint256"
        }
      ],
      "payable": false,
      "stateMutability": "view",
      "type": "function"
    },
    {
      "constant": false,
      "inputs": [
        {
          "internalType": "uint256",
          "name": "id",
          "type": "uint256"
        }
      ],
      "name": "unlockDeposit",
      "outputs": [],
      "payable": false,
      "stateMutability": "nonpayable",
      "type": "function"
    },
    {
      "constant": false,
      "inputs": [
        {
          "internalType": "address",
          "name": "_commonWithdrawAddress",
          "type": "address"
        }
      ],
      "name": "updateCommonWithdrawAddress",
      "outputs": [],
      "payable": false,
      "stateMutability": "nonpayable",
      "type": "function"
    },
    {
      "constant": false,
      "inputs": [
        {
          "internalType": "address",
          "name": "_newOperator",
          "type": "address"
        }
      ],
      "name": "updateOperator",
      "outputs": [],
      "payable": false,
      "stateMutability": "nonpayable",
      "type": "function"
    },
    {
      "constant": false,
      "inputs": [
        {
          "internalType": "address",
          "name": "_relayer",
          "type": "address"
        },
        {
          "internalType": "address",
          "name": "_withdrawAddress",
          "type": "address"
        }
      ],
      "name": "updateRelayer",
      "outputs": [],
      "payable": false,
      "stateMutability": "nonpayable",
      "type": "function"
    },
    {
      "constant": false,
      "inputs": [
        {
          "internalType": "address",
          "name": "_newVerifier",
          "type": "address"
        }
      ],
      "name": "updateVerifier",
      "outputs": [],
      "payable": false,
      "stateMutability": "nonpayable",
      "type": "function"
    },
    {
      "constant": true,
      "inputs": [],
      "name": "verifier",
      "outputs": [
        {
          "internalType": "contract IVerifier",
          "name": "",
          "type": "address"
        }
      ],
      "payable": false,
      "stateMutability": "view",
      "type": "function"
    },
    {
      "constant": false,
      "inputs": [
        {
          "internalType": "bytes",
          "name": "_proof",
          "type": "bytes"
        },
        {
          "internalType": "bytes32",
          "name": "_root",
          "type": "bytes32"
        },
        {
          "internalType": "bytes32",
          "name": "_nullifierHash",
          "type": "bytes32"
        },
        {
          "internalType": "address payable",
          "name": "_recipient",
          "type": "address"
        },
        {
          "internalType": "address payable",
          "name": "_relayer",
          "type": "address"
        },
        {
          "internalType": "uint256",
          "name": "_fee",
          "type": "uint256"
        },
        {
          "internalType": "uint256",
          "name": "_refund",
          "type": "uint256"
        },
        {
          "internalType": "bytes32",
          "name": "_commitment",
          "type": "bytes32"
        }
      ],
      "name": "withdraw",
      "outputs": [],
      "payable": true,
      "stateMutability": "payable",
      "type": "function"
    },
    {
      "constant": true,
      "inputs": [
        {
          "internalType": "uint256",
          "name": "",
          "type": "uint256"
        }
      ],
      "name": "zeros",
      "outputs": [
        {
          "internalType": "bytes32",
          "name": "",
          "type": "bytes32"
        }
      ],
      "payable": false,
      "stateMutability": "view",
      "type": "function"
    }
  ],
  "bytecode": "0x6080604052600380546001600160401b031916905560006069819055606a553480156200002b57600080fd5b506040516200358138038062003581833981810160405260c08110156200005157600080fd5b508051602082015160408301516060840151608085015160a090950151939492939192909185858585858263ffffffff8116620000c05760405162461bcd60e51b8152600401808060200182810382526027815260200180620034f86027913960400191505060405180910390fd5b60208163ffffffff1610620001075760405162461bcd60e51b81526004018080602001828103825260228152602001806200353f6022913960400191505060405180910390fd5b6000805463ffffffff191663ffffffff83161781556002805460018181019092557f2fe54c60d3acabf3343a35b6eba15db4821b340f76e741e2249685ed4899af6c600080516020620034b78339815191529091018190558154808301835592829052600080516020620035618339815191529092018290555b60005463ffffffff9081169082161015620001f557620001ab82806001600160e01b03620002b616565b600280546001818101909255600080516020620034b78339815191520182905580548082018255600082905260008051602062003561833981519152018290559092500162000181565b506200020b81806001600160e01b03620002b616565b6004555050600160685583620002535760405162461bcd60e51b8152600401808060200182810382526025815260200180620034926025913960400191505060405180910390fd5b606b80546001600160a01b03199081166001600160a01b0397881617909155606c8054821693871693909317909255606e939093556076805482169385169390931790925550607980549091169290911691909117905550620004a39350505050565b60006000805160206200351f83398151915283106200031c576040805162461bcd60e51b815260206004820181905260248201527f5f6c6566742073686f756c6420626520696e7369646520746865206669656c64604482015290519081900360640190fd5b6000805160206200351f83398151915282106200036b5760405162461bcd60e51b8152600401808060200182810382526021815260200180620034d76021913960400191505060405180910390fd5b6040805163f47d33b560e01b81526004810185905260006024820181905282518693919273__Hasher________________________________9263f47d33b592604480840193829003018186803b158015620003c657600080fd5b505af4158015620003db573d6000803e3d6000fd5b505050506040513d6040811015620003f257600080fd5b50805160209091015190925090506000805160206200351f833981519152848308915073__Hasher________________________________63f47d33b583836040518363ffffffff1660e01b81526004018083815260200182815260200192505050604080518083038186803b1580156200046c57600080fd5b505af415801562000481573d6000803e3d6000fd5b505050506040513d60408110156200049857600080fd5b505195945050505050565b612fdf80620004b36000396000f3fe6080604052600436106102045760003560e01c806390eeb02b11610118578063cd87a3b4116100a0578063ec7329591161006f578063ec7329591461097b578063eece3bd514610990578063f178e47c14610a85578063fc0c546a14610aaf578063fc7e9c6f14610ac457610204565b8063cd87a3b414610872578063da90803914610887578063e5285dcc14610927578063e82955881461095157610204565b8063a8be3cd6116100e7578063a8be3cd614610715578063ac7475ed146107eb578063ad7a672f1461081e578063ba70f75714610833578063c2b40ae41461084857610204565b806390eeb02b146105cf57806397fc007c146105e45780639fa12d0b14610617578063a4cab45c146106e257610204565b806354b45fc31161019b5780636d9833e31161016a5780636d9833e31461047857806377b9de8e146104b6578063807c7ba3146104e0578063827a26001461050a5780638bca6d16146105ba57610204565b806354b45fc31461033b578063570ca7351461036e5780635c64ae911461038357806362bc0cd61461046357610204565b806338bf282e116101d757806338bf282e146102b3578063414a37ba146102e35780634d10b2fb146102f85780634ecf518b1461030d57610204565b806315d232db146102095780631a39d8ef1461023a578063266c0aa7146102615780632b7ac3f31461029e575b600080fd5b34801561021557600080fd5b5061021e610ad9565b604080516001600160a01b039092168252519081900360200190f35b34801561024657600080fd5b5061024f610b4b565b60408051918252519081900360200190f35b34801561026d57600080fd5b5061029c6004803603604081101561028457600080fd5b506001600160a01b0381358116916020013516610b51565b005b3480156102aa57600080fd5b5061021e610bc8565b3480156102bf57600080fd5b5061024f600480360360408110156102d657600080fd5b5080359060200135610bd7565b3480156102ef57600080fd5b5061024f610db8565b34801561030457600080fd5b5061021e610dca565b34801561031957600080fd5b50610322610dd9565b6040805163ffffffff9092168252519081900360200190f35b34801561034757600080fd5b5061029c6004803603602081101561035e57600080fd5b50356001600160a01b0316610de5565b34801561037a57600080fd5b5061021e610e50565b34801561038f57600080fd5b506103ad600480360360208110156103a657600080fd5b5035610e5f565b6040805160ff88166020808301919091529181018790526001600160a01b0380871660608301528581166080830152841660a082015260c0810183905260e08082528951908201528851909182916101008301918b019080838360005b8381101561042257818101518382015260200161040a565b50505050905090810190601f16801561044f5780820380516001836020036101000a031916815260200191505b509850505050505050505060405180910390f35b34801561046f57600080fd5b5061021e610f38565b34801561048457600080fd5b506104a26004803603602081101561049b57600080fd5b5035610f47565b604080519115158252519081900360200190f35b3480156104c257600080fd5b5061029c600480360360208110156104d957600080fd5b5035610fba565b3480156104ec57600080fd5b5061024f6004803603602081101561050357600080fd5b503561104d565b61029c600480360361014081101561052157600080fd5b810190602081018135600160201b81111561053b57600080fd5b82018360208201111561054d57600080fd5b803590602001918460018302840111600160201b8311171561056e57600080fd5b91935091508035906020810135906001600160a01b03604082013581169160608101359091169060ff6080820135169060a08101359060c08101359060e081013590610100013561106b565b3480156105c657600080fd5b5061024f611764565b3480156105db57600080fd5b5061032261176a565b3480156105f057600080fd5b5061029c6004803603602081101561060757600080fd5b50356001600160a01b0316611776565b34801561062357600080fd5b506106926004803603602081101561063a57600080fd5b810190602081018135600160201b81111561065457600080fd5b82018360208201111561066657600080fd5b803590602001918460208302840111600160201b8311171561068757600080fd5b5090925090506117e1565b60408051602080825283518183015283519192839290830191858101910280838360005b838110156106ce5781810151838201526020016106b6565b505050509050019250505060405180910390f35b3480156106ee57600080fd5b5061029c6004803603602081101561070557600080fd5b50356001600160a01b0316611869565b61029c600480360360a081101561072b57600080fd5b810190602081018135600160201b81111561074557600080fd5b82018360208201111561075757600080fd5b803590602001918460208302840111600160201b8311171561077857600080fd5b919390929091602081019035600160201b81111561079557600080fd5b8201836020820111156107a757600080fd5b803590602001918460208302840111600160201b831117156107c857600080fd5b919350915060ff813516906001600160a01b0360208201351690604001356118d4565b3480156107f757600080fd5b5061029c6004803603602081101561080e57600080fd5b50356001600160a01b03166119d3565b34801561082a57600080fd5b5061024f611a3e565b34801561083f57600080fd5b5061024f611a44565b34801561085457600080fd5b5061024f6004803603602081101561086b57600080fd5b5035611a64565b34801561087e57600080fd5b50610322611a78565b61029c600480360361010081101561089e57600080fd5b810190602081018135600160201b8111156108b857600080fd5b8201836020820111156108ca57600080fd5b803590602001918460018302840111600160201b831117156108eb57600080fd5b91935091508035906020810135906001600160a01b03604082013581169160608101359091169060808101359060a08101359060c00135611a7d565b34801561093357600080fd5b506104a26004803603602081101561094a57600080fd5b50356120b1565b34801561095d57600080fd5b5061024f6004803603602081101561097457600080fd5b50356120c6565b34801561098757600080fd5b5061024f6120d3565b61024f60048036036101208110156109a757600080fd5b810190602081018135600160201b8111156109c157600080fd5b8201836020820111156109d357600080fd5b803590602001918460018302840111600160201b831117156109f457600080fd5b919390928235926020810135926001600160a01b03604083013581169360608401359091169260808101359260a08201359260c08301359261010081019060e00135600160201b811115610a4757600080fd5b820183602082011115610a5957600080fd5b803590602001918460018302840111600160201b83111715610a7a57600080fd5b5090925090506120f7565b348015610a9157600080fd5b5061024f60048036036020811015610aa857600080fd5b5035612425565b348015610abb57600080fd5b5061021e612432565b348015610ad057600080fd5b50610322612441565b336000908152607560205260408120546001600160a01b0316610b2d5760405162461bcd60e51b8152600401808060200182810382526024815260200180612f3e6024913960400191505060405180910390fd5b50336000908152607560205260409020546001600160a01b03165b90565b60695481565b606c546001600160a01b03163314610b9a5760405162461bcd60e51b8152600401808060200182810382526025815260200180612f626025913960400191505060405180910390fd5b6001600160a01b03918216600090815260756020526040902080546001600160a01b03191691909216179055565b606b546001600160a01b031681565b6000600080516020612ea18339815191528310610c3b576040805162461bcd60e51b815260206004820181905260248201527f5f6c6566742073686f756c6420626520696e7369646520746865206669656c64604482015290519081900360640190fd5b600080516020612ea18339815191528210610c875760405162461bcd60e51b8152600401808060200182810382526021815260200180612e246021913960400191505060405180910390fd5b6040805163f47d33b560e01b81526004810185905260006024820181905282518693919273__Hasher________________________________9263f47d33b592604480840193829003018186803b158015610ce157600080fd5b505af4158015610cf5573d6000803e3d6000fd5b505050506040513d6040811015610d0b57600080fd5b5080516020909101519092509050600080516020612ea1833981519152848308915073__Hasher________________________________63f47d33b583836040518363ffffffff1660e01b81526004018083815260200182815260200192505050604080518083038186803b158015610d8357600080fd5b505af4158015610d97573d6000803e3d6000fd5b505050506040513d6040811015610dad57600080fd5b505195945050505050565b600080516020612ea183398151915281565b6076546001600160a01b031681565b60005463ffffffff1681565b606c546001600160a01b03163314610e2e5760405162461bcd60e51b8152600401808060200182810382526025815260200180612f626025913960400191505060405180910390fd5b606d80546001600160a01b0319166001600160a01b0392909216919091179055565b606c546001600160a01b031681565b60776020908152600091825260409182902080548351601f60026000196101006001861615020190931692909204918201849004840281018401909452808452909291839190830182828015610ef65780601f10610ecb57610100808354040283529160200191610ef6565b820191906000526020600020905b815481529060010190602001808311610ed957829003601f168201915b50505060018401546002850154600386015460048701546005880154600690980154969760ff909416969295506001600160a01b039182169450811692169087565b606d546001600160a01b031681565b600081610f5657506000610fb5565b60035463ffffffff165b60048163ffffffff1660648110610f7357fe5b0154831415610f86576001915050610fb5565b63ffffffff8116610f95575060645b6003546000199091019063ffffffff80831691161415610f605760009150505b919050565b606d546001600160a01b031633146110035760405162461bcd60e51b815260040180806020018281038252602c815260200180612ec1602c913960400191505060405180910390fd5b6002607760006078848154811061101657fe5b9060005260206000200154815260200190815260200160002060010160006101000a81548160ff021916908360ff16021790555050565b6078818154811061105a57fe5b600091825260209091200154905081565b600260685414156110b1576040805162461bcd60e51b815260206004820152601f6024820152600080516020612ced833981519152604482015290519081900360640190fd5b6002606855600083815260776020526040902060019081015460ff16141561111a576040805162461bcd60e51b8152602060048201526017602482015276151a1a5cc819195c1bdcda5d081dd85cc81b1bd8dad959604a1b604482015290519081900360640190fd5b60008381526070602052604090205460ff1661117d576040805162461bcd60e51b815260206004820152601b60248201527f4f6c6420636f6d6d69746d656e742063616e206e6f742066696e640000000000604482015290519081900360640190fd5b60008281526070602052604090205460ff16156111cb5760405162461bcd60e51b8152600401808060200182810382526025815260200180612dda6025913960400191505060405180910390fd5b6000888152606f602052604090205460ff161561122f576040805162461bcd60e51b815260206004820152601f60248201527f546865206e6f746520686173206265656e20616c7265616479207370656e7400604482015290519081900360640190fd5b61123889610f47565b611289576040805162461bcd60e51b815260206004820152601c60248201527f43616e6e6f742066696e6420796f7572206d65726b6c6520726f6f7400000000604482015290519081900360640190fd5b6000838152607160205260409020546112e9576040805162461bcd60e51b815260206004820152601f60248201527f4e6f2062616c616e636520616d6f756e74206f6620746869732070726f6f6600604482015290519081900360640190fd5b600083815260716020526040812054851061131257600084815260716020526040902054611314565b845b90506000811161136b576040805162461bcd60e51b815260206004820152601d60248201527f526566756e6420616d6f756e742063616e206e6f74206265207a65726f000000604482015290519081900360640190fd5b60008481526072602052604090205460ff1660011480156113a257506000848152607360205260409020546001600160a01b031633145b806113bc575060008481526072602052604090205460ff16155b6113f75760405162461bcd60e51b8152600401808060200182810382526024815260200180612f876024913960400191505060405180910390fd5b606b60009054906101000a90046001600160a01b03166001600160a01b031663695ef6f98d8d6040518060c001604052808f60001c81526020018e60001c81526020018d6001600160a01b031681526020018c6001600160a01b031681526020018b60ff1681526020018a8152506040518463ffffffff1660e01b8152600401808060200183600660200280838360005b838110156114a0578181015183820152602001611488565b505050509050018281038252858582818152602001925080828437600081840152601f19601f820116905080830192505050945050505050602060405180830381600087803b1580156114f257600080fd5b505af1158015611506573d6000803e3d6000fd5b505050506040513d602081101561151c57600080fd5b505161156f576040805162461bcd60e51b815260206004820152601960248201527f496e76616c696420656e646f7273656d656e742070726f6f6600000000000000604482015290519081900360640190fd5b600061157a84612454565b905060008311801561159a57506000858152607460205260409020544210155b156115b55760008481526074602052604090208390556115cc565b600085815260746020526040808220548683529120555b6000848152607060209081526040808320805460ff199081166001908117909255607184528285208b905560729093529220805460ff8b16921682179055146116155733611617565b885b600085815260736020908152604080832080546001600160a01b0319166001600160a01b03959095169490941790935587825260719052205461165a90836125eb565b60008681526071602052604090208190551561167757600061167a565b60015b60008b8152606f6020908152604091829020805493151560ff1990941693909317909255805163ffffffff84168152429281019290925260ff8916828201526001600160a01b038b166060830152608082018590525185917ff052b28ca720e670068c23c54488dc5b4db3ed42fde7c3fd2d0ea7aee06406eb919081900360a00190a2604080516000808252602082018d9052818301526060810184905290516001600160a01b038a16917f6d7aac54bd3d1c91db3b1fd7b8d6cb45324ad6b5e373c0f0ea4d7b2606c4c2c8919081900360800190a2505060016068555050505050505050505050565b606e5481565b60035463ffffffff1681565b606c546001600160a01b031633146117bf5760405162461bcd60e51b8152600401808060200182810382526025815260200180612f626025913960400191505060405180910390fd5b606b80546001600160a01b0319166001600160a01b0392909216919091179055565b60408051828152602080840282010190915260609082801561180d578160200160208202803883390190505b50905060005b828110156118625761183684848381811061182a57fe5b905060200201356120b1565b1561185a57600182828151811061184957fe5b911515602092830291909101909101525b600101611813565b5092915050565b606c546001600160a01b031633146118b25760405162461bcd60e51b8152600401808060200182810382526025815260200180612f626025913960400191505060405180910390fd5b607680546001600160a01b0319166001600160a01b0392909216919091179055565b6002606854141561191a576040805162461bcd60e51b815260206004820152601f6024820152600080516020612ced833981519152604482015290519081900360640190fd5b600260685560ff8316158061193257508260ff166001145b61196d5760405162461bcd60e51b8152600401808060200182810382526026815260200180612d0d6026913960400191505060405180910390fd5b6001600160a01b03821661198057600080fd5b60005b868110156119c4576119bc88888381811061199a57fe5b905060200201358787848181106119ad57fe5b90506020020135868686612648565b600101611983565b50506001606855505050505050565b606c546001600160a01b03163314611a1c5760405162461bcd60e51b8152600401808060200182810382526025815260200180612f626025913960400191505060405180910390fd5b606c80546001600160a01b0319166001600160a01b0392909216919091179055565b606a5481565b60035460009060049063ffffffff1660648110611a5d57fe5b0154905090565b60048160648110611a7157fe5b0154905081565b606481565b60026068541415611ac3576040805162461bcd60e51b815260206004820152601f6024820152600080516020612ced833981519152604482015290519081900360640190fd5b6002606855600081815260776020526040902060019081015460ff161415611b2c576040805162461bcd60e51b8152602060048201526017602482015276151a1a5cc819195c1bdcda5d081dd85cc81b1bd8dad959604a1b604482015290519081900360640190fd5b6000868152606f602052604090205460ff1615611b90576040805162461bcd60e51b815260206004820152601f60248201527f546865206e6f746520686173206265656e20616c7265616479207370656e7400604482015290519081900360640190fd5b611b9987610f47565b611bea576040805162461bcd60e51b815260206004820152601c60248201527f43616e6e6f742066696e6420796f7572206d65726b6c6520726f6f7400000000604482015290519081900360640190fd5b60008181526072602052604090205460ff166001148015611c2457506000818152607360205260409020546001600160a01b038681169116145b80611c3e575060008181526072602052604090205460ff16155b611c795760405162461bcd60e51b8152600401808060200182810382526027815260200180612db36027913960400191505060405180910390fd5b600081815260716020526040902054611cd9576040805162461bcd60e51b815260206004820152601f60248201527f4e6f2062616c616e636520616d6f756e74206f6620746869732070726f6f6600604482015290519081900360640190fd5b6000818152607160205260408120548310611d0257600082815260716020526040902054611d04565b825b905060008111611d5b576040805162461bcd60e51b815260206004820152601d60248201527f526566756e6420616d6f756e742063616e206e6f74206265207a65726f000000604482015290519081900360640190fd5b600082815260746020526040902054421015611da85760405162461bcd60e51b815260040180806020018281038252602d815260200180612e74602d913960400191505060405180910390fd5b83811015611de75760405162461bcd60e51b8152600401808060200182810382526025815260200180612dff6025913960400191505060405180910390fd5b606b546040805160c080820183528b8252602082018b90526001600160a01b038a81168385015289811660608401526080830189905260a08301889052925163695ef6f960e01b8152929093169263695ef6f9928e928e9290916004810191829160240190849080838360005b83811015611e6c578181015183820152602001611e54565b505050509050018281038252858582818152602001925080828437600081840152601f19601f820116905080830192505050945050505050602060405180830381600087803b158015611ebe57600080fd5b505af1158015611ed2573d6000803e3d6000fd5b505050506040513d6020811015611ee857600080fd5b5051611f34576040805162461bcd60e51b815260206004820152601660248201527524b73b30b634b2103bb4ba34323930bb90383937b7b360511b604482015290519081900360640190fd5b60008281526072602052604081205460ff16600114611f535786611f6c565b6000838152607360205260409020546001600160a01b03165b33600090815260756020526040812054919250906001600160a01b031615611fac57336000908152607560205260409020546001600160a01b0316611fb9565b6076546001600160a01b03165b9050611fc7828288866127d5565b600084815260716020526040902054611fe6908463ffffffff6125eb16565b600085815260716020526040902055606954612008908463ffffffff6125eb16565b60695560008481526071602052604090205415612026576000612029565b60015b60008a8152606f6020908152604091829020805460ff19169315159390931790925580516001600160a01b038b811682529281018c9052808201899052606081018690529051918916917f6d7aac54bd3d1c91db3b1fd7b8d6cb45324ad6b5e373c0f0ea4d7b2606c4c2c8916080908290030190a25050600160685550505050505050505050565b6000908152606f602052604090205460ff1690565b6002818154811061105a57fe5b7f2fe54c60d3acabf3343a35b6eba15db4821b340f76e741e2249685ed4899af6c81565b60006002606854141561213f576040805162461bcd60e51b815260206004820152601f6024820152600080516020612ced833981519152604482015290519081900360640190fd5b6002606881905550606b60009054906101000a90046001600160a01b03166001600160a01b031663695ef6f98d8d6040518060c001604052808f60001c81526020018e60001c81526020018d6001600160a01b031681526020018c6001600160a01b031681526020018b81526020018a8152506040518463ffffffff1660e01b8152600401808060200183600660200280838360005b838110156121ed5781810151838201526020016121d5565b505050509050018281038252858582818152602001925080828437600081840152601f19601f820116905080830192505050945050505050602060405180830381600087803b15801561223f57600080fd5b505af1158015612253573d6000803e3d6000fd5b505050506040513d602081101561226957600080fd5b50516122b5576040805162461bcd60e51b815260206004820152601660248201527524b73b30b634b2103bb4ba34323930bb90383937b7b360511b604482015290519081900360640190fd5b6040518060e0016040528084848080601f016020809104026020016040519081016040528093929190818152602001838380828437600092018290525093855250506001602080850191909152426040808601919091526001600160a01b03808f1660608701528d1660808601523360a086015260c09094018a9052888352607781529290912083518051919361235193508492910190612c54565b5060208201516001828101805460ff191660ff909316929092179091556040830151600283015560608301516003830180546001600160a01b03199081166001600160a01b03938416179091556080850151600485018054831691841691909117905560a0850151600585018054909216921691909117905560c09092015160069091015560788054808301825560008290527f8dc6fb69531d98d70dc0420e638d2dfd04e09e1ec783ede9aac77da9c5a0dac4019590955593546068949094555050506000190198975050505050505050565b6001818154811061105a57fe5b6079546001600160a01b031681565b600354600160201b900463ffffffff1681565b60035460008054909163ffffffff600160201b909104811691811660020a168114156124b15760405162461bcd60e51b815260040180806020018281038252602f815260200180612d33602f913960400191505060405180910390fd5b6003805463ffffffff600160201b80830482166001019091160267ffffffff000000001990911617905582600080805b60005463ffffffff908116908216101561258957600185166125455783925060028163ffffffff168154811061251357fe5b906000526020600020015491508360018263ffffffff168154811061253457fe5b600091825260209091200155612569565b60018163ffffffff168154811061255857fe5b906000526020600020015492508391505b6125738383610bd7565b9350600263ffffffff86160494506001016124e1565b5060035460649063ffffffff908116600101166003805463ffffffff19169290910663ffffffff9081169290921790819055849160049116606481106125cb57fe5b01555050600354600160201b900463ffffffff1660001901949350505050565b600082821115612642576040805162461bcd60e51b815260206004820152601e60248201527f536166654d6174683a207375627472616374696f6e206f766572666c6f770000604482015290519081900360640190fd5b50900390565b60008481526070602052604090205460ff16156126965760405162461bcd60e51b8152600401808060200182810382526021815260200180612eed6021913960400191505060405180910390fd5b60006126a185612454565b90506126ac866127f7565b6000858152607060209081526040808320805460ff199081166001908117909255607184528285208b905560729093529220805460ff8816921682179055146126f557336126f7565b825b600086815260736020526040902080546001600160a01b0319166001600160a01b03929092169190911790554282106127305781612732565b425b600086815260746020526040902055606954612754908763ffffffff61284216565b606955606a5461276a908763ffffffff61284216565b606a556040805163ffffffff8316815242602082015260ff8616818301526001600160a01b038516606082015260808101849052905186917ff052b28ca720e670068c23c54488dc5b4db3ed42fde7c3fd2d0ea7aee06406eb919081900360a00190a2505050505050565b6127e1848383036128a3565b81156127f1576127f183836128a3565b50505050565b34156128345760405162461bcd60e51b8152600401808060200182810382526030815260200180612f0e6030913960400191505060405180910390fd5b61283f333083612a6e565b50565b60008282018381101561289c576040805162461bcd60e51b815260206004820152601b60248201527f536166654d6174683a206164646974696f6e206f766572666c6f770000000000604482015290519081900360640190fd5b9392505050565b607954604080516001600160a01b038581166024830152604480830186905283518084039091018152606490920183526020820180516001600160e01b031663a9059cbb60e01b178152925182516000956060959316939282918083835b602083106129205780518252601f199092019160209182019101612901565b6001836020036101000a0380198251168184511680821785525050505050509050019150506000604051808303816000865af19150503d8060008114612982576040519150601f19603f3d011682016040523d82523d6000602084013e612987565b606091505b5091509150816129d2576040805162461bcd60e51b81526020600482015260116024820152706e6f7420656e6f75676820746f6b656e7360781b604482015290519081900360640190fd5b8051156127f1578051602014612a195760405162461bcd60e51b815260040180806020018281038252602a815260200180612d62602a913960400191505060405180910390fd5b808060200190516020811015612a2e57600080fd5b50519150816127f15760405162461bcd60e51b8152600401808060200182810382526027815260200180612d8c6027913960400191505060405180910390fd5b607954604080516001600160a01b0386811660248301528581166044830152606480830186905283518084039091018152608490920183526020820180516001600160e01b03166323b872dd60e01b178152925182516000956060959316939282918083835b60208310612af35780518252601f199092019160209182019101612ad4565b6001836020036101000a0380198251168184511680821785525050505050509050019150506000604051808303816000865af19150503d8060008114612b55576040519150601f19603f3d011682016040523d82523d6000602084013e612b5a565b606091505b509150915081612bb1576040805162461bcd60e51b815260206004820152601960248201527f6e6f7420656e6f75676820616c6c6f77656420746f6b656e7300000000000000604482015290519081900360640190fd5b805115612c4d578051602014612bf85760405162461bcd60e51b815260040180806020018281038252602a815260200180612d62602a913960400191505060405180910390fd5b808060200190516020811015612c0d57600080fd5b5051915081612c4d5760405162461bcd60e51b815260040180806020018281038252602f815260200180612e45602f913960400191505060405180910390fd5b5050505050565b828054600181600116156101000203166002900490600052602060002090601f016020900481019282601f10612c9557805160ff1916838001178555612cc2565b82800160010185558215612cc2579182015b82811115612cc2578251825591602001919060010190612ca7565b50612cce929150612cd2565b5090565b610b4891905b80821115612cce5760008155600101612cd856fe5265656e7472616e637947756172643a207265656e7472616e742063616c6c00546865726520617265206f6e6c79203220636865717565207374617475733a2030206f7220314d65726b6c6520747265652069732066756c6c2e204e6f206d6f7265206c656166732063616e20626520616464656464617461206c656e6774682073686f756c64206265206569746865722030206f722033322062797465736e6f7420656e6f75676820746f6b656e732e20546f6b656e2072657475726e732066616c73652e526563697069656e74206973206e6f7420746865206f726967696e616c20726563697069656e74546865206e657720636f6d6d69746d656e7420686173206265656e207375626d6974746564526566756e6420616d6f756e742073686f756c64206265206d6f7265207468616e206665655f72696768742073686f756c6420626520696e7369646520746865206669656c646e6f7420656e6f75676820616c6c6f77656420746f6b656e732e20546f6b656e2072657475726e732066616c73652e546865206465706f736974206973206c6f636b656420756e74696c207468652065666665637469766554696d6530644e72e131a029b85045b68181585d2833e84879b9709143e1f593f00000014f6e6c7920636f756e63696c206163636f756e742063616e2063616c6c20746869732066756e6374696f6e2e54686520636f6d6d69746d656e7420686173206265656e207375626d69747465644554482076616c756520697320737570706f73656420746f206265203020666f7220455243323020696e7374616e63654f6e6c792072656c617965722063616e2063616c6c20746869732066756e6374696f6e2e4f6e6c79206f70657261746f722063616e2063616c6c20746869732066756e6374696f6e2e53656e646572206973206e6f7420746865206f726967696e616c20726563697069656e74a265627a7a72315820c3a293eaad9279245f288ea07d4037201c4689e07d024e4558e905a0e0d5234864736f6c6343000511003264656e6f6d696e6174696f6e2073686f756c642062652067726561746572207468616e2030405787fa12a823e0f2b7631cc41b3ba8828b3321ca811111fa75cd3aa3bb5ace5f72696768742073686f756c6420626520696e7369646520746865206669656c645f747265654c6576656c732073686f756c642062652067726561746572207468616e207a65726f30644e72e131a029b85045b68181585d2833e84879b9709143e1f593f00000015f747265654c6576656c732073686f756c64206265206c657373207468616e203332b10e2d527612073b26eecdfd717e6a320cf44b4afac2b0732d9fcbe2b7fa0cf6",
  "source": "/**\n *  $$$$$$\\  $$\\                 $$\\                           \n * $$  __$$\\ $$ |                $$ |                          \n * $$ /  \\__|$$$$$$$\\   $$$$$$\\  $$ |  $$\\  $$$$$$\\   $$$$$$\\  \n * \\$$$$$$\\  $$  __$$\\  \\____$$\\ $$ | $$  |$$  __$$\\ $$  __$$\\ \n *  \\____$$\\ $$ |  $$ | $$$$$$$ |$$$$$$  / $$$$$$$$ |$$ |  \\__|\n * $$\\   $$ |$$ |  $$ |$$  __$$ |$$  _$$<  $$   ____|$$ |      \n * \\$$$$$$  |$$ |  $$ |\\$$$$$$$ |$$ | \\$$\\ \\$$$$$$$\\ $$ |      \n *  \\______/ \\__|  \\__| \\_______|\\__|  \\__| \\_______|\\__|\n * $$$$$$$$$$$$$$$$$$$$$$$$$$$$$$$$$$$$$$$$$$$$$$$$$$$$$$$$$$$$\n * ____________________________________________________________\n*/\n\npragma solidity 0.5.17;\n// pragma experimental ABIEncoderV2;\n\nimport \"./Shaker.sol\";\n\ncontract ERC20Shaker is Shaker {\n  address public token;\n\n  constructor(\n    IVerifier _verifier,\n    uint256 _denomination,\n    uint32 _merkleTreeHeight,\n    address _operator,\n    address _commonWithdrawAddress,\n    address _token\n  ) Shaker(_verifier, _denomination, _merkleTreeHeight, _operator, _commonWithdrawAddress) public {\n    token = _token;\n  }\n\n  function _processDeposit(uint256 _amount) internal {\n    require(msg.value == 0, \"ETH value is supposed to be 0 for ERC20 instance\");\n    _safeErc20TransferFrom(msg.sender, address(this), _amount);\n  }\n\n  function _processWithdraw(address payable _recipient, address _relayer, uint256 _fee, uint256 _refund) internal {\n    // require(msg.value == _refund, \"Incorrect refund amount received by the contract\");\n\n    _safeErc20Transfer(_recipient, _refund - _fee);\n    if (_fee > 0) {\n      _safeErc20Transfer(_relayer, _fee);\n    }\n\n    // if (_refund > 0) {\n    //   (bool success, ) = _recipient.call.value(_refund)(\"\");\n    //   if (!success) {\n    //     // let's return _refund back to the relayer\n    //     _relayer.transfer(_refund);\n    //   }\n    // }\n  }\n\n  function _safeErc20TransferFrom(address _from, address _to, uint256 _amount) internal {\n    (bool success, bytes memory data) = token.call(abi.encodeWithSelector(0x23b872dd /* transferFrom */, _from, _to, _amount));\n    require(success, \"not enough allowed tokens\");\n\n    // if contract returns some data lets make sure that is `true` according to standard\n    if (data.length > 0) {\n      require(data.length == 32, \"data length should be either 0 or 32 bytes\");\n      success = abi.decode(data, (bool));\n      require(success, \"not enough allowed tokens. Token returns false.\");\n    }\n  }\n\n  function _safeErc20Transfer(address _to, uint256 _amount) internal {\n    (bool success, bytes memory data) = token.call(abi.encodeWithSelector(0xa9059cbb /* transfer */, _to, _amount));\n    require(success, \"not enough tokens\");\n\n    // if contract returns some data lets make sure that is `true` according to standard\n    if (data.length > 0) {\n      require(data.length == 32, \"data length should be either 0 or 32 bytes\");\n      success = abi.decode(data, (bool));\n      require(success, \"not enough tokens. Token returns false.\");\n    }\n  }\n}\n",
  "sourcePath": "/Users/guqianfeng/web/my_dapps/hunbi/tornado-core/contracts/ERC20Shaker.sol",
  "compiler": {
    "name": "solc",
    "version": "0.5.17+commit.d19bba13.Emscripten.clang"
  },
  "schemaVersion": "3.2.4",
  "updatedAt": "2020-09-27T01:38:37.803Z",
  "networkType": "ethereum",
  "devdoc": {
    "methods": {
      "depositERC20Batch(uint256[],bytes32[],uint8,address,uint256)": {
        "details": "Deposit a set of amount and commitments",
        "params": {
          "_amounts": ", array of ERC20 amount",
          "_commitments": ", array of commitments",
          "_effectiveTime": ", effective time of the Withdrawal",
          "_orderStatus": ", status of deposit, 0: cheque for bearer, 1: cheque for order",
          "_recipient": ", recipient address if cheque for order"
        }
      },
      "endorse(bytes,bytes32,bytes32,address,address,uint8,uint256,bytes32,bytes32,uint256)": {
        "details": "this function is for cheque endorsement",
        "params": {
          "_amount": ", endorsed amount, the endorsement amount can be part of balance of old cheque",
          "_effectiveTime": ", new effectiveTime of note",
          "_newCommitment": ", new commitment from frontend",
          "_nullifierHash": ", old nullifierHashe",
          "_oldCommitment": ", old commitment which will be endorsed",
          "_orderStatus": ", old cheque order type, 0- to Bearer cheque, 1- to order cheque",
          "_proof": ", Proof of zkSNARK",
          "_recipient": ", new recipient address, if orderStatus is 0, the _recipient is sender. Otherwise the _recipient is to order",
          "_relayer": ", relayer address",
          "_root": ", root of merkle tree"
        }
      },
      "getLastRoot()": {
        "details": "Returns the last root"
      },
      "getRelayerWithdrawAddress()": {
        "details": "get relayer Withdrawal address "
      },
      "hashLeftRight(bytes32,bytes32)": {
        "details": "Hash 2 tree leaves, returns MiMC(_left, _right)"
      },
      "isKnownRoot(bytes32)": {
        "details": "Whether the root is present in the root history"
      },
      "isSpent(bytes32)": {
        "details": "whether a note is already spent "
      },
      "isSpentArray(bytes32[])": {
        "details": "whether an array of notes is already spent "
      },
      "lockDeposit(bytes,bytes32,bytes32,address,address,uint256,uint256,bytes32,string)": {
        "details": "lock commitment, this operation can be only called by note holder "
      },
      "setCouncial(address)": {
        "details": "set council address "
      },
      "unlockDeposit(uint256)": {
        "details": "unlock commitment by council "
      },
      "updateCommonWithdrawAddress(address)": {
        "details": "update commonWithdrawAddress "
      },
      "updateOperator(address)": {
        "details": "operator can change his address "
      },
      "updateRelayer(address,address)": {
        "details": "update authority relayer "
      },
      "updateVerifier(address)": {
        "details": "allow operator to update SNARK verification keys. This is needed to update keys after the final trusted setup ceremony is held. After that operator rights are supposed to be transferred to zero address"
      },
      "withdraw(bytes,bytes32,bytes32,address,address,uint256,uint256,bytes32)": {
        "details": "Withdraw a deposit from the contract. `proof` is a zkSNARK proof data, and input is an array of circuit public inputs `input` array consists of: - merkle root of all deposits in the contract - hash of unique deposit nullifier to prevent double spends - the recipient of funds - optional fee that goes to the transaction sender (usually a relay)",
        "params": {
          "_fee": ", relayer decide the fee amount"
        }
      }
    }
  },
  "userdoc": {
    "methods": {}
  }
}