{
  "contractName": "ERC20Shaker",
  "abi": [
    {
      "inputs": [
        {
          "internalType": "contract IVerifier",
          "name": "_verifier",
          "type": "address"
        },
        {
          "internalType": "uint256",
          "name": "_denomination",
          "type": "uint256"
        },
        {
          "internalType": "uint32",
          "name": "_merkleTreeHeight",
          "type": "uint32"
        },
        {
          "internalType": "address",
          "name": "_operator",
          "type": "address"
        },
        {
          "internalType": "address",
          "name": "_commonWithdrawAddress",
          "type": "address"
        },
        {
          "internalType": "address",
          "name": "_token",
          "type": "address"
        }
      ],
      "payable": false,
      "stateMutability": "nonpayable",
      "type": "constructor"
    },
    {
      "anonymous": false,
      "inputs": [
        {
          "indexed": true,
          "internalType": "bytes32",
          "name": "commitment",
          "type": "bytes32"
        },
        {
          "indexed": false,
          "internalType": "uint32",
          "name": "leafIndex",
          "type": "uint32"
        },
        {
          "indexed": false,
          "internalType": "uint256",
          "name": "timestamp",
          "type": "uint256"
        },
        {
          "indexed": false,
          "internalType": "uint8",
          "name": "orderStatus",
          "type": "uint8"
        },
        {
          "indexed": false,
          "internalType": "address",
          "name": "recipient",
          "type": "address"
        },
        {
          "indexed": false,
          "internalType": "uint256",
          "name": "effectiveTime",
          "type": "uint256"
        }
      ],
      "name": "Deposit",
      "type": "event"
    },
    {
      "anonymous": false,
      "inputs": [
        {
          "indexed": false,
          "internalType": "address",
          "name": "to",
          "type": "address"
        },
        {
          "indexed": false,
          "internalType": "bytes32",
          "name": "nullifierHash",
          "type": "bytes32"
        },
        {
          "indexed": true,
          "internalType": "address",
          "name": "relayer",
          "type": "address"
        },
        {
          "indexed": false,
          "internalType": "uint256",
          "name": "fee",
          "type": "uint256"
        },
        {
          "indexed": false,
          "internalType": "uint256",
          "name": "amount",
          "type": "uint256"
        }
      ],
      "name": "Withdrawal",
      "type": "event"
    },
    {
      "constant": true,
      "inputs": [],
      "name": "FIELD_SIZE",
      "outputs": [
        {
          "internalType": "uint256",
          "name": "",
          "type": "uint256"
        }
      ],
      "payable": false,
      "stateMutability": "view",
      "type": "function"
    },
    {
      "constant": true,
      "inputs": [],
      "name": "ROOT_HISTORY_SIZE",
      "outputs": [
        {
          "internalType": "uint32",
          "name": "",
          "type": "uint32"
        }
      ],
      "payable": false,
      "stateMutability": "view",
      "type": "function"
    },
    {
      "constant": true,
      "inputs": [],
      "name": "ZERO_VALUE",
      "outputs": [
        {
          "internalType": "uint256",
          "name": "",
          "type": "uint256"
        }
      ],
      "payable": false,
      "stateMutability": "view",
      "type": "function"
    },
    {
      "constant": true,
      "inputs": [],
      "name": "commonFee",
      "outputs": [
        {
          "internalType": "uint256",
          "name": "",
          "type": "uint256"
        }
      ],
      "payable": false,
      "stateMutability": "view",
      "type": "function"
    },
    {
      "constant": true,
      "inputs": [],
      "name": "commonFeeRate",
      "outputs": [
        {
          "internalType": "uint256",
          "name": "",
          "type": "uint256"
        }
      ],
      "payable": false,
      "stateMutability": "view",
      "type": "function"
    },
    {
      "constant": true,
      "inputs": [],
      "name": "commonWithdrawAddress",
      "outputs": [
        {
          "internalType": "address",
          "name": "",
          "type": "address"
        }
      ],
      "payable": false,
      "stateMutability": "view",
      "type": "function"
    },
    {
      "constant": true,
      "inputs": [],
      "name": "councilAddress",
      "outputs": [
        {
          "internalType": "address",
          "name": "",
          "type": "address"
        }
      ],
      "payable": false,
      "stateMutability": "view",
      "type": "function"
    },
    {
      "constant": true,
      "inputs": [],
      "name": "currentRootIndex",
      "outputs": [
        {
          "internalType": "uint32",
          "name": "",
          "type": "uint32"
        }
      ],
      "payable": false,
      "stateMutability": "view",
      "type": "function"
    },
    {
      "constant": true,
      "inputs": [],
      "name": "denomination",
      "outputs": [
        {
          "internalType": "uint256",
          "name": "",
          "type": "uint256"
        }
      ],
      "payable": false,
      "stateMutability": "view",
      "type": "function"
    },
    {
      "constant": false,
      "inputs": [
        {
          "internalType": "uint256[]",
          "name": "_amounts",
          "type": "uint256[]"
        },
        {
          "internalType": "bytes32[]",
          "name": "_commitments",
          "type": "bytes32[]"
        },
        {
          "internalType": "uint8",
          "name": "_orderStatus",
          "type": "uint8"
        },
        {
          "internalType": "address payable",
          "name": "_recipient",
          "type": "address"
        },
        {
          "internalType": "uint256",
          "name": "_effectiveTime",
          "type": "uint256"
        }
      ],
      "name": "depositERC20Batch",
      "outputs": [],
      "payable": true,
      "stateMutability": "payable",
      "type": "function"
    },
    {
      "constant": false,
      "inputs": [
        {
          "internalType": "bytes",
          "name": "_proof",
          "type": "bytes"
        },
        {
          "internalType": "bytes32",
          "name": "_root",
          "type": "bytes32"
        },
        {
          "internalType": "bytes32",
          "name": "_nullifierHash",
          "type": "bytes32"
        },
        {
          "internalType": "address payable",
          "name": "_recipient",
          "type": "address"
        },
        {
          "internalType": "address payable",
          "name": "_relayer",
          "type": "address"
        },
        {
          "internalType": "uint8",
          "name": "_orderStatus",
          "type": "uint8"
        },
        {
          "internalType": "uint256",
          "name": "_amount",
          "type": "uint256"
        },
        {
          "internalType": "bytes32",
          "name": "_oldCommitment",
          "type": "bytes32"
        },
        {
          "internalType": "bytes32",
          "name": "_newCommitment",
          "type": "bytes32"
        },
        {
          "internalType": "uint256",
          "name": "_effectiveTime",
          "type": "uint256"
        }
      ],
      "name": "endorse",
      "outputs": [],
      "payable": true,
      "stateMutability": "payable",
      "type": "function"
    },
    {
      "constant": true,
      "inputs": [
        {
          "internalType": "uint256",
          "name": "",
          "type": "uint256"
        }
      ],
      "name": "filledSubtrees",
      "outputs": [
        {
          "internalType": "bytes32",
          "name": "",
          "type": "bytes32"
        }
      ],
      "payable": false,
      "stateMutability": "view",
      "type": "function"
    },
    {
      "constant": true,
      "inputs": [],
      "name": "getLastRoot",
      "outputs": [
        {
          "internalType": "bytes32",
          "name": "",
          "type": "bytes32"
        }
      ],
      "payable": false,
      "stateMutability": "view",
      "type": "function"
    },
    {
      "constant": true,
      "inputs": [],
      "name": "getRelayerWithdrawAddress",
      "outputs": [
        {
          "internalType": "address",
          "name": "",
          "type": "address"
        }
      ],
      "payable": false,
      "stateMutability": "view",
      "type": "function"
    },
    {
      "constant": true,
      "inputs": [
        {
          "internalType": "bytes32",
          "name": "_left",
          "type": "bytes32"
        },
        {
          "internalType": "bytes32",
          "name": "_right",
          "type": "bytes32"
        }
      ],
      "name": "hashLeftRight",
      "outputs": [
        {
          "internalType": "bytes32",
          "name": "",
          "type": "bytes32"
        }
      ],
      "payable": false,
      "stateMutability": "pure",
      "type": "function"
    },
    {
      "constant": true,
      "inputs": [
        {
          "internalType": "bytes32",
          "name": "_root",
          "type": "bytes32"
        }
      ],
      "name": "isKnownRoot",
      "outputs": [
        {
          "internalType": "bool",
          "name": "",
          "type": "bool"
        }
      ],
      "payable": false,
      "stateMutability": "view",
      "type": "function"
    },
    {
      "constant": true,
      "inputs": [
        {
          "internalType": "bytes32",
          "name": "_nullifierHash",
          "type": "bytes32"
        }
      ],
      "name": "isSpent",
      "outputs": [
        {
          "internalType": "bool",
          "name": "",
          "type": "bool"
        }
      ],
      "payable": false,
      "stateMutability": "view",
      "type": "function"
    },
    {
      "constant": true,
      "inputs": [
        {
          "internalType": "bytes32[]",
          "name": "_nullifierHashes",
          "type": "bytes32[]"
        }
      ],
      "name": "isSpentArray",
      "outputs": [
        {
          "internalType": "bool[]",
          "name": "spent",
          "type": "bool[]"
        }
      ],
      "payable": false,
      "stateMutability": "view",
      "type": "function"
    },
    {
      "constant": true,
      "inputs": [],
      "name": "levels",
      "outputs": [
        {
          "internalType": "uint32",
          "name": "",
          "type": "uint32"
        }
      ],
      "payable": false,
      "stateMutability": "view",
      "type": "function"
    },
    {
      "constant": true,
      "inputs": [
        {
          "internalType": "uint256",
          "name": "",
          "type": "uint256"
        }
      ],
      "name": "lockCommitments",
      "outputs": [
        {
          "internalType": "bytes32",
          "name": "",
          "type": "bytes32"
        }
      ],
      "payable": false,
      "stateMutability": "view",
      "type": "function"
    },
    {
      "constant": false,
      "inputs": [
        {
          "internalType": "bytes",
          "name": "_proof",
          "type": "bytes"
        },
        {
          "internalType": "bytes32",
          "name": "_root",
          "type": "bytes32"
        },
        {
          "internalType": "bytes32",
          "name": "_nullifierHash",
          "type": "bytes32"
        },
        {
          "internalType": "address payable",
          "name": "_recipient",
          "type": "address"
        },
        {
          "internalType": "address payable",
          "name": "_relayer",
          "type": "address"
        },
        {
          "internalType": "uint256",
          "name": "_fee",
          "type": "uint256"
        },
        {
          "internalType": "uint256",
          "name": "_refund",
          "type": "uint256"
        },
        {
          "internalType": "bytes32",
          "name": "_commitment",
          "type": "bytes32"
        },
        {
          "internalType": "string",
          "name": "_description",
          "type": "string"
        }
      ],
      "name": "lockDeposit",
      "outputs": [
        {
          "internalType": "uint256",
          "name": "",
          "type": "uint256"
        }
      ],
      "payable": true,
      "stateMutability": "payable",
      "type": "function"
    },
    {
      "constant": true,
      "inputs": [
        {
          "internalType": "bytes32",
          "name": "",
          "type": "bytes32"
        }
      ],
      "name": "lockReason",
      "outputs": [
        {
          "internalType": "string",
          "name": "description",
          "type": "string"
        },
        {
          "internalType": "uint8",
          "name": "status",
          "type": "uint8"
        },
        {
          "internalType": "uint256",
          "name": "datetime",
          "type": "uint256"
        },
        {
          "internalType": "address",
          "name": "recipient",
          "type": "address"
        },
        {
          "internalType": "address",
          "name": "relayer",
          "type": "address"
        },
        {
          "internalType": "address",
          "name": "locker",
          "type": "address"
        },
        {
          "internalType": "uint256",
          "name": "refund",
          "type": "uint256"
        }
      ],
      "payable": false,
      "stateMutability": "view",
      "type": "function"
    },
    {
      "constant": true,
      "inputs": [],
      "name": "nextIndex",
      "outputs": [
        {
          "internalType": "uint32",
          "name": "",
          "type": "uint32"
        }
      ],
      "payable": false,
      "stateMutability": "view",
      "type": "function"
    },
    {
      "constant": true,
      "inputs": [],
      "name": "operator",
      "outputs": [
        {
          "internalType": "address",
          "name": "",
          "type": "address"
        }
      ],
      "payable": false,
      "stateMutability": "view",
      "type": "function"
    },
    {
      "constant": true,
      "inputs": [
        {
          "internalType": "uint256",
          "name": "",
          "type": "uint256"
        }
      ],
      "name": "roots",
      "outputs": [
        {
          "internalType": "bytes32",
          "name": "",
          "type": "bytes32"
        }
      ],
      "payable": false,
      "stateMutability": "view",
      "type": "function"
    },
    {
      "constant": false,
      "inputs": [
        {
          "internalType": "address",
          "name": "_councilAddress",
          "type": "address"
        }
      ],
      "name": "setCouncial",
      "outputs": [],
      "payable": false,
      "stateMutability": "nonpayable",
      "type": "function"
    },
    {
      "constant": true,
      "inputs": [],
      "name": "token",
      "outputs": [
        {
          "internalType": "address",
          "name": "",
          "type": "address"
        }
      ],
      "payable": false,
      "stateMutability": "view",
      "type": "function"
    },
    {
      "constant": true,
      "inputs": [],
      "name": "totalAmount",
      "outputs": [
        {
          "internalType": "uint256",
          "name": "",
          "type": "uint256"
        }
      ],
      "payable": false,
      "stateMutability": "view",
      "type": "function"
    },
    {
      "constant": true,
      "inputs": [],
      "name": "totalBalance",
      "outputs": [
        {
          "internalType": "uint256",
          "name": "",
          "type": "uint256"
        }
      ],
      "payable": false,
      "stateMutability": "view",
      "type": "function"
    },
    {
      "constant": false,
      "inputs": [
        {
          "internalType": "uint256",
          "name": "id",
          "type": "uint256"
        }
      ],
      "name": "unlockDeposit",
      "outputs": [],
      "payable": false,
      "stateMutability": "nonpayable",
      "type": "function"
    },
    {
      "constant": false,
      "inputs": [
        {
          "internalType": "uint256",
          "name": "_fee",
          "type": "uint256"
        },
        {
          "internalType": "uint256",
          "name": "_rate",
          "type": "uint256"
        }
      ],
      "name": "updateCommonFee",
      "outputs": [],
      "payable": false,
      "stateMutability": "nonpayable",
      "type": "function"
    },
    {
      "constant": false,
      "inputs": [
        {
          "internalType": "address",
          "name": "_commonWithdrawAddress",
          "type": "address"
        }
      ],
      "name": "updateCommonWithdrawAddress",
      "outputs": [],
      "payable": false,
      "stateMutability": "nonpayable",
      "type": "function"
    },
    {
      "constant": false,
      "inputs": [
        {
          "internalType": "address",
          "name": "_newOperator",
          "type": "address"
        }
      ],
      "name": "updateOperator",
      "outputs": [],
      "payable": false,
      "stateMutability": "nonpayable",
      "type": "function"
    },
    {
      "constant": false,
      "inputs": [
        {
          "internalType": "address",
          "name": "_relayer",
          "type": "address"
        },
        {
          "internalType": "address",
          "name": "_withdrawAddress",
          "type": "address"
        }
      ],
      "name": "updateRelayer",
      "outputs": [],
      "payable": false,
      "stateMutability": "nonpayable",
      "type": "function"
    },
    {
      "constant": false,
      "inputs": [
        {
          "internalType": "address",
          "name": "_newVerifier",
          "type": "address"
        }
      ],
      "name": "updateVerifier",
      "outputs": [],
      "payable": false,
      "stateMutability": "nonpayable",
      "type": "function"
    },
    {
      "constant": true,
      "inputs": [],
      "name": "verifier",
      "outputs": [
        {
          "internalType": "contract IVerifier",
          "name": "",
          "type": "address"
        }
      ],
      "payable": false,
      "stateMutability": "view",
      "type": "function"
    },
    {
      "constant": false,
      "inputs": [
        {
          "internalType": "bytes",
          "name": "_proof",
          "type": "bytes"
        },
        {
          "internalType": "bytes32",
          "name": "_root",
          "type": "bytes32"
        },
        {
          "internalType": "bytes32",
          "name": "_nullifierHash",
          "type": "bytes32"
        },
        {
          "internalType": "address payable",
          "name": "_recipient",
          "type": "address"
        },
        {
          "internalType": "address payable",
          "name": "_relayer",
          "type": "address"
        },
        {
          "internalType": "uint256",
          "name": "_fee",
          "type": "uint256"
        },
        {
          "internalType": "uint256",
          "name": "_refund",
          "type": "uint256"
        },
        {
          "internalType": "bytes32",
          "name": "_commitment",
          "type": "bytes32"
        }
      ],
      "name": "withdraw",
      "outputs": [],
      "payable": true,
      "stateMutability": "payable",
      "type": "function"
    },
    {
      "constant": true,
      "inputs": [
        {
          "internalType": "uint256",
          "name": "",
          "type": "uint256"
        }
      ],
      "name": "zeros",
      "outputs": [
        {
          "internalType": "bytes32",
          "name": "",
          "type": "bytes32"
        }
      ],
      "payable": false,
      "stateMutability": "view",
      "type": "function"
    }
  ],
  "bytecode": "0x6080604052600380546001600160401b031916905560006069819055606a81905560778190556078553480156200003557600080fd5b506040516200375a3803806200375a833981810160405260c08110156200005b57600080fd5b508051602082015160408301516060840151608085015160a090950151939492939192909185858585858263ffffffff8116620000ca5760405162461bcd60e51b8152600401808060200182810382526027815260200180620036d16027913960400191505060405180910390fd5b60208163ffffffff1610620001115760405162461bcd60e51b8152600401808060200182810382526022815260200180620037186022913960400191505060405180910390fd5b6000805463ffffffff191663ffffffff83161781556002805460018181019092557f2fe54c60d3acabf3343a35b6eba15db4821b340f76e741e2249685ed4899af6c6000805160206200369083398151915290910181905581548083018355928290526000805160206200373a8339815191529092018290555b60005463ffffffff9081169082161015620001ff57620001b582806001600160e01b03620002c016565b60028054600181810190925560008051602062003690833981519152018290558054808201825560008290526000805160206200373a83398151915201829055909250016200018b565b506200021581806001600160e01b03620002c016565b60045550506001606855836200025d5760405162461bcd60e51b81526004018080602001828103825260258152602001806200366b6025913960400191505060405180910390fd5b606b80546001600160a01b03199081166001600160a01b0397881617909155606c8054821693871693909317909255606e939093556076805482169385169390931790925550607b80549091169290911691909117905550620004ad9350505050565b6000600080516020620036f8833981519152831062000326576040805162461bcd60e51b815260206004820181905260248201527f5f6c6566742073686f756c6420626520696e7369646520746865206669656c64604482015290519081900360640190fd5b600080516020620036f88339815191528210620003755760405162461bcd60e51b8152600401808060200182810382526021815260200180620036b06021913960400191505060405180910390fd5b6040805163f47d33b560e01b81526004810185905260006024820181905282518693919273__Hasher________________________________9263f47d33b592604480840193829003018186803b158015620003d057600080fd5b505af4158015620003e5573d6000803e3d6000fd5b505050506040513d6040811015620003fc57600080fd5b5080516020909101519092509050600080516020620036f8833981519152848308915073__Hasher________________________________63f47d33b583836040518363ffffffff1660e01b81526004018083815260200182815260200192505050604080518083038186803b1580156200047657600080fd5b505af41580156200048b573d6000803e3d6000fd5b505050506040513d6040811015620004a257600080fd5b505195945050505050565b6131ae80620004bd6000396000f3fe6080604052600436106102255760003560e01c806390eeb02b11610123578063c2b40ae4116100ab578063ec7329591161006f578063ec732959146109f6578063eece3bd514610a0b578063f178e47c14610b00578063fc0c546a14610b2a578063fc7e9c6f14610b3f57610225565b8063c2b40ae4146108c3578063cd87a3b4146108ed578063da90803914610902578063e5285dcc146109a2578063e8295588146109cc57610225565b8063a8be3cd6116100f2578063a8be3cd614610760578063ac7475ed14610836578063ad7a672f14610869578063ba70f7571461087e578063bbe9cd8c1461089357610225565b806390eeb02b1461061a57806397fc007c1461062f5780639fa12d0b14610662578063a4cab45c1461072d57610225565b80634ecf518b116101b15780636d9833e3116101755780636d9833e3146104c357806377b9de8e14610501578063807c7ba31461052b578063827a2600146105555780638bca6d161461060557610225565b80634ecf518b1461035857806354b45fc314610386578063570ca735146103b95780635c64ae91146103ce57806362bc0cd6146104ae57610225565b806335795ea7116101f857806335795ea7146102d457806338bf282e146102e9578063414a37ba146103195780634adf3d151461032e5780634d10b2fb1461034357610225565b806315d232db1461022a5780631a39d8ef1461025b578063266c0aa7146102825780632b7ac3f3146102bf575b600080fd5b34801561023657600080fd5b5061023f610b54565b604080516001600160a01b039092168252519081900360200190f35b34801561026757600080fd5b50610270610bc6565b60408051918252519081900360200190f35b34801561028e57600080fd5b506102bd600480360360408110156102a557600080fd5b506001600160a01b0381358116916020013516610bcc565b005b3480156102cb57600080fd5b5061023f610c43565b3480156102e057600080fd5b50610270610c52565b3480156102f557600080fd5b506102706004803603604081101561030c57600080fd5b5080359060200135610c58565b34801561032557600080fd5b50610270610e39565b34801561033a57600080fd5b50610270610e4b565b34801561034f57600080fd5b5061023f610e51565b34801561036457600080fd5b5061036d610e60565b6040805163ffffffff9092168252519081900360200190f35b34801561039257600080fd5b506102bd600480360360208110156103a957600080fd5b50356001600160a01b0316610e6c565b3480156103c557600080fd5b5061023f610ed7565b3480156103da57600080fd5b506103f8600480360360208110156103f157600080fd5b5035610ee6565b6040805160ff88166020808301919091529181018790526001600160a01b0380871660608301528581166080830152841660a082015260c0810183905260e08082528951908201528851909182916101008301918b019080838360005b8381101561046d578181015183820152602001610455565b50505050905090810190601f16801561049a5780820380516001836020036101000a031916815260200191505b509850505050505050505060405180910390f35b3480156104ba57600080fd5b5061023f610fbf565b3480156104cf57600080fd5b506104ed600480360360208110156104e657600080fd5b5035610fce565b604080519115158252519081900360200190f35b34801561050d57600080fd5b506102bd6004803603602081101561052457600080fd5b5035611041565b34801561053757600080fd5b506102706004803603602081101561054e57600080fd5b5035611110565b6102bd600480360361014081101561056c57600080fd5b810190602081018135600160201b81111561058657600080fd5b82018360208201111561059857600080fd5b803590602001918460018302840111600160201b831117156105b957600080fd5b91935091508035906020810135906001600160a01b03604082013581169160608101359091169060ff6080820135169060a08101359060c08101359060e081013590610100013561112e565b34801561061157600080fd5b50610270611827565b34801561062657600080fd5b5061036d61182d565b34801561063b57600080fd5b506102bd6004803603602081101561065257600080fd5b50356001600160a01b0316611839565b34801561066e57600080fd5b506106dd6004803603602081101561068557600080fd5b810190602081018135600160201b81111561069f57600080fd5b8201836020820111156106b157600080fd5b803590602001918460208302840111600160201b831117156106d257600080fd5b5090925090506118a4565b60408051602080825283518183015283519192839290830191858101910280838360005b83811015610719578181015183820152602001610701565b505050509050019250505060405180910390f35b34801561073957600080fd5b506102bd6004803603602081101561075057600080fd5b50356001600160a01b031661192c565b6102bd600480360360a081101561077657600080fd5b810190602081018135600160201b81111561079057600080fd5b8201836020820111156107a257600080fd5b803590602001918460208302840111600160201b831117156107c357600080fd5b919390929091602081019035600160201b8111156107e057600080fd5b8201836020820111156107f257600080fd5b803590602001918460208302840111600160201b8311171561081357600080fd5b919350915060ff813516906001600160a01b036020820135169060400135611997565b34801561084257600080fd5b506102bd6004803603602081101561085957600080fd5b50356001600160a01b0316611a96565b34801561087557600080fd5b50610270611b01565b34801561088a57600080fd5b50610270611b07565b34801561089f57600080fd5b506102bd600480360360408110156108b657600080fd5b5080359060200135611b27565b3480156108cf57600080fd5b50610270600480360360208110156108e657600080fd5b5035611b7b565b3480156108f957600080fd5b5061036d611b8f565b6102bd600480360361010081101561091957600080fd5b810190602081018135600160201b81111561093357600080fd5b82018360208201111561094557600080fd5b803590602001918460018302840111600160201b8311171561096657600080fd5b91935091508035906020810135906001600160a01b03604082013581169160608101359091169060808101359060a08101359060c00135611b94565b3480156109ae57600080fd5b506104ed600480360360208110156109c557600080fd5b503561223d565b3480156109d857600080fd5b50610270600480360360208110156109ef57600080fd5b5035612252565b348015610a0257600080fd5b5061027061225f565b6102706004803603610120811015610a2257600080fd5b810190602081018135600160201b811115610a3c57600080fd5b820183602082011115610a4e57600080fd5b803590602001918460018302840111600160201b83111715610a6f57600080fd5b919390928235926020810135926001600160a01b03604083013581169360608401359091169260808101359260a08201359260c08301359261010081019060e00135600160201b811115610ac257600080fd5b820183602082011115610ad457600080fd5b803590602001918460018302840111600160201b83111715610af557600080fd5b509092509050612283565b348015610b0c57600080fd5b5061027060048036036020811015610b2357600080fd5b50356125b1565b348015610b3657600080fd5b5061023f6125be565b348015610b4b57600080fd5b5061036d6125cd565b336000908152607560205260408120546001600160a01b0316610ba85760405162461bcd60e51b815260040180806020018281038252602481526020018061310d6024913960400191505060405180910390fd5b50336000908152607560205260409020546001600160a01b03165b90565b60695481565b606c546001600160a01b03163314610c155760405162461bcd60e51b81526004018080602001828103825260258152602001806131316025913960400191505060405180910390fd5b6001600160a01b03918216600090815260756020526040902080546001600160a01b03191691909216179055565b606b546001600160a01b031681565b60775481565b60006000805160206130468339815191528310610cbc576040805162461bcd60e51b815260206004820181905260248201527f5f6c6566742073686f756c6420626520696e7369646520746865206669656c64604482015290519081900360640190fd5b6000805160206130468339815191528210610d085760405162461bcd60e51b8152600401808060200182810382526021815260200180612fc96021913960400191505060405180910390fd5b6040805163f47d33b560e01b81526004810185905260006024820181905282518693919273__Hasher________________________________9263f47d33b592604480840193829003018186803b158015610d6257600080fd5b505af4158015610d76573d6000803e3d6000fd5b505050506040513d6040811015610d8c57600080fd5b5080516020909101519092509050600080516020613046833981519152848308915073__Hasher________________________________63f47d33b583836040518363ffffffff1660e01b81526004018083815260200182815260200192505050604080518083038186803b158015610e0457600080fd5b505af4158015610e18573d6000803e3d6000fd5b505050506040513d6040811015610e2e57600080fd5b505195945050505050565b60008051602061304683398151915281565b60785481565b6076546001600160a01b031681565b60005463ffffffff1681565b606c546001600160a01b03163314610eb55760405162461bcd60e51b81526004018080602001828103825260258152602001806131316025913960400191505060405180910390fd5b606d80546001600160a01b0319166001600160a01b0392909216919091179055565b606c546001600160a01b031681565b60796020908152600091825260409182902080548351601f60026000196101006001861615020190931692909204918201849004840281018401909452808452909291839190830182828015610f7d5780601f10610f5257610100808354040283529160200191610f7d565b820191906000526020600020905b815481529060010190602001808311610f6057829003601f168201915b50505060018401546002850154600386015460048701546005880154600690980154969760ff909416969295506001600160a01b039182169450811692169087565b606d546001600160a01b031681565b600081610fdd5750600061103c565b60035463ffffffff165b60048163ffffffff1660648110610ffa57fe5b015483141561100d57600191505061103c565b63ffffffff811661101c575060645b6003546000199091019063ffffffff80831691161415610fe75760009150505b919050565b606d546001600160a01b0316331461108a5760405162461bcd60e51b815260040180806020018281038252602c815260200180613066602c913960400191505060405180910390fd5b60796000607a838154811061109b57fe5b60009182526020808320909101548352820192909252604001902060019081015460ff16141561110d57600260796000607a84815481106110d857fe5b9060005260206000200154815260200190815260200160002060010160006101000a81548160ff021916908360ff1602179055505b50565b607a818154811061111d57fe5b600091825260209091200154905081565b60026068541415611174576040805162461bcd60e51b815260206004820152601f6024820152600080516020612e92833981519152604482015290519081900360640190fd5b6002606855600083815260796020526040902060019081015460ff1614156111dd576040805162461bcd60e51b8152602060048201526017602482015276151a1a5cc819195c1bdcda5d081dd85cc81b1bd8dad959604a1b604482015290519081900360640190fd5b60008381526070602052604090205460ff16611240576040805162461bcd60e51b815260206004820152601b60248201527f4f6c6420636f6d6d69746d656e742063616e206e6f742066696e640000000000604482015290519081900360640190fd5b60008281526070602052604090205460ff161561128e5760405162461bcd60e51b8152600401808060200182810382526025815260200180612f7f6025913960400191505060405180910390fd5b6000888152606f602052604090205460ff16156112f2576040805162461bcd60e51b815260206004820152601f60248201527f546865206e6f746520686173206265656e20616c7265616479207370656e7400604482015290519081900360640190fd5b6112fb89610fce565b61134c576040805162461bcd60e51b815260206004820152601c60248201527f43616e6e6f742066696e6420796f7572206d65726b6c6520726f6f7400000000604482015290519081900360640190fd5b6000838152607160205260409020546113ac576040805162461bcd60e51b815260206004820152601f60248201527f4e6f2062616c616e636520616d6f756e74206f6620746869732070726f6f6600604482015290519081900360640190fd5b60008381526071602052604081205485106113d5576000848152607160205260409020546113d7565b845b90506000811161142e576040805162461bcd60e51b815260206004820152601d60248201527f526566756e6420616d6f756e742063616e206e6f74206265207a65726f000000604482015290519081900360640190fd5b60008481526072602052604090205460ff16600114801561146557506000848152607360205260409020546001600160a01b031633145b8061147f575060008481526072602052604090205460ff16155b6114ba5760405162461bcd60e51b81526004018080602001828103825260248152602001806131566024913960400191505060405180910390fd5b606b60009054906101000a90046001600160a01b03166001600160a01b031663695ef6f98d8d6040518060c001604052808f60001c81526020018e60001c81526020018d6001600160a01b031681526020018c6001600160a01b031681526020018b60ff1681526020018a8152506040518463ffffffff1660e01b8152600401808060200183600660200280838360005b8381101561156357818101518382015260200161154b565b505050509050018281038252858582818152602001925080828437600081840152601f19601f820116905080830192505050945050505050602060405180830381600087803b1580156115b557600080fd5b505af11580156115c9573d6000803e3d6000fd5b505050506040513d60208110156115df57600080fd5b5051611632576040805162461bcd60e51b815260206004820152601960248201527f496e76616c696420656e646f7273656d656e742070726f6f6600000000000000604482015290519081900360640190fd5b600061163d846125e0565b905060008311801561165d57506000858152607460205260409020544210155b1561167857600084815260746020526040902083905561168f565b600085815260746020526040808220548683529120555b6000848152607060209081526040808320805460ff199081166001908117909255607184528285208b905560729093529220805460ff8b16921682179055146116d857336116da565b885b600085815260736020908152604080832080546001600160a01b0319166001600160a01b03959095169490941790935587825260719052205461171d9083612777565b60008681526071602052604090208190551561173a57600061173d565b60015b60008b8152606f6020908152604091829020805493151560ff1990941693909317909255805163ffffffff84168152429281019290925260ff8916828201526001600160a01b038b166060830152608082018590525185917ff052b28ca720e670068c23c54488dc5b4db3ed42fde7c3fd2d0ea7aee06406eb919081900360a00190a2604080516000808252602082018d9052818301526060810184905290516001600160a01b038a16917f6d7aac54bd3d1c91db3b1fd7b8d6cb45324ad6b5e373c0f0ea4d7b2606c4c2c8919081900360800190a2505060016068555050505050505050505050565b606e5481565b60035463ffffffff1681565b606c546001600160a01b031633146118825760405162461bcd60e51b81526004018080602001828103825260258152602001806131316025913960400191505060405180910390fd5b606b80546001600160a01b0319166001600160a01b0392909216919091179055565b6040805182815260208084028201019091526060908280156118d0578160200160208202803883390190505b50905060005b82811015611925576118f98484838181106118ed57fe5b9050602002013561223d565b1561191d57600182828151811061190c57fe5b911515602092830291909101909101525b6001016118d6565b5092915050565b606c546001600160a01b031633146119755760405162461bcd60e51b81526004018080602001828103825260258152602001806131316025913960400191505060405180910390fd5b607680546001600160a01b0319166001600160a01b0392909216919091179055565b600260685414156119dd576040805162461bcd60e51b815260206004820152601f6024820152600080516020612e92833981519152604482015290519081900360640190fd5b600260685560ff831615806119f557508260ff166001145b611a305760405162461bcd60e51b8152600401808060200182810382526026815260200180612eb26026913960400191505060405180910390fd5b6001600160a01b038216611a4357600080fd5b60005b86811015611a8757611a7f888883818110611a5d57fe5b90506020020135878784818110611a7057fe5b905060200201358686866127d4565b600101611a46565b50506001606855505050505050565b606c546001600160a01b03163314611adf5760405162461bcd60e51b81526004018080602001828103825260258152602001806131316025913960400191505060405180910390fd5b606c80546001600160a01b0319166001600160a01b0392909216919091179055565b606a5481565b60035460009060049063ffffffff1660648110611b2057fe5b0154905090565b606c546001600160a01b03163314611b705760405162461bcd60e51b81526004018080602001828103825260258152602001806131316025913960400191505060405180910390fd5b607791909155607855565b60048160648110611b8857fe5b0154905081565b606481565b60026068541415611bda576040805162461bcd60e51b815260206004820152601f6024820152600080516020612e92833981519152604482015290519081900360640190fd5b6002606855600081815260796020526040902060019081015460ff161415611c43576040805162461bcd60e51b8152602060048201526017602482015276151a1a5cc819195c1bdcda5d081dd85cc81b1bd8dad959604a1b604482015290519081900360640190fd5b6000868152606f602052604090205460ff1615611ca7576040805162461bcd60e51b815260206004820152601f60248201527f546865206e6f746520686173206265656e20616c7265616479207370656e7400604482015290519081900360640190fd5b611cb087610fce565b611d01576040805162461bcd60e51b815260206004820152601c60248201527f43616e6e6f742066696e6420796f7572206d65726b6c6520726f6f7400000000604482015290519081900360640190fd5b60008181526072602052604090205460ff166001148015611d3b57506000818152607360205260409020546001600160a01b038681169116145b80611d55575060008181526072602052604090205460ff16155b611d905760405162461bcd60e51b8152600401808060200182810382526027815260200180612f586027913960400191505060405180910390fd5b600081815260716020526040902054611df0576040805162461bcd60e51b815260206004820152601f60248201527f4e6f2062616c616e636520616d6f756e74206f6620746869732070726f6f6600604482015290519081900360640190fd5b6000818152607160205260408120548310611e1957600082815260716020526040902054611e1b565b825b905060008111611e72576040805162461bcd60e51b815260206004820152601d60248201527f526566756e6420616d6f756e742063616e206e6f74206265207a65726f000000604482015290519081900360640190fd5b600082815260746020526040902054421015611ebf5760405162461bcd60e51b815260040180806020018281038252602d815260200180613019602d913960400191505060405180910390fd5b83811015611efe5760405162461bcd60e51b8152600401808060200182810382526025815260200180612fa46025913960400191505060405180910390fd5b606b546040805160c080820183528b8252602082018b90526001600160a01b038a81168385015289811660608401526080830189905260a08301889052925163695ef6f960e01b8152929093169263695ef6f9928e928e9290916004810191829160240190849080838360005b83811015611f83578181015183820152602001611f6b565b505050509050018281038252858582818152602001925080828437600081840152601f19601f820116905080830192505050945050505050602060405180830381600087803b158015611fd557600080fd5b505af1158015611fe9573d6000803e3d6000fd5b505050506040513d6020811015611fff57600080fd5b505161204b576040805162461bcd60e51b815260206004820152601660248201527524b73b30b634b2103bb4ba34323930bb90383937b7b360511b604482015290519081900360640190fd5b60008281526072602052604081205460ff1660011461206a5786612083565b6000838152607360205260409020546001600160a01b03165b33600090815260756020526040812054919250906001600160a01b0316156120c357336000908152607560205260409020546001600160a01b03166120d0565b6076546001600160a01b03165b905060006120dd84612961565b90508381111561211e5760405162461bcd60e51b815260040180806020018281038252602a815260200180613092602a913960400191505060405180910390fd5b336000908152607560205260409020546001600160a01b0316156121425786612144565b805b96506121528383898761297d565b600085815260716020526040902054612171908563ffffffff61277716565b600086815260716020526040902055606954612193908563ffffffff61277716565b606955600085815260716020526040902054156121b15760006121b4565b60015b60008b8152606f6020908152604091829020805460ff19169315159390931790925580516001600160a01b038c811682529281018d90528082018a9052606081018790529051918a16917f6d7aac54bd3d1c91db3b1fd7b8d6cb45324ad6b5e373c0f0ea4d7b2606c4c2c8916080908290030190a2505060016068555050505050505050505050565b6000908152606f602052604090205460ff1690565b6002818154811061111d57fe5b7f2fe54c60d3acabf3343a35b6eba15db4821b340f76e741e2249685ed4899af6c81565b6000600260685414156122cb576040805162461bcd60e51b815260206004820152601f6024820152600080516020612e92833981519152604482015290519081900360640190fd5b6002606881905550606b60009054906101000a90046001600160a01b03166001600160a01b031663695ef6f98d8d6040518060c001604052808f60001c81526020018e60001c81526020018d6001600160a01b031681526020018c6001600160a01b031681526020018b81526020018a8152506040518463ffffffff1660e01b8152600401808060200183600660200280838360005b83811015612379578181015183820152602001612361565b505050509050018281038252858582818152602001925080828437600081840152601f19601f820116905080830192505050945050505050602060405180830381600087803b1580156123cb57600080fd5b505af11580156123df573d6000803e3d6000fd5b505050506040513d60208110156123f557600080fd5b5051612441576040805162461bcd60e51b815260206004820152601660248201527524b73b30b634b2103bb4ba34323930bb90383937b7b360511b604482015290519081900360640190fd5b6040518060e0016040528084848080601f016020809104026020016040519081016040528093929190818152602001838380828437600092018290525093855250506001602080850191909152426040808601919091526001600160a01b03808f1660608701528d1660808601523360a086015260c09094018a905288835260798152929091208351805191936124dd93508492910190612df9565b5060208201516001828101805460ff191660ff909316929092179091556040830151600283015560608301516003830180546001600160a01b03199081166001600160a01b03938416179091556080850151600485018054831691841691909117905560a0850151600585018054909216921691909117905560c090920151600690910155607a8054808301825560008290527ff0440771a29e57e18c66727944770b82cc77924aef333c927ce6bdd2cdb3ae03019590955593546068949094555050506000190198975050505050505050565b6001818154811061111d57fe5b607b546001600160a01b031681565b600354600160201b900463ffffffff1681565b60035460008054909163ffffffff600160201b909104811691811660020a1681141561263d5760405162461bcd60e51b815260040180806020018281038252602f815260200180612ed8602f913960400191505060405180910390fd5b6003805463ffffffff600160201b80830482166001019091160267ffffffff000000001990911617905582600080805b60005463ffffffff908116908216101561271557600185166126d15783925060028163ffffffff168154811061269f57fe5b906000526020600020015491508360018263ffffffff16815481106126c057fe5b6000918252602090912001556126f5565b60018163ffffffff16815481106126e457fe5b906000526020600020015492508391505b6126ff8383610c58565b9350600263ffffffff861604945060010161266d565b5060035460649063ffffffff908116600101166003805463ffffffff19169290910663ffffffff90811692909217908190558491600491166064811061275757fe5b01555050600354600160201b900463ffffffff1660001901949350505050565b6000828211156127ce576040805162461bcd60e51b815260206004820152601e60248201527f536166654d6174683a207375627472616374696f6e206f766572666c6f770000604482015290519081900360640190fd5b50900390565b60008481526070602052604090205460ff16156128225760405162461bcd60e51b81526004018080602001828103825260218152602001806130bc6021913960400191505060405180910390fd5b600061282d856125e0565b90506128388661299f565b6000858152607060209081526040808320805460ff199081166001908117909255607184528285208b905560729093529220805460ff8816921682179055146128815733612883565b825b600086815260736020526040902080546001600160a01b0319166001600160a01b03929092169190911790554282106128bc57816128be565b425b6000868152607460205260409020556069546128e0908763ffffffff6129e716565b606955606a546128f6908763ffffffff6129e716565b606a556040805163ffffffff8316815242602082015260ff8616818301526001600160a01b038516606082015260808101849052905186917ff052b28ca720e670068c23c54488dc5b4db3ed42fde7c3fd2d0ea7aee06406eb919081900360a00190a2505050505050565b600060775461271060785484028161297557fe5b040192915050565b61298984838303612a48565b8115612999576129998383612a48565b50505050565b34156129dc5760405162461bcd60e51b81526004018080602001828103825260308152602001806130dd6030913960400191505060405180910390fd5b61110d333083612c13565b600082820183811015612a41576040805162461bcd60e51b815260206004820152601b60248201527f536166654d6174683a206164646974696f6e206f766572666c6f770000000000604482015290519081900360640190fd5b9392505050565b607b54604080516001600160a01b038581166024830152604480830186905283518084039091018152606490920183526020820180516001600160e01b031663a9059cbb60e01b178152925182516000956060959316939282918083835b60208310612ac55780518252601f199092019160209182019101612aa6565b6001836020036101000a0380198251168184511680821785525050505050509050019150506000604051808303816000865af19150503d8060008114612b27576040519150601f19603f3d011682016040523d82523d6000602084013e612b2c565b606091505b509150915081612b77576040805162461bcd60e51b81526020600482015260116024820152706e6f7420656e6f75676820746f6b656e7360781b604482015290519081900360640190fd5b805115612999578051602014612bbe5760405162461bcd60e51b815260040180806020018281038252602a815260200180612f07602a913960400191505060405180910390fd5b808060200190516020811015612bd357600080fd5b50519150816129995760405162461bcd60e51b8152600401808060200182810382526027815260200180612f316027913960400191505060405180910390fd5b607b54604080516001600160a01b0386811660248301528581166044830152606480830186905283518084039091018152608490920183526020820180516001600160e01b03166323b872dd60e01b178152925182516000956060959316939282918083835b60208310612c985780518252601f199092019160209182019101612c79565b6001836020036101000a0380198251168184511680821785525050505050509050019150506000604051808303816000865af19150503d8060008114612cfa576040519150601f19603f3d011682016040523d82523d6000602084013e612cff565b606091505b509150915081612d56576040805162461bcd60e51b815260206004820152601960248201527f6e6f7420656e6f75676820616c6c6f77656420746f6b656e7300000000000000604482015290519081900360640190fd5b805115612df2578051602014612d9d5760405162461bcd60e51b815260040180806020018281038252602a815260200180612f07602a913960400191505060405180910390fd5b808060200190516020811015612db257600080fd5b5051915081612df25760405162461bcd60e51b815260040180806020018281038252602f815260200180612fea602f913960400191505060405180910390fd5b5050505050565b828054600181600116156101000203166002900490600052602060002090601f016020900481019282601f10612e3a57805160ff1916838001178555612e67565b82800160010185558215612e67579182015b82811115612e67578251825591602001919060010190612e4c565b50612e73929150612e77565b5090565b610bc391905b80821115612e735760008155600101612e7d56fe5265656e7472616e637947756172643a207265656e7472616e742063616c6c00546865726520617265206f6e6c79203220636865717565207374617475733a2030206f7220314d65726b6c6520747265652069732066756c6c2e204e6f206d6f7265206c656166732063616e20626520616464656464617461206c656e6774682073686f756c64206265206569746865722030206f722033322062797465736e6f7420656e6f75676820746f6b656e732e20546f6b656e2072657475726e732066616c73652e526563697069656e74206973206e6f7420746865206f726967696e616c20726563697069656e74546865206e657720636f6d6d69746d656e7420686173206265656e207375626d6974746564526566756e6420616d6f756e742073686f756c64206265206d6f7265207468616e206665655f72696768742073686f756c6420626520696e7369646520746865206669656c646e6f7420656e6f75676820616c6c6f77656420746f6b656e732e20546f6b656e2072657475726e732066616c73652e546865206465706f736974206973206c6f636b656420756e74696c207468652065666665637469766554696d6530644e72e131a029b85045b68181585d2833e84879b9709143e1f593f00000014f6e6c7920636f756e63696c206163636f756e742063616e2063616c6c20746869732066756e6374696f6e2e546865206665652063616e206e6f74206265206d6f7265207468616e20726566756e6420616d6f756e7454686520636f6d6d69746d656e7420686173206265656e207375626d69747465644554482076616c756520697320737570706f73656420746f206265203020666f7220455243323020696e7374616e63654f6e6c792072656c617965722063616e2063616c6c20746869732066756e6374696f6e2e4f6e6c79206f70657261746f722063616e2063616c6c20746869732066756e6374696f6e2e53656e646572206973206e6f7420746865206f726967696e616c20726563697069656e74a265627a7a723158200d7efcb87e89ad53e9573450fb5c5e24829124d0d8173c981e569a3a14025b1f64736f6c6343000511003264656e6f6d696e6174696f6e2073686f756c642062652067726561746572207468616e2030405787fa12a823e0f2b7631cc41b3ba8828b3321ca811111fa75cd3aa3bb5ace5f72696768742073686f756c6420626520696e7369646520746865206669656c645f747265654c6576656c732073686f756c642062652067726561746572207468616e207a65726f30644e72e131a029b85045b68181585d2833e84879b9709143e1f593f00000015f747265654c6576656c732073686f756c64206265206c657373207468616e203332b10e2d527612073b26eecdfd717e6a320cf44b4afac2b0732d9fcbe2b7fa0cf6",
  "source": "/**\n *  $$$$$$\\  $$\\                 $$\\                           \n * $$  __$$\\ $$ |                $$ |                          \n * $$ /  \\__|$$$$$$$\\   $$$$$$\\  $$ |  $$\\  $$$$$$\\   $$$$$$\\  \n * \\$$$$$$\\  $$  __$$\\  \\____$$\\ $$ | $$  |$$  __$$\\ $$  __$$\\ \n *  \\____$$\\ $$ |  $$ | $$$$$$$ |$$$$$$  / $$$$$$$$ |$$ |  \\__|\n * $$\\   $$ |$$ |  $$ |$$  __$$ |$$  _$$<  $$   ____|$$ |      \n * \\$$$$$$  |$$ |  $$ |\\$$$$$$$ |$$ | \\$$\\ \\$$$$$$$\\ $$ |      \n *  \\______/ \\__|  \\__| \\_______|\\__|  \\__| \\_______|\\__|\n * $$$$$$$$$$$$$$$$$$$$$$$$$$$$$$$$$$$$$$$$$$$$$$$$$$$$$$$$$$$$\n * ____________________________________________________________\n*/\n\npragma solidity 0.5.17;\n// pragma experimental ABIEncoderV2;\n\nimport \"./Shaker.sol\";\n\ncontract ERC20Shaker is Shaker {\n  address public token;\n\n  constructor(\n    IVerifier _verifier,\n    uint256 _denomination,\n    uint32 _merkleTreeHeight,\n    address _operator,\n    address _commonWithdrawAddress,\n    address _token\n  ) Shaker(_verifier, _denomination, _merkleTreeHeight, _operator, _commonWithdrawAddress) public {\n    token = _token;\n  }\n\n  function _processDeposit(uint256 _amount) internal {\n    require(msg.value == 0, \"ETH value is supposed to be 0 for ERC20 instance\");\n    _safeErc20TransferFrom(msg.sender, address(this), _amount);\n  }\n\n  function _processWithdraw(address payable _recipient, address _relayer, uint256 _fee, uint256 _refund) internal {\n    // require(msg.value == _refund, \"Incorrect refund amount received by the contract\");\n\n    _safeErc20Transfer(_recipient, _refund - _fee);\n    if (_fee > 0) {\n      _safeErc20Transfer(_relayer, _fee);\n    }\n\n    // if (_refund > 0) {\n    //   (bool success, ) = _recipient.call.value(_refund)(\"\");\n    //   if (!success) {\n    //     // let's return _refund back to the relayer\n    //     _relayer.transfer(_refund);\n    //   }\n    // }\n  }\n\n  function _safeErc20TransferFrom(address _from, address _to, uint256 _amount) internal {\n    (bool success, bytes memory data) = token.call(abi.encodeWithSelector(0x23b872dd /* transferFrom */, _from, _to, _amount));\n    require(success, \"not enough allowed tokens\");\n\n    // if contract returns some data lets make sure that is `true` according to standard\n    if (data.length > 0) {\n      require(data.length == 32, \"data length should be either 0 or 32 bytes\");\n      success = abi.decode(data, (bool));\n      require(success, \"not enough allowed tokens. Token returns false.\");\n    }\n  }\n\n  function _safeErc20Transfer(address _to, uint256 _amount) internal {\n    (bool success, bytes memory data) = token.call(abi.encodeWithSelector(0xa9059cbb /* transfer */, _to, _amount));\n    require(success, \"not enough tokens\");\n\n    // if contract returns some data lets make sure that is `true` according to standard\n    if (data.length > 0) {\n      require(data.length == 32, \"data length should be either 0 or 32 bytes\");\n      success = abi.decode(data, (bool));\n      require(success, \"not enough tokens. Token returns false.\");\n    }\n  }\n}\n",
  "sourcePath": "/Users/guqianfeng/web/my_dapps/hunbi/tornado-core/contracts/ERC20Shaker.sol",
  "compiler": {
    "name": "solc",
    "version": "0.5.17+commit.d19bba13.Emscripten.clang"
  },
  "schemaVersion": "3.2.4",
  "updatedAt": "2020-09-28T02:49:36.335Z",
  "networkType": "ethereum",
  "devdoc": {
    "methods": {
      "depositERC20Batch(uint256[],bytes32[],uint8,address,uint256)": {
        "details": "Deposit a set of amount and commitments",
        "params": {
          "_amounts": ", array of ERC20 amount",
          "_commitments": ", array of commitments",
          "_effectiveTime": ", effective time of the Withdrawal",
          "_orderStatus": ", status of deposit, 0: cheque for bearer, 1: cheque for order",
          "_recipient": ", recipient address if cheque for order"
        }
      },
      "endorse(bytes,bytes32,bytes32,address,address,uint8,uint256,bytes32,bytes32,uint256)": {
        "details": "this function is for cheque endorsement",
        "params": {
          "_amount": ", endorsed amount, the endorsement amount can be part of balance of old cheque",
          "_effectiveTime": ", new effectiveTime of note",
          "_newCommitment": ", new commitment from frontend",
          "_nullifierHash": ", old nullifierHashe",
          "_oldCommitment": ", old commitment which will be endorsed",
          "_orderStatus": ", old cheque order type, 0- to Bearer cheque, 1- to order cheque",
          "_proof": ", Proof of zkSNARK",
          "_recipient": ", new recipient address, if orderStatus is 0, the _recipient is sender. Otherwise the _recipient is to order",
          "_relayer": ", relayer address",
          "_root": ", root of merkle tree"
        }
      },
      "getLastRoot()": {
        "details": "Returns the last root"
      },
      "getRelayerWithdrawAddress()": {
        "details": "get relayer Withdrawal address "
      },
      "hashLeftRight(bytes32,bytes32)": {
        "details": "Hash 2 tree leaves, returns MiMC(_left, _right)"
      },
      "isKnownRoot(bytes32)": {
        "details": "Whether the root is present in the root history"
      },
      "isSpent(bytes32)": {
        "details": "whether a note is already spent "
      },
      "isSpentArray(bytes32[])": {
        "details": "whether an array of notes is already spent "
      },
      "lockDeposit(bytes,bytes32,bytes32,address,address,uint256,uint256,bytes32,string)": {
        "details": "lock commitment, this operation can be only called by note holder "
      },
      "setCouncial(address)": {
        "details": "set council address "
      },
      "unlockDeposit(uint256)": {
        "details": "unlock commitment by council "
      },
      "updateCommonFee(uint256,uint256)": {
        "details": "set common fee and fee rate "
      },
      "updateCommonWithdrawAddress(address)": {
        "details": "update commonWithdrawAddress "
      },
      "updateOperator(address)": {
        "details": "operator can change his address "
      },
      "updateRelayer(address,address)": {
        "details": "update authority relayer "
      },
      "updateVerifier(address)": {
        "details": "allow operator to update SNARK verification keys. This is needed to update keys after the final trusted setup ceremony is held. After that operator rights are supposed to be transferred to zero address"
      },
      "withdraw(bytes,bytes32,bytes32,address,address,uint256,uint256,bytes32)": {
        "details": "Withdraw a deposit from the contract. `proof` is a zkSNARK proof data, and input is an array of circuit public inputs `input` array consists of: - merkle root of all deposits in the contract - hash of unique deposit nullifier to prevent double spends - the recipient of funds - optional fee that goes to the transaction sender (usually a relay)",
        "params": {
          "_fee": ", relayer decide the fee amount"
        }
      }
    }
  },
  "userdoc": {
    "methods": {}
  }
}