{
  "contractName": "ERC20ShakerV2",
  "abi": [
    {
      "inputs": [
        {
          "internalType": "contract IVerifier",
          "name": "_verifier",
          "type": "address"
        },
        {
          "internalType": "uint256",
          "name": "_denomination",
          "type": "uint256"
        },
        {
          "internalType": "address",
          "name": "_operator",
          "type": "address"
        },
        {
          "internalType": "address",
          "name": "_commonWithdrawAddress",
          "type": "address"
        },
        {
          "internalType": "address",
          "name": "_token",
          "type": "address"
        }
      ],
      "payable": false,
      "stateMutability": "nonpayable",
      "type": "constructor"
    },
    {
      "anonymous": false,
      "inputs": [
        {
          "indexed": true,
          "internalType": "bytes32",
          "name": "commitment",
          "type": "bytes32"
        },
        {
          "indexed": false,
          "internalType": "uint32",
          "name": "leafIndex",
          "type": "uint32"
        },
        {
          "indexed": false,
          "internalType": "uint256",
          "name": "timestamp",
          "type": "uint256"
        },
        {
          "indexed": false,
          "internalType": "uint8",
          "name": "orderStatus",
          "type": "uint8"
        },
        {
          "indexed": false,
          "internalType": "address",
          "name": "recipient",
          "type": "address"
        },
        {
          "indexed": false,
          "internalType": "uint256",
          "name": "effectiveTime",
          "type": "uint256"
        }
      ],
      "name": "Deposit",
      "type": "event"
    },
    {
      "anonymous": false,
      "inputs": [
        {
          "indexed": false,
          "internalType": "address",
          "name": "to",
          "type": "address"
        },
        {
          "indexed": false,
          "internalType": "bytes32",
          "name": "nullifierHash",
          "type": "bytes32"
        },
        {
          "indexed": true,
          "internalType": "address",
          "name": "relayer",
          "type": "address"
        },
        {
          "indexed": false,
          "internalType": "uint256",
          "name": "fee",
          "type": "uint256"
        },
        {
          "indexed": false,
          "internalType": "uint256",
          "name": "amount",
          "type": "uint256"
        }
      ],
      "name": "Withdrawal",
      "type": "event"
    },
    {
      "constant": true,
      "inputs": [],
      "name": "commonFee",
      "outputs": [
        {
          "internalType": "uint256",
          "name": "",
          "type": "uint256"
        }
      ],
      "payable": false,
      "stateMutability": "view",
      "type": "function"
    },
    {
      "constant": true,
      "inputs": [],
      "name": "commonFeeRate",
      "outputs": [
        {
          "internalType": "uint256",
          "name": "",
          "type": "uint256"
        }
      ],
      "payable": false,
      "stateMutability": "view",
      "type": "function"
    },
    {
      "constant": true,
      "inputs": [],
      "name": "commonWithdrawAddress",
      "outputs": [
        {
          "internalType": "address",
          "name": "",
          "type": "address"
        }
      ],
      "payable": false,
      "stateMutability": "view",
      "type": "function"
    },
    {
      "constant": true,
      "inputs": [],
      "name": "councilAddress",
      "outputs": [
        {
          "internalType": "address",
          "name": "",
          "type": "address"
        }
      ],
      "payable": false,
      "stateMutability": "view",
      "type": "function"
    },
    {
      "constant": true,
      "inputs": [],
      "name": "denomination",
      "outputs": [
        {
          "internalType": "uint256",
          "name": "",
          "type": "uint256"
        }
      ],
      "payable": false,
      "stateMutability": "view",
      "type": "function"
    },
    {
      "constant": false,
      "inputs": [
        {
          "internalType": "uint256[]",
          "name": "_amounts",
          "type": "uint256[]"
        },
        {
          "internalType": "bytes32[]",
          "name": "_commitments",
          "type": "bytes32[]"
        },
        {
          "internalType": "uint8",
          "name": "_orderStatus",
          "type": "uint8"
        },
        {
          "internalType": "address payable",
          "name": "_recipient",
          "type": "address"
        },
        {
          "internalType": "uint256",
          "name": "_effectiveTime",
          "type": "uint256"
        }
      ],
      "name": "depositERC20Batch",
      "outputs": [],
      "payable": true,
      "stateMutability": "payable",
      "type": "function"
    },
    {
      "constant": false,
      "inputs": [
        {
          "internalType": "bytes",
          "name": "_proof",
          "type": "bytes"
        },
        {
          "internalType": "bytes32",
          "name": "_root",
          "type": "bytes32"
        },
        {
          "internalType": "bytes32",
          "name": "_nullifierHash",
          "type": "bytes32"
        },
        {
          "internalType": "address payable",
          "name": "_recipient",
          "type": "address"
        },
        {
          "internalType": "address payable",
          "name": "_relayer",
          "type": "address"
        },
        {
          "internalType": "uint8",
          "name": "_orderStatus",
          "type": "uint8"
        },
        {
          "internalType": "uint256",
          "name": "_amount",
          "type": "uint256"
        },
        {
          "internalType": "bytes32",
          "name": "_oldCommitment",
          "type": "bytes32"
        },
        {
          "internalType": "bytes32",
          "name": "_newCommitment",
          "type": "bytes32"
        },
        {
          "internalType": "uint256",
          "name": "_effectiveTime",
          "type": "uint256"
        }
      ],
      "name": "endorse",
      "outputs": [],
      "payable": true,
      "stateMutability": "payable",
      "type": "function"
    },
    {
      "constant": true,
      "inputs": [],
      "name": "getRelayerWithdrawAddress",
      "outputs": [
        {
          "internalType": "address",
          "name": "",
          "type": "address"
        }
      ],
      "payable": false,
      "stateMutability": "view",
      "type": "function"
    },
    {
      "constant": true,
      "inputs": [
        {
          "internalType": "bytes32",
          "name": "_nullifierHash",
          "type": "bytes32"
        }
      ],
      "name": "isSpent",
      "outputs": [
        {
          "internalType": "bool",
          "name": "",
          "type": "bool"
        }
      ],
      "payable": false,
      "stateMutability": "view",
      "type": "function"
    },
    {
      "constant": true,
      "inputs": [
        {
          "internalType": "bytes32[]",
          "name": "_nullifierHashes",
          "type": "bytes32[]"
        }
      ],
      "name": "isSpentArray",
      "outputs": [
        {
          "internalType": "bool[]",
          "name": "spent",
          "type": "bool[]"
        }
      ],
      "payable": false,
      "stateMutability": "view",
      "type": "function"
    },
    {
      "constant": true,
      "inputs": [
        {
          "internalType": "uint256",
          "name": "",
          "type": "uint256"
        }
      ],
      "name": "lockCommitments",
      "outputs": [
        {
          "internalType": "bytes32",
          "name": "",
          "type": "bytes32"
        }
      ],
      "payable": false,
      "stateMutability": "view",
      "type": "function"
    },
    {
      "constant": false,
      "inputs": [
        {
          "internalType": "bytes",
          "name": "_proof",
          "type": "bytes"
        },
        {
          "internalType": "bytes32",
          "name": "_root",
          "type": "bytes32"
        },
        {
          "internalType": "bytes32",
          "name": "_nullifierHash",
          "type": "bytes32"
        },
        {
          "internalType": "address payable",
          "name": "_recipient",
          "type": "address"
        },
        {
          "internalType": "address payable",
          "name": "_relayer",
          "type": "address"
        },
        {
          "internalType": "uint256",
          "name": "_fee",
          "type": "uint256"
        },
        {
          "internalType": "uint256",
          "name": "_refund",
          "type": "uint256"
        },
        {
          "internalType": "bytes32",
          "name": "_commitment",
          "type": "bytes32"
        },
        {
          "internalType": "string",
          "name": "_description",
          "type": "string"
        }
      ],
      "name": "lockDeposit",
      "outputs": [
        {
          "internalType": "uint256",
          "name": "",
          "type": "uint256"
        }
      ],
      "payable": true,
      "stateMutability": "payable",
      "type": "function"
    },
    {
      "constant": true,
      "inputs": [
        {
          "internalType": "bytes32",
          "name": "",
          "type": "bytes32"
        }
      ],
      "name": "lockReason",
      "outputs": [
        {
          "internalType": "string",
          "name": "description",
          "type": "string"
        },
        {
          "internalType": "uint8",
          "name": "status",
          "type": "uint8"
        },
        {
          "internalType": "uint256",
          "name": "datetime",
          "type": "uint256"
        },
        {
          "internalType": "address",
          "name": "recipient",
          "type": "address"
        },
        {
          "internalType": "address",
          "name": "relayer",
          "type": "address"
        },
        {
          "internalType": "address",
          "name": "locker",
          "type": "address"
        },
        {
          "internalType": "uint256",
          "name": "refund",
          "type": "uint256"
        }
      ],
      "payable": false,
      "stateMutability": "view",
      "type": "function"
    },
    {
      "constant": true,
      "inputs": [],
      "name": "operator",
      "outputs": [
        {
          "internalType": "address",
          "name": "",
          "type": "address"
        }
      ],
      "payable": false,
      "stateMutability": "view",
      "type": "function"
    },
    {
      "constant": false,
      "inputs": [
        {
          "internalType": "address",
          "name": "_councilAddress",
          "type": "address"
        }
      ],
      "name": "setCouncial",
      "outputs": [],
      "payable": false,
      "stateMutability": "nonpayable",
      "type": "function"
    },
    {
      "constant": true,
      "inputs": [],
      "name": "token",
      "outputs": [
        {
          "internalType": "address",
          "name": "",
          "type": "address"
        }
      ],
      "payable": false,
      "stateMutability": "view",
      "type": "function"
    },
    {
      "constant": true,
      "inputs": [],
      "name": "totalAmount",
      "outputs": [
        {
          "internalType": "uint256",
          "name": "",
          "type": "uint256"
        }
      ],
      "payable": false,
      "stateMutability": "view",
      "type": "function"
    },
    {
      "constant": true,
      "inputs": [],
      "name": "totalBalance",
      "outputs": [
        {
          "internalType": "uint256",
          "name": "",
          "type": "uint256"
        }
      ],
      "payable": false,
      "stateMutability": "view",
      "type": "function"
    },
    {
      "constant": false,
      "inputs": [
        {
          "internalType": "uint256",
          "name": "id",
          "type": "uint256"
        }
      ],
      "name": "unlockDeposit",
      "outputs": [],
      "payable": false,
      "stateMutability": "nonpayable",
      "type": "function"
    },
    {
      "constant": false,
      "inputs": [
        {
          "internalType": "uint256",
          "name": "_fee",
          "type": "uint256"
        },
        {
          "internalType": "uint256",
          "name": "_rate",
          "type": "uint256"
        }
      ],
      "name": "updateCommonFee",
      "outputs": [],
      "payable": false,
      "stateMutability": "nonpayable",
      "type": "function"
    },
    {
      "constant": false,
      "inputs": [
        {
          "internalType": "address",
          "name": "_commonWithdrawAddress",
          "type": "address"
        }
      ],
      "name": "updateCommonWithdrawAddress",
      "outputs": [],
      "payable": false,
      "stateMutability": "nonpayable",
      "type": "function"
    },
    {
      "constant": false,
      "inputs": [
        {
          "internalType": "address",
          "name": "_newOperator",
          "type": "address"
        }
      ],
      "name": "updateOperator",
      "outputs": [],
      "payable": false,
      "stateMutability": "nonpayable",
      "type": "function"
    },
    {
      "constant": false,
      "inputs": [
        {
          "internalType": "address",
          "name": "_relayer",
          "type": "address"
        },
        {
          "internalType": "address",
          "name": "_withdrawAddress",
          "type": "address"
        }
      ],
      "name": "updateRelayer",
      "outputs": [],
      "payable": false,
      "stateMutability": "nonpayable",
      "type": "function"
    },
    {
      "constant": false,
      "inputs": [
        {
          "internalType": "address",
          "name": "_newVerifier",
          "type": "address"
        }
      ],
      "name": "updateVerifier",
      "outputs": [],
      "payable": false,
      "stateMutability": "nonpayable",
      "type": "function"
    },
    {
      "constant": true,
      "inputs": [],
      "name": "verifier",
      "outputs": [
        {
          "internalType": "contract IVerifier",
          "name": "",
          "type": "address"
        }
      ],
      "payable": false,
      "stateMutability": "view",
      "type": "function"
    },
    {
      "constant": false,
      "inputs": [
        {
          "internalType": "bytes",
          "name": "_proof",
          "type": "bytes"
        },
        {
          "internalType": "bytes32",
          "name": "_root",
          "type": "bytes32"
        },
        {
          "internalType": "bytes32",
          "name": "_nullifierHash",
          "type": "bytes32"
        },
        {
          "internalType": "address payable",
          "name": "_recipient",
          "type": "address"
        },
        {
          "internalType": "address payable",
          "name": "_relayer",
          "type": "address"
        },
        {
          "internalType": "uint256",
          "name": "_fee",
          "type": "uint256"
        },
        {
          "internalType": "uint256",
          "name": "_refund",
          "type": "uint256"
        },
        {
          "internalType": "bytes32",
          "name": "_commitment",
          "type": "bytes32"
        }
      ],
      "name": "withdraw",
      "outputs": [],
      "payable": true,
      "stateMutability": "payable",
      "type": "function"
    }
  ],
  "bytecode": "0x6080604052600060015560006002556000600f55600060105534801561002457600080fd5b50604051612ae3380380612ae3833981810160405260a081101561004757600080fd5b50805160208201516040830151606084015160809094015160016000559293919290919084848484826100ab5760405162461bcd60e51b8152600401808060200182810382526025815260200180612abe6025913960400191505060405180910390fd5b600380546001600160a01b039586166001600160a01b0319918216179091556004805493861693821693909317909255600692909255600e80549284169282169290921790915560138054939092169216919091179055505050506129a9806101156000396000f3fe6080604052600436106101815760003560e01c8063827a2600116100d1578063ac7475ed1161008a578063da90803911610064578063da90803914610744578063e5285dcc146107e4578063eece3bd514610822578063fc0c546a1461091757610181565b8063ac7475ed146106cc578063ad7a672f146106ff578063bbe9cd8c1461071457610181565b8063827a2600146104005780638bca6d16146104b057806397fc007c146104c55780639fa12d0b146104f8578063a4cab45c146105c3578063a8be3cd6146105f657610181565b80634d10b2fb1161013e5780635c64ae91116101185780635c64ae91146102b757806362bc0cd61461039757806377b9de8e146103ac578063807c7ba3146103d657610181565b80634d10b2fb1461025a57806354b45fc31461026f578063570ca735146102a257610181565b806315d232db146101865780631a39d8ef146101b7578063266c0aa7146101de5780632b7ac3f31461021b57806335795ea7146102305780634adf3d1514610245575b600080fd5b34801561019257600080fd5b5061019b61092c565b604080516001600160a01b039092168252519081900360200190f35b3480156101c357600080fd5b506101cc61099e565b60408051918252519081900360200190f35b3480156101ea57600080fd5b506102196004803603604081101561020157600080fd5b506001600160a01b03813581169160200135166109a4565b005b34801561022757600080fd5b5061019b610a1b565b34801561023c57600080fd5b506101cc610a2a565b34801561025157600080fd5b506101cc610a30565b34801561026657600080fd5b5061019b610a36565b34801561027b57600080fd5b506102196004803603602081101561029257600080fd5b50356001600160a01b0316610a45565b3480156102ae57600080fd5b5061019b610ab0565b3480156102c357600080fd5b506102e1600480360360208110156102da57600080fd5b5035610abf565b6040805160ff88166020808301919091529181018790526001600160a01b0380871660608301528581166080830152841660a082015260c0810183905260e08082528951908201528851909182916101008301918b019080838360005b8381101561035657818101518382015260200161033e565b50505050905090810190601f1680156103835780820380516001836020036101000a031916815260200191505b509850505050505050505060405180910390f35b3480156103a357600080fd5b5061019b610b98565b3480156103b857600080fd5b50610219600480360360208110156103cf57600080fd5b5035610ba7565b3480156103e257600080fd5b506101cc600480360360208110156103f957600080fd5b5035610c76565b610219600480360361014081101561041757600080fd5b810190602081018135600160201b81111561043157600080fd5b82018360208201111561044357600080fd5b803590602001918460018302840111600160201b8311171561046457600080fd5b91935091508035906020810135906001600160a01b03604082013581169160608101359091169060ff6080820135169060a08101359060c08101359060e0810135906101000135610c94565b3480156104bc57600080fd5b506101cc611327565b3480156104d157600080fd5b50610219600480360360208110156104e857600080fd5b50356001600160a01b031661132d565b34801561050457600080fd5b506105736004803603602081101561051b57600080fd5b810190602081018135600160201b81111561053557600080fd5b82018360208201111561054757600080fd5b803590602001918460208302840111600160201b8311171561056857600080fd5b509092509050611398565b60408051602080825283518183015283519192839290830191858101910280838360005b838110156105af578181015183820152602001610597565b505050509050019250505060405180910390f35b3480156105cf57600080fd5b50610219600480360360208110156105e657600080fd5b50356001600160a01b0316611420565b610219600480360360a081101561060c57600080fd5b810190602081018135600160201b81111561062657600080fd5b82018360208201111561063857600080fd5b803590602001918460208302840111600160201b8311171561065957600080fd5b919390929091602081019035600160201b81111561067657600080fd5b82018360208201111561068857600080fd5b803590602001918460208302840111600160201b831117156106a957600080fd5b919350915060ff813516906001600160a01b03602082013516906040013561148b565b3480156106d857600080fd5b50610219600480360360208110156106ef57600080fd5b50356001600160a01b031661158a565b34801561070b57600080fd5b506101cc6115f5565b34801561072057600080fd5b506102196004803603604081101561073757600080fd5b50803590602001356115fb565b610219600480360361010081101561075b57600080fd5b810190602081018135600160201b81111561077557600080fd5b82018360208201111561078757600080fd5b803590602001918460018302840111600160201b831117156107a857600080fd5b91935091508035906020810135906001600160a01b03604082013581169160608101359091169060808101359060a08101359060c0013561164f565b3480156107f057600080fd5b5061080e6004803603602081101561080757600080fd5b5035611c9e565b604080519115158252519081900360200190f35b6101cc600480360361012081101561083957600080fd5b810190602081018135600160201b81111561085357600080fd5b82018360208201111561086557600080fd5b803590602001918460018302840111600160201b8311171561088657600080fd5b919390928235926020810135926001600160a01b03604083013581169360608401359091169260808101359260a08201359260c08301359261010081019060e00135600160201b8111156108d957600080fd5b8201836020820111156108eb57600080fd5b803590602001918460018302840111600160201b8311171561090c57600080fd5b509092509050611cb3565b34801561092357600080fd5b5061019b611fde565b336000908152600d60205260408120546001600160a01b03166109805760405162461bcd60e51b81526004018080602001828103825260248152602001806129086024913960400191505060405180910390fd5b50336000908152600d60205260409020546001600160a01b03165b90565b60015481565b6004546001600160a01b031633146109ed5760405162461bcd60e51b815260040180806020018281038252602581526020018061292c6025913960400191505060405180910390fd5b6001600160a01b039182166000908152600d6020526040902080546001600160a01b03191691909216179055565b6003546001600160a01b031681565b600f5481565b60105481565b600e546001600160a01b031681565b6004546001600160a01b03163314610a8e5760405162461bcd60e51b815260040180806020018281038252602581526020018061292c6025913960400191505060405180910390fd5b600580546001600160a01b0319166001600160a01b0392909216919091179055565b6004546001600160a01b031681565b60116020908152600091825260409182902080548351601f60026000196101006001861615020190931692909204918201849004840281018401909452808452909291839190830182828015610b565780601f10610b2b57610100808354040283529160200191610b56565b820191906000526020600020905b815481529060010190602001808311610b3957829003601f168201915b50505060018401546002850154600386015460048701546005880154600690980154969760ff909416969295506001600160a01b039182169450811692169087565b6005546001600160a01b031681565b6005546001600160a01b03163314610bf05760405162461bcd60e51b815260040180806020018281038252602c815260200180612861602c913960400191505060405180910390fd5b6011600060128381548110610c0157fe5b60009182526020808320909101548352820192909252604001902060019081015460ff161415610c735760026011600060128481548110610c3e57fe5b9060005260206000200154815260200190815260200160002060010160006101000a81548160ff021916908360ff1602179055505b50565b60128181548110610c8357fe5b600091825260209091200154905081565b60026000541415610cda576040805162461bcd60e51b815260206004820152601f60248201526000805160206126fd833981519152604482015290519081900360640190fd5b6002600090815583815260116020526040902060019081015460ff161415610d43576040805162461bcd60e51b8152602060048201526017602482015276151a1a5cc819195c1bdcda5d081dd85cc81b1bd8dad959604a1b604482015290519081900360640190fd5b60008381526008602052604090205460ff16610da6576040805162461bcd60e51b815260206004820152601b60248201527f4f6c6420636f6d6d69746d656e742063616e206e6f742066696e640000000000604482015290519081900360640190fd5b60008281526008602052604090205460ff1615610df45760405162461bcd60e51b81526004018080602001828103825260258152602001806127bb6025913960400191505060405180910390fd5b60008881526007602052604090205460ff1615610e58576040805162461bcd60e51b815260206004820152601f60248201527f546865206e6f746520686173206265656e20616c7265616479207370656e7400604482015290519081900360640190fd5b600083815260096020526040902054610eb8576040805162461bcd60e51b815260206004820152601f60248201527f4e6f2062616c616e636520616d6f756e74206f6620746869732070726f6f6600604482015290519081900360640190fd5b6000838152600960205260408120548510610ee157600084815260096020526040902054610ee3565b845b905060008111610f3a576040805162461bcd60e51b815260206004820152601d60248201527f526566756e6420616d6f756e742063616e206e6f74206265207a65726f000000604482015290519081900360640190fd5b6000848152600a602052604090205460ff166001148015610f7157506000848152600b60205260409020546001600160a01b031633145b80610f8b57506000848152600a602052604090205460ff16155b610fc65760405162461bcd60e51b81526004018080602001828103825260248152602001806129516024913960400191505060405180910390fd5b600360009054906101000a90046001600160a01b03166001600160a01b031663695ef6f98d8d6040518060c001604052808f60001c81526020018e60001c81526020018d6001600160a01b031681526020018c6001600160a01b031681526020018b60ff1681526020018a8152506040518463ffffffff1660e01b8152600401808060200183600660200280838360005b8381101561106f578181015183820152602001611057565b505050509050018281038252858582818152602001925080828437600081840152601f19601f820116905080830192505050945050505050602060405180830381600087803b1580156110c157600080fd5b505af11580156110d5573d6000803e3d6000fd5b505050506040513d60208110156110eb57600080fd5b505161113e576040805162461bcd60e51b815260206004820152601960248201527f496e76616c696420656e646f7273656d656e742070726f6f6600000000000000604482015290519081900360640190fd5b6000821580159061115d57506000858152600c60205260409020544210155b15611178576000848152600c6020526040902083905561118f565b6000858152600c6020526040808220548683529120555b6000848152600860209081526040808320805460ff199081166001908117909255600984528285208b9055600a9093529220805460ff8b16921682179055146111d857336111da565b885b6000858152600b6020908152604080832080546001600160a01b0319166001600160a01b03959095169490941790935587825260099052205461121d9083611fed565b60008681526009602052604090208190551561123a57600061123d565b60015b60008b815260076020908152604091829020805493151560ff1990941693909317909255805163ffffffff84168152429281019290925260ff8916828201526001600160a01b038b166060830152608082018590525185917ff052b28ca720e670068c23c54488dc5b4db3ed42fde7c3fd2d0ea7aee06406eb919081900360a00190a2604080516000808252602082018d9052818301526060810184905290516001600160a01b038a16917f6d7aac54bd3d1c91db3b1fd7b8d6cb45324ad6b5e373c0f0ea4d7b2606c4c2c8919081900360800190a2505060016000555050505050505050505050565b60065481565b6004546001600160a01b031633146113765760405162461bcd60e51b815260040180806020018281038252602581526020018061292c6025913960400191505060405180910390fd5b600380546001600160a01b0319166001600160a01b0392909216919091179055565b6040805182815260208084028201019091526060908280156113c4578160200160208202803883390190505b50905060005b82811015611419576113ed8484838181106113e157fe5b90506020020135611c9e565b1561141157600182828151811061140057fe5b911515602092830291909101909101525b6001016113ca565b5092915050565b6004546001600160a01b031633146114695760405162461bcd60e51b815260040180806020018281038252602581526020018061292c6025913960400191505060405180910390fd5b600e80546001600160a01b0319166001600160a01b0392909216919091179055565b600260005414156114d1576040805162461bcd60e51b815260206004820152601f60248201526000805160206126fd833981519152604482015290519081900360640190fd5b600260005560ff831615806114e957508260ff166001145b6115245760405162461bcd60e51b815260040180806020018281038252602681526020018061271d6026913960400191505060405180910390fd5b6001600160a01b03821661153757600080fd5b60005b8681101561157b5761157388888381811061155157fe5b9050602002013587878481811061156457fe5b9050602002013586868661204a565b60010161153a565b50506001600055505050505050565b6004546001600160a01b031633146115d35760405162461bcd60e51b815260040180806020018281038252602581526020018061292c6025913960400191505060405180910390fd5b600480546001600160a01b0319166001600160a01b0392909216919091179055565b60025481565b6004546001600160a01b031633146116445760405162461bcd60e51b815260040180806020018281038252602581526020018061292c6025913960400191505060405180910390fd5b600f91909155601055565b60026000541415611695576040805162461bcd60e51b815260206004820152601f60248201526000805160206126fd833981519152604482015290519081900360640190fd5b6002600090815581815260116020526040902060019081015460ff1614156116fe576040805162461bcd60e51b8152602060048201526017602482015276151a1a5cc819195c1bdcda5d081dd85cc81b1bd8dad959604a1b604482015290519081900360640190fd5b60008681526007602052604090205460ff1615611762576040805162461bcd60e51b815260206004820152601f60248201527f546865206e6f746520686173206265656e20616c7265616479207370656e7400604482015290519081900360640190fd5b6000818152600a602052604090205460ff16600114801561179c57506000818152600b60205260409020546001600160a01b038681169116145b806117b657506000818152600a602052604090205460ff16155b6117f15760405162461bcd60e51b81526004018080602001828103825260278152602001806127946027913960400191505060405180910390fd5b600081815260096020526040902054611851576040805162461bcd60e51b815260206004820152601f60248201527f4e6f2062616c616e636520616d6f756e74206f6620746869732070726f6f6600604482015290519081900360640190fd5b600081815260096020526040812054831061187a5760008281526009602052604090205461187c565b825b9050600081116118d3576040805162461bcd60e51b815260206004820152601d60248201527f526566756e6420616d6f756e742063616e206e6f74206265207a65726f000000604482015290519081900360640190fd5b6000828152600c60205260409020544210156119205760405162461bcd60e51b815260040180806020018281038252602d815260200180612834602d913960400191505060405180910390fd5b8381101561195f5760405162461bcd60e51b81526004018080602001828103825260258152602001806127e06025913960400191505060405180910390fd5b6003546040805160c080820183528b8252602082018b90526001600160a01b038a81168385015289811660608401526080830189905260a08301889052925163695ef6f960e01b8152929093169263695ef6f9928e928e9290916004810191829160240190849080838360005b838110156119e45781810151838201526020016119cc565b505050509050018281038252858582818152602001925080828437600081840152601f19601f820116905080830192505050945050505050602060405180830381600087803b158015611a3657600080fd5b505af1158015611a4a573d6000803e3d6000fd5b505050506040513d6020811015611a6057600080fd5b5051611aac576040805162461bcd60e51b815260206004820152601660248201527524b73b30b634b2103bb4ba34323930bb90383937b7b360511b604482015290519081900360640190fd5b6000828152600a602052604081205460ff16600114611acb5786611ae4565b6000838152600b60205260409020546001600160a01b03165b336000908152600d6020526040812054919250906001600160a01b031615611b2457336000908152600d60205260409020546001600160a01b0316611b31565b600e546001600160a01b03165b90506000611b3e846121cc565b905083811115611b7f5760405162461bcd60e51b815260040180806020018281038252602a81526020018061288d602a913960400191505060405180910390fd5b336000908152600d60205260409020546001600160a01b031615611ba35786611ba5565b805b9650611bb3838389876121e8565b600085815260096020526040902054611bd2908563ffffffff611fed16565b600086815260096020526040902055600154611bf4908563ffffffff611fed16565b60015560008581526009602052604090205415611c12576000611c15565b60015b60008b815260076020908152604091829020805460ff19169315159390931790925580516001600160a01b038c811682529281018d90528082018a9052606081018790529051918a16917f6d7aac54bd3d1c91db3b1fd7b8d6cb45324ad6b5e373c0f0ea4d7b2606c4c2c8916080908290030190a2505060016000555050505050505050505050565b60009081526007602052604090205460ff1690565b600060026000541415611cfb576040805162461bcd60e51b815260206004820152601f60248201526000805160206126fd833981519152604482015290519081900360640190fd5b6002600081905550600360009054906101000a90046001600160a01b03166001600160a01b031663695ef6f98d8d6040518060c001604052808f60001c81526020018e60001c81526020018d6001600160a01b031681526020018c6001600160a01b031681526020018b81526020018a8152506040518463ffffffff1660e01b8152600401808060200183600660200280838360005b83811015611da9578181015183820152602001611d91565b505050509050018281038252858582818152602001925080828437600081840152601f19601f820116905080830192505050945050505050602060405180830381600087803b158015611dfb57600080fd5b505af1158015611e0f573d6000803e3d6000fd5b505050506040513d6020811015611e2557600080fd5b5051611e71576040805162461bcd60e51b815260206004820152601660248201527524b73b30b634b2103bb4ba34323930bb90383937b7b360511b604482015290519081900360640190fd5b6040518060e0016040528084848080601f016020809104026020016040519081016040528093929190818152602001838380828437600092018290525093855250506001602080850191909152426040808601919091526001600160a01b03808f1660608701528d1660808601523360a086015260c09094018a90528883526011815292909120835180519193611f0d93508492910190612664565b5060208201516001828101805460ff191660ff909316929092179091556040830151600283015560608301516003830180546001600160a01b03199081166001600160a01b03938416179091556080850151600485018054831691841691909117905560a0850151600585018054909216921691909117905560c09092015160069091015560128054808301825560008281527fbb8a6a4669ba250d26cd7a459eca9d215f8307e33aebe50379bc5a3617ec3444909101969096555494555050506000190198975050505050505050565b6013546001600160a01b031681565b600082821115612044576040805162461bcd60e51b815260206004820152601e60248201527f536166654d6174683a207375627472616374696f6e206f766572666c6f770000604482015290519081900360640190fd5b50900390565b60008481526008602052604090205460ff16156120985760405162461bcd60e51b81526004018080602001828103825260218152602001806128b76021913960400191505060405180910390fd5b60006120a38661220a565b6000858152600860209081526040808320805460ff199081166001908117909255600984528285208b9055600a9093529220805460ff8816921682179055146120ec57336120ee565b825b6000868152600b6020526040902080546001600160a01b0319166001600160a01b03929092169190911790554282106121275781612129565b425b6000868152600c602052604090205560015461214b908763ffffffff61225216565b600155600254612161908763ffffffff61225216565b6002556040805163ffffffff8316815242602082015260ff8616818301526001600160a01b038516606082015260808101849052905186917ff052b28ca720e670068c23c54488dc5b4db3ed42fde7c3fd2d0ea7aee06406eb919081900360a00190a2505050505050565b6000600f546127106010548402816121e057fe5b040192915050565b6121f4848383036122b3565b81156122045761220483836122b3565b50505050565b34156122475760405162461bcd60e51b81526004018080602001828103825260308152602001806128d86030913960400191505060405180910390fd5b610c7333308361247e565b6000828201838110156122ac576040805162461bcd60e51b815260206004820152601b60248201527f536166654d6174683a206164646974696f6e206f766572666c6f770000000000604482015290519081900360640190fd5b9392505050565b601354604080516001600160a01b038581166024830152604480830186905283518084039091018152606490920183526020820180516001600160e01b031663a9059cbb60e01b178152925182516000956060959316939282918083835b602083106123305780518252601f199092019160209182019101612311565b6001836020036101000a0380198251168184511680821785525050505050509050019150506000604051808303816000865af19150503d8060008114612392576040519150601f19603f3d011682016040523d82523d6000602084013e612397565b606091505b5091509150816123e2576040805162461bcd60e51b81526020600482015260116024820152706e6f7420656e6f75676820746f6b656e7360781b604482015290519081900360640190fd5b8051156122045780516020146124295760405162461bcd60e51b815260040180806020018281038252602a815260200180612743602a913960400191505060405180910390fd5b80806020019051602081101561243e57600080fd5b50519150816122045760405162461bcd60e51b815260040180806020018281038252602781526020018061276d6027913960400191505060405180910390fd5b601354604080516001600160a01b0386811660248301528581166044830152606480830186905283518084039091018152608490920183526020820180516001600160e01b03166323b872dd60e01b178152925182516000956060959316939282918083835b602083106125035780518252601f1990920191602091820191016124e4565b6001836020036101000a0380198251168184511680821785525050505050509050019150506000604051808303816000865af19150503d8060008114612565576040519150601f19603f3d011682016040523d82523d6000602084013e61256a565b606091505b5091509150816125c1576040805162461bcd60e51b815260206004820152601960248201527f6e6f7420656e6f75676820616c6c6f77656420746f6b656e7300000000000000604482015290519081900360640190fd5b80511561265d5780516020146126085760405162461bcd60e51b815260040180806020018281038252602a815260200180612743602a913960400191505060405180910390fd5b80806020019051602081101561261d57600080fd5b505191508161265d5760405162461bcd60e51b815260040180806020018281038252602f815260200180612805602f913960400191505060405180910390fd5b5050505050565b828054600181600116156101000203166002900490600052602060002090601f016020900481019282601f106126a557805160ff19168380011785556126d2565b828001600101855582156126d2579182015b828111156126d25782518255916020019190600101906126b7565b506126de9291506126e2565b5090565b61099b91905b808211156126de57600081556001016126e856fe5265656e7472616e637947756172643a207265656e7472616e742063616c6c00546865726520617265206f6e6c79203220636865717565207374617475733a2030206f72203164617461206c656e6774682073686f756c64206265206569746865722030206f722033322062797465736e6f7420656e6f75676820746f6b656e732e20546f6b656e2072657475726e732066616c73652e526563697069656e74206973206e6f7420746865206f726967696e616c20726563697069656e74546865206e657720636f6d6d69746d656e7420686173206265656e207375626d6974746564526566756e6420616d6f756e742073686f756c64206265206d6f7265207468616e206665656e6f7420656e6f75676820616c6c6f77656420746f6b656e732e20546f6b656e2072657475726e732066616c73652e546865206465706f736974206973206c6f636b656420756e74696c207468652065666665637469766554696d654f6e6c7920636f756e63696c206163636f756e742063616e2063616c6c20746869732066756e6374696f6e2e546865206665652063616e206e6f74206265206d6f7265207468616e20726566756e6420616d6f756e7454686520636f6d6d69746d656e7420686173206265656e207375626d69747465644554482076616c756520697320737570706f73656420746f206265203020666f7220455243323020696e7374616e63654f6e6c792072656c617965722063616e2063616c6c20746869732066756e6374696f6e2e4f6e6c79206f70657261746f722063616e2063616c6c20746869732066756e6374696f6e2e53656e646572206973206e6f7420746865206f726967696e616c20726563697069656e74a265627a7a723158203ad12fbf92c8e8752aa88847e2139b155f069a9413fea34ef0216263c773e6b264736f6c6343000511003264656e6f6d696e6174696f6e2073686f756c642062652067726561746572207468616e2030",
  "source": "/**\n *  $$$$$$\\  $$\\                 $$\\                           \n * $$  __$$\\ $$ |                $$ |                          \n * $$ /  \\__|$$$$$$$\\   $$$$$$\\  $$ |  $$\\  $$$$$$\\   $$$$$$\\  \n * \\$$$$$$\\  $$  __$$\\  \\____$$\\ $$ | $$  |$$  __$$\\ $$  __$$\\ \n *  \\____$$\\ $$ |  $$ | $$$$$$$ |$$$$$$  / $$$$$$$$ |$$ |  \\__|\n * $$\\   $$ |$$ |  $$ |$$  __$$ |$$  _$$<  $$   ____|$$ |      \n * \\$$$$$$  |$$ |  $$ |\\$$$$$$$ |$$ | \\$$\\ \\$$$$$$$\\ $$ |      \n *  \\______/ \\__|  \\__| \\_______|\\__|  \\__| \\_______|\\__|\n * $$$$$$$$$$$$$$$$$$$$$$$$$$$$$$$$$$$$$$$$$$$$$$$$$$$$$$$$$$$$\n * ____________________________________________________________\n*/\n\npragma solidity 0.5.17;\n// pragma experimental ABIEncoderV2;\n\nimport \"./ShakerV2.sol\";\n\ncontract ERC20ShakerV2 is ShakerV2 {\n  address public token;\n\n  constructor(\n    IVerifier _verifier,\n    uint256 _denomination,\n    address _operator,\n    address _commonWithdrawAddress,\n    address _token\n  ) ShakerV2(_verifier, _denomination, _operator, _commonWithdrawAddress) public {\n    token = _token;\n  }\n\n  function _processDeposit(uint256 _amount) internal {\n    require(msg.value == 0, \"ETH value is supposed to be 0 for ERC20 instance\");\n    _safeErc20TransferFrom(msg.sender, address(this), _amount);\n  }\n\n  function _processWithdraw(address payable _recipient, address _relayer, uint256 _fee, uint256 _refund) internal {\n    _safeErc20Transfer(_recipient, _refund - _fee);\n    if (_fee > 0) {\n      _safeErc20Transfer(_relayer, _fee);\n    }\n  }\n\n  function _safeErc20TransferFrom(address _from, address _to, uint256 _amount) internal {\n    (bool success, bytes memory data) = token.call(abi.encodeWithSelector(0x23b872dd /* transferFrom */, _from, _to, _amount));\n    require(success, \"not enough allowed tokens\");\n\n    // if contract returns some data lets make sure that is `true` according to standard\n    if (data.length > 0) {\n      require(data.length == 32, \"data length should be either 0 or 32 bytes\");\n      success = abi.decode(data, (bool));\n      require(success, \"not enough allowed tokens. Token returns false.\");\n    }\n  }\n\n  function _safeErc20Transfer(address _to, uint256 _amount) internal {\n    (bool success, bytes memory data) = token.call(abi.encodeWithSelector(0xa9059cbb /* transfer */, _to, _amount));\n    require(success, \"not enough tokens\");\n\n    // if contract returns some data lets make sure that is `true` according to standard\n    if (data.length > 0) {\n      require(data.length == 32, \"data length should be either 0 or 32 bytes\");\n      success = abi.decode(data, (bool));\n      require(success, \"not enough tokens. Token returns false.\");\n    }\n  }\n}\n",
  "sourcePath": "/Users/guqianfeng/web/my_dapps/hunbi/tornado-core/contracts/ERC20ShakerV2.sol",
  "compiler": {
    "name": "solc",
    "version": "0.5.17+commit.d19bba13.Emscripten.clang"
  },
  "schemaVersion": "3.2.4",
  "updatedAt": "2020-09-29T02:53:00.878Z",
  "networkType": "ethereum",
  "devdoc": {
    "methods": {
      "depositERC20Batch(uint256[],bytes32[],uint8,address,uint256)": {
        "details": "Deposit a set of amount and commitments",
        "params": {
          "_amounts": ", array of ERC20 amount",
          "_commitments": ", array of commitments",
          "_effectiveTime": ", effective time of the Withdrawal",
          "_orderStatus": ", status of deposit, 0: cheque for bearer, 1: cheque for order",
          "_recipient": ", recipient address if cheque for order"
        }
      },
      "endorse(bytes,bytes32,bytes32,address,address,uint8,uint256,bytes32,bytes32,uint256)": {
        "details": "this function is for cheque endorsement",
        "params": {
          "_amount": ", endorsed amount, the endorsement amount can be part of balance of old cheque",
          "_effectiveTime": ", new effectiveTime of note",
          "_newCommitment": ", new commitment from frontend",
          "_nullifierHash": ", old nullifierHashe",
          "_oldCommitment": ", old commitment which will be endorsed",
          "_orderStatus": ", old cheque order type, 0- to Bearer cheque, 1- to order cheque",
          "_proof": ", Proof of zkSNARK",
          "_recipient": ", new recipient address, if orderStatus is 0, the _recipient is sender. Otherwise the _recipient is to order",
          "_relayer": ", relayer address",
          "_root": ", root of merkle tree"
        }
      },
      "getRelayerWithdrawAddress()": {
        "details": "get relayer Withdrawal address "
      },
      "isSpent(bytes32)": {
        "details": "whether a note is already spent "
      },
      "isSpentArray(bytes32[])": {
        "details": "whether an array of notes is already spent "
      },
      "lockDeposit(bytes,bytes32,bytes32,address,address,uint256,uint256,bytes32,string)": {
        "details": "lock commitment, this operation can be only called by note holder "
      },
      "setCouncial(address)": {
        "details": "set council address "
      },
      "unlockDeposit(uint256)": {
        "details": "unlock commitment by council "
      },
      "updateCommonFee(uint256,uint256)": {
        "details": "set common fee and fee rate "
      },
      "updateCommonWithdrawAddress(address)": {
        "details": "update commonWithdrawAddress "
      },
      "updateOperator(address)": {
        "details": "operator can change his address "
      },
      "updateRelayer(address,address)": {
        "details": "update authority relayer "
      },
      "updateVerifier(address)": {
        "details": "allow operator to update SNARK verification keys. This is needed to update keys after the final trusted setup ceremony is held. After that operator rights are supposed to be transferred to zero address"
      },
      "withdraw(bytes,bytes32,bytes32,address,address,uint256,uint256,bytes32)": {
        "details": "Withdraw a deposit from the contract. `proof` is a zkSNARK proof data, and input is an array of circuit public inputs `input` array consists of: - merkle root of all deposits in the contract - hash of unique deposit nullifier to prevent double spends - the recipient of funds - optional fee that goes to the transaction sender (usually a relay)",
        "params": {
          "_fee": ", relayer decide the fee amount"
        }
      }
    }
  },
  "userdoc": {
    "methods": {}
  }
}