{
  "contractName": "ERC20Shaker",
  "abi": [
    {
      "inputs": [
        {
          "internalType": "contract IVerifier",
          "name": "_verifier",
          "type": "address"
        },
        {
          "internalType": "uint256",
          "name": "_denomination",
          "type": "uint256"
        },
        {
          "internalType": "uint32",
          "name": "_merkleTreeHeight",
          "type": "uint32"
        },
        {
          "internalType": "address",
          "name": "_operator",
          "type": "address"
        },
        {
          "internalType": "address",
          "name": "_feeAddress",
          "type": "address"
        },
        {
          "internalType": "address",
          "name": "_token",
          "type": "address"
        }
      ],
      "payable": false,
      "stateMutability": "nonpayable",
      "type": "constructor"
    },
    {
      "anonymous": false,
      "inputs": [
        {
          "indexed": true,
          "internalType": "bytes32",
          "name": "commitment",
          "type": "bytes32"
        },
        {
          "indexed": false,
          "internalType": "uint32",
          "name": "leafIndex",
          "type": "uint32"
        },
        {
          "indexed": false,
          "internalType": "uint256",
          "name": "timestamp",
          "type": "uint256"
        },
        {
          "indexed": false,
          "internalType": "uint8",
          "name": "orderStatus",
          "type": "uint8"
        },
        {
          "indexed": false,
          "internalType": "address",
          "name": "recipient",
          "type": "address"
        },
        {
          "indexed": false,
          "internalType": "uint256",
          "name": "effectiveTime",
          "type": "uint256"
        }
      ],
      "name": "Deposit",
      "type": "event"
    },
    {
      "anonymous": false,
      "inputs": [
        {
          "indexed": false,
          "internalType": "address",
          "name": "to",
          "type": "address"
        },
        {
          "indexed": false,
          "internalType": "bytes32",
          "name": "nullifierHash",
          "type": "bytes32"
        },
        {
          "indexed": true,
          "internalType": "address",
          "name": "relayer",
          "type": "address"
        },
        {
          "indexed": false,
          "internalType": "uint256",
          "name": "fee",
          "type": "uint256"
        },
        {
          "indexed": false,
          "internalType": "uint256",
          "name": "amount",
          "type": "uint256"
        }
      ],
      "name": "Withdrawal",
      "type": "event"
    },
    {
      "constant": true,
      "inputs": [],
      "name": "FIELD_SIZE",
      "outputs": [
        {
          "internalType": "uint256",
          "name": "",
          "type": "uint256"
        }
      ],
      "payable": false,
      "stateMutability": "view",
      "type": "function"
    },
    {
      "constant": true,
      "inputs": [],
      "name": "ROOT_HISTORY_SIZE",
      "outputs": [
        {
          "internalType": "uint32",
          "name": "",
          "type": "uint32"
        }
      ],
      "payable": false,
      "stateMutability": "view",
      "type": "function"
    },
    {
      "constant": true,
      "inputs": [],
      "name": "ZERO_VALUE",
      "outputs": [
        {
          "internalType": "uint256",
          "name": "",
          "type": "uint256"
        }
      ],
      "payable": false,
      "stateMutability": "view",
      "type": "function"
    },
    {
      "constant": false,
      "inputs": [
        {
          "internalType": "address",
          "name": "_feeAddress",
          "type": "address"
        }
      ],
      "name": "changeFeeAddress",
      "outputs": [],
      "payable": false,
      "stateMutability": "nonpayable",
      "type": "function"
    },
    {
      "constant": false,
      "inputs": [
        {
          "internalType": "address",
          "name": "_newOperator",
          "type": "address"
        }
      ],
      "name": "changeOperator",
      "outputs": [],
      "payable": false,
      "stateMutability": "nonpayable",
      "type": "function"
    },
    {
      "constant": true,
      "inputs": [],
      "name": "currentRootIndex",
      "outputs": [
        {
          "internalType": "uint32",
          "name": "",
          "type": "uint32"
        }
      ],
      "payable": false,
      "stateMutability": "view",
      "type": "function"
    },
    {
      "constant": true,
      "inputs": [],
      "name": "denomination",
      "outputs": [
        {
          "internalType": "uint256",
          "name": "",
          "type": "uint256"
        }
      ],
      "payable": false,
      "stateMutability": "view",
      "type": "function"
    },
    {
      "constant": false,
      "inputs": [
        {
          "internalType": "uint256[]",
          "name": "_amounts",
          "type": "uint256[]"
        },
        {
          "internalType": "bytes32[]",
          "name": "_commitments",
          "type": "bytes32[]"
        },
        {
          "internalType": "uint8",
          "name": "_orderStatus",
          "type": "uint8"
        },
        {
          "internalType": "address payable",
          "name": "_recipient",
          "type": "address"
        },
        {
          "internalType": "uint256",
          "name": "_effectiveTime",
          "type": "uint256"
        }
      ],
      "name": "depositERC20Batch",
      "outputs": [],
      "payable": true,
      "stateMutability": "payable",
      "type": "function"
    },
    {
      "constant": false,
      "inputs": [
        {
          "internalType": "bytes",
          "name": "_proof",
          "type": "bytes"
        },
        {
          "internalType": "bytes32",
          "name": "_root",
          "type": "bytes32"
        },
        {
          "internalType": "bytes32",
          "name": "_nullifierHash",
          "type": "bytes32"
        },
        {
          "internalType": "address payable",
          "name": "_recipient",
          "type": "address"
        },
        {
          "internalType": "address payable",
          "name": "_relayer",
          "type": "address"
        },
        {
          "internalType": "uint8",
          "name": "_orderStatus",
          "type": "uint8"
        },
        {
          "internalType": "uint256",
          "name": "_amount",
          "type": "uint256"
        },
        {
          "internalType": "bytes32",
          "name": "_oldCommitment",
          "type": "bytes32"
        },
        {
          "internalType": "bytes32",
          "name": "_newCommitment",
          "type": "bytes32"
        },
        {
          "internalType": "uint256",
          "name": "_effectiveTime",
          "type": "uint256"
        }
      ],
      "name": "endorse",
      "outputs": [],
      "payable": true,
      "stateMutability": "payable",
      "type": "function"
    },
    {
      "constant": true,
      "inputs": [
        {
          "internalType": "uint256",
          "name": "",
          "type": "uint256"
        }
      ],
      "name": "filledSubtrees",
      "outputs": [
        {
          "internalType": "bytes32",
          "name": "",
          "type": "bytes32"
        }
      ],
      "payable": false,
      "stateMutability": "view",
      "type": "function"
    },
    {
      "constant": true,
      "inputs": [],
      "name": "getLastRoot",
      "outputs": [
        {
          "internalType": "bytes32",
          "name": "",
          "type": "bytes32"
        }
      ],
      "payable": false,
      "stateMutability": "view",
      "type": "function"
    },
    {
      "constant": true,
      "inputs": [
        {
          "internalType": "bytes32",
          "name": "_left",
          "type": "bytes32"
        },
        {
          "internalType": "bytes32",
          "name": "_right",
          "type": "bytes32"
        }
      ],
      "name": "hashLeftRight",
      "outputs": [
        {
          "internalType": "bytes32",
          "name": "",
          "type": "bytes32"
        }
      ],
      "payable": false,
      "stateMutability": "pure",
      "type": "function"
    },
    {
      "constant": true,
      "inputs": [
        {
          "internalType": "bytes32",
          "name": "_root",
          "type": "bytes32"
        }
      ],
      "name": "isKnownRoot",
      "outputs": [
        {
          "internalType": "bool",
          "name": "",
          "type": "bool"
        }
      ],
      "payable": false,
      "stateMutability": "view",
      "type": "function"
    },
    {
      "constant": true,
      "inputs": [
        {
          "internalType": "bytes32",
          "name": "_nullifierHash",
          "type": "bytes32"
        }
      ],
      "name": "isSpent",
      "outputs": [
        {
          "internalType": "bool",
          "name": "",
          "type": "bool"
        }
      ],
      "payable": false,
      "stateMutability": "view",
      "type": "function"
    },
    {
      "constant": true,
      "inputs": [
        {
          "internalType": "bytes32[]",
          "name": "_nullifierHashes",
          "type": "bytes32[]"
        }
      ],
      "name": "isSpentArray",
      "outputs": [
        {
          "internalType": "bool[]",
          "name": "spent",
          "type": "bool[]"
        }
      ],
      "payable": false,
      "stateMutability": "view",
      "type": "function"
    },
    {
      "constant": true,
      "inputs": [],
      "name": "levels",
      "outputs": [
        {
          "internalType": "uint32",
          "name": "",
          "type": "uint32"
        }
      ],
      "payable": false,
      "stateMutability": "view",
      "type": "function"
    },
    {
      "constant": true,
      "inputs": [],
      "name": "nextIndex",
      "outputs": [
        {
          "internalType": "uint32",
          "name": "",
          "type": "uint32"
        }
      ],
      "payable": false,
      "stateMutability": "view",
      "type": "function"
    },
    {
      "constant": true,
      "inputs": [],
      "name": "operator",
      "outputs": [
        {
          "internalType": "address",
          "name": "",
          "type": "address"
        }
      ],
      "payable": false,
      "stateMutability": "view",
      "type": "function"
    },
    {
      "constant": true,
      "inputs": [
        {
          "internalType": "uint256",
          "name": "",
          "type": "uint256"
        }
      ],
      "name": "roots",
      "outputs": [
        {
          "internalType": "bytes32",
          "name": "",
          "type": "bytes32"
        }
      ],
      "payable": false,
      "stateMutability": "view",
      "type": "function"
    },
    {
      "constant": true,
      "inputs": [],
      "name": "token",
      "outputs": [
        {
          "internalType": "address",
          "name": "",
          "type": "address"
        }
      ],
      "payable": false,
      "stateMutability": "view",
      "type": "function"
    },
    {
      "constant": true,
      "inputs": [],
      "name": "totalAmount",
      "outputs": [
        {
          "internalType": "uint256",
          "name": "",
          "type": "uint256"
        }
      ],
      "payable": false,
      "stateMutability": "view",
      "type": "function"
    },
    {
      "constant": true,
      "inputs": [],
      "name": "totalBalance",
      "outputs": [
        {
          "internalType": "uint256",
          "name": "",
          "type": "uint256"
        }
      ],
      "payable": false,
      "stateMutability": "view",
      "type": "function"
    },
    {
      "constant": false,
      "inputs": [
        {
          "internalType": "address",
          "name": "_newVerifier",
          "type": "address"
        }
      ],
      "name": "updateVerifier",
      "outputs": [],
      "payable": false,
      "stateMutability": "nonpayable",
      "type": "function"
    },
    {
      "constant": true,
      "inputs": [],
      "name": "verifier",
      "outputs": [
        {
          "internalType": "contract IVerifier",
          "name": "",
          "type": "address"
        }
      ],
      "payable": false,
      "stateMutability": "view",
      "type": "function"
    },
    {
      "constant": false,
      "inputs": [
        {
          "internalType": "bytes",
          "name": "_proof",
          "type": "bytes"
        },
        {
          "internalType": "bytes32",
          "name": "_root",
          "type": "bytes32"
        },
        {
          "internalType": "bytes32",
          "name": "_nullifierHash",
          "type": "bytes32"
        },
        {
          "internalType": "address payable",
          "name": "_recipient",
          "type": "address"
        },
        {
          "internalType": "address payable",
          "name": "_relayer",
          "type": "address"
        },
        {
          "internalType": "uint256",
          "name": "_fee",
          "type": "uint256"
        },
        {
          "internalType": "uint256",
          "name": "_refund",
          "type": "uint256"
        },
        {
          "internalType": "bytes32",
          "name": "_commitment",
          "type": "bytes32"
        }
      ],
      "name": "withdraw",
      "outputs": [],
      "payable": true,
      "stateMutability": "payable",
      "type": "function"
    },
    {
      "constant": true,
      "inputs": [
        {
          "internalType": "uint256",
          "name": "",
          "type": "uint256"
        }
      ],
      "name": "zeros",
      "outputs": [
        {
          "internalType": "bytes32",
          "name": "",
          "type": "bytes32"
        }
      ],
      "payable": false,
      "stateMutability": "view",
      "type": "function"
    }
  ],
  "bytecode": "0x6080604052600380546001600160401b031916905560006069819055606a553480156200002b57600080fd5b5060405162002a3538038062002a35833981810160405260c08110156200005157600080fd5b508051602082015160408301516060840151608085015160a090950151939492939192909185858585858263ffffffff8116620000c05760405162461bcd60e51b8152600401808060200182810382526027815260200180620029ac6027913960400191505060405180910390fd5b60208163ffffffff1610620001075760405162461bcd60e51b8152600401808060200182810382526022815260200180620029f36022913960400191505060405180910390fd5b6000805463ffffffff191663ffffffff83161781556002805460018181019092557f2fe54c60d3acabf3343a35b6eba15db4821b340f76e741e2249685ed4899af6c6000805160206200296b833981519152909101819055815480830183559282905260008051602062002a158339815191529092018290555b60005463ffffffff9081169082161015620001f557620001ab82806001600160e01b03620002b616565b6002805460018181019092556000805160206200296b8339815191520182905580548082018255600082905260008051602062002a15833981519152018290559092500162000181565b506200020b81806001600160e01b03620002b616565b6004555050600160685583620002535760405162461bcd60e51b8152600401808060200182810382526025815260200180620029466025913960400191505060405180910390fd5b606b80546001600160a01b03199081166001600160a01b0397881617909155606c8054821693871693909317909255606e93909355606d805482169385169390931790925550607580549091169290911691909117905550620004a39350505050565b6000600080516020620029d383398151915283106200031c576040805162461bcd60e51b815260206004820181905260248201527f5f6c6566742073686f756c6420626520696e7369646520746865206669656c64604482015290519081900360640190fd5b600080516020620029d383398151915282106200036b5760405162461bcd60e51b81526004018080602001828103825260218152602001806200298b6021913960400191505060405180910390fd5b6040805163f47d33b560e01b81526004810185905260006024820181905282518693919273__Hasher________________________________9263f47d33b592604480840193829003018186803b158015620003c657600080fd5b505af4158015620003db573d6000803e3d6000fd5b505050506040513d6040811015620003f257600080fd5b5080516020909101519092509050600080516020620029d3833981519152848308915073__Hasher________________________________63f47d33b583836040518363ffffffff1660e01b81526004018083815260200182815260200192505050604080518083038186803b1580156200046c57600080fd5b505af415801562000481573d6000803e3d6000fd5b505050506040513d60408110156200049857600080fd5b505195945050505050565b61249380620004b36000396000f3fe6080604052600436106101815760003560e01c80639fa12d0b116100d1578063da9080391161008a578063ec73295911610064578063ec73295914610717578063f178e47c1461072c578063fc0c546a14610756578063fc7e9c6f1461076b57610181565b8063da90803914610623578063e5285dcc146106c3578063e8295588146106ed57610181565b80639fa12d0b14610419578063a8be3cd6146104e4578063ad7a672f146105ba578063ba70f757146105cf578063c2b40ae4146105e4578063cd87a3b41461060e57610181565b80634ecf518b1161013e578063827a260011610118578063827a26001461030c5780638bca6d16146103bc57806390eeb02b146103d157806397fc007c146103e657610181565b80634ecf518b1461028b578063570ca735146102b95780636d9833e3146102ce57610181565b806306394c9b146101865780631a39d8ef146101bb578063285e1406146101e25780632b7ac3f31461021557806338bf282e14610246578063414a37ba14610276575b600080fd5b34801561019257600080fd5b506101b9600480360360208110156101a957600080fd5b50356001600160a01b0316610780565b005b3480156101c757600080fd5b506101d06107eb565b60408051918252519081900360200190f35b3480156101ee57600080fd5b506101b96004803603602081101561020557600080fd5b50356001600160a01b03166107f1565b34801561022157600080fd5b5061022a61085c565b604080516001600160a01b039092168252519081900360200190f35b34801561025257600080fd5b506101d06004803603604081101561026957600080fd5b508035906020013561086b565b34801561028257600080fd5b506101d0610a4c565b34801561029757600080fd5b506102a0610a5e565b6040805163ffffffff9092168252519081900360200190f35b3480156102c557600080fd5b5061022a610a6a565b3480156102da57600080fd5b506102f8600480360360208110156102f157600080fd5b5035610a79565b604080519115158252519081900360200190f35b6101b9600480360361014081101561032357600080fd5b810190602081018135600160201b81111561033d57600080fd5b82018360208201111561034f57600080fd5b803590602001918460018302840111600160201b8311171561037057600080fd5b91935091508035906020810135906001600160a01b03604082013581169160608101359091169060ff6080820135169060a08101359060c08101359060e0810135906101000135610aec565b3480156103c857600080fd5b506101d0611193565b3480156103dd57600080fd5b506102a0611199565b3480156103f257600080fd5b506101b96004803603602081101561040957600080fd5b50356001600160a01b03166111a5565b34801561042557600080fd5b506104946004803603602081101561043c57600080fd5b810190602081018135600160201b81111561045657600080fd5b82018360208201111561046857600080fd5b803590602001918460208302840111600160201b8311171561048957600080fd5b509092509050611210565b60408051602080825283518183015283519192839290830191858101910280838360005b838110156104d05781810151838201526020016104b8565b505050509050019250505060405180910390f35b6101b9600480360360a08110156104fa57600080fd5b810190602081018135600160201b81111561051457600080fd5b82018360208201111561052657600080fd5b803590602001918460208302840111600160201b8311171561054757600080fd5b919390929091602081019035600160201b81111561056457600080fd5b82018360208201111561057657600080fd5b803590602001918460208302840111600160201b8311171561059757600080fd5b919350915060ff813516906001600160a01b036020820135169060400135611298565b3480156105c657600080fd5b506101d06113a9565b3480156105db57600080fd5b506101d06113af565b3480156105f057600080fd5b506101d06004803603602081101561060757600080fd5b50356113cf565b34801561061a57600080fd5b506102a06113e3565b6101b9600480360361010081101561063a57600080fd5b810190602081018135600160201b81111561065457600080fd5b82018360208201111561066657600080fd5b803590602001918460018302840111600160201b8311171561068757600080fd5b91935091508035906020810135906001600160a01b03604082013581169160608101359091169060808101359060a08101359060c001356113e8565b3480156106cf57600080fd5b506102f8600480360360208110156106e657600080fd5b503561198a565b3480156106f957600080fd5b506101d06004803603602081101561071057600080fd5b503561199f565b34801561072357600080fd5b506101d06119bd565b34801561073857600080fd5b506101d06004803603602081101561074f57600080fd5b50356119e1565b34801561076257600080fd5b5061022a6119ee565b34801561077757600080fd5b506102a06119fd565b606c546001600160a01b031633146107c95760405162461bcd60e51b81526004018080602001828103825260258152602001806124166025913960400191505060405180910390fd5b606c80546001600160a01b0319166001600160a01b0392909216919091179055565b60695481565b606c546001600160a01b0316331461083a5760405162461bcd60e51b81526004018080602001828103825260258152602001806124166025913960400191505060405180910390fd5b606d80546001600160a01b0319166001600160a01b0392909216919091179055565b606b546001600160a01b031681565b60006000805160206123a583398151915283106108cf576040805162461bcd60e51b815260206004820181905260248201527f5f6c6566742073686f756c6420626520696e7369646520746865206669656c64604482015290519081900360640190fd5b6000805160206123a5833981519152821061091b5760405162461bcd60e51b81526004018080602001828103825260218152602001806123286021913960400191505060405180910390fd5b6040805163f47d33b560e01b81526004810185905260006024820181905282518693919273__Hasher________________________________9263f47d33b592604480840193829003018186803b15801561097557600080fd5b505af4158015610989573d6000803e3d6000fd5b505050506040513d604081101561099f57600080fd5b50805160209091015190925090506000805160206123a5833981519152848308915073__Hasher________________________________63f47d33b583836040518363ffffffff1660e01b81526004018083815260200182815260200192505050604080518083038186803b158015610a1757600080fd5b505af4158015610a2b573d6000803e3d6000fd5b505050506040513d6040811015610a4157600080fd5b505195945050505050565b6000805160206123a583398151915281565b60005463ffffffff1681565b606c546001600160a01b031681565b600081610a8857506000610ae7565b60035463ffffffff165b60048163ffffffff1660648110610aa557fe5b0154831415610ab8576001915050610ae7565b63ffffffff8116610ac7575060645b6003546000199091019063ffffffff80831691161415610a925760009150505b919050565b60026068541415610b44576040805162461bcd60e51b815260206004820152601f60248201527f5265656e7472616e637947756172643a207265656e7472616e742063616c6c00604482015290519081900360640190fd5b600260685560008381526070602052604090205460ff16610bac576040805162461bcd60e51b815260206004820152601b60248201527f4f6c6420636f6d6d69746d656e742063616e206e6f742066696e640000000000604482015290519081900360640190fd5b60008281526070602052604090205460ff1615610bfa5760405162461bcd60e51b81526004018080602001828103825260258152602001806122de6025913960400191505060405180910390fd5b6000888152606f602052604090205460ff1615610c5e576040805162461bcd60e51b815260206004820152601f60248201527f546865206e6f746520686173206265656e20616c7265616479207370656e7400604482015290519081900360640190fd5b610c6789610a79565b610cb8576040805162461bcd60e51b815260206004820152601c60248201527f43616e6e6f742066696e6420796f7572206d65726b6c6520726f6f7400000000604482015290519081900360640190fd5b600083815260716020526040902054610d18576040805162461bcd60e51b815260206004820152601f60248201527f4e6f2062616c616e636520616d6f756e74206f6620746869732070726f6f6600604482015290519081900360640190fd5b6000838152607160205260408120548510610d4157600084815260716020526040902054610d43565b845b905060008111610d9a576040805162461bcd60e51b815260206004820152601d60248201527f526566756e6420616d6f756e742063616e206e6f74206265207a65726f000000604482015290519081900360640190fd5b60008481526072602052604090205460ff166001148015610dd157506000848152607360205260409020546001600160a01b031633145b80610deb575060008481526072602052604090205460ff16155b610e265760405162461bcd60e51b815260040180806020018281038252602481526020018061243b6024913960400191505060405180910390fd5b606b60009054906101000a90046001600160a01b03166001600160a01b031663695ef6f98d8d6040518060c001604052808f60001c81526020018e60001c81526020018d6001600160a01b031681526020018c6001600160a01b031681526020018b60ff1681526020018a8152506040518463ffffffff1660e01b8152600401808060200183600660200280838360005b83811015610ecf578181015183820152602001610eb7565b505050509050018281038252858582818152602001925080828437600081840152601f19601f820116905080830192505050945050505050602060405180830381600087803b158015610f2157600080fd5b505af1158015610f35573d6000803e3d6000fd5b505050506040513d6020811015610f4b57600080fd5b5051610f9e576040805162461bcd60e51b815260206004820152601960248201527f496e76616c696420656e646f7273656d656e742070726f6f6600000000000000604482015290519081900360640190fd5b6000610fa984611a10565b9050600083118015610fc957506000858152607460205260409020544210155b15610fe4576000848152607460205260409020839055610ffb565b600085815260746020526040808220548683529120555b6000848152607060209081526040808320805460ff199081166001908117909255607184528285208b905560729093529220805460ff8b16921682179055146110445733611046565b885b600085815260736020908152604080832080546001600160a01b0319166001600160a01b0395909516949094179093558782526071905220546110899083611ba7565b6000868152607160205260409020819055156110a65760006110a9565b60015b60008b8152606f6020908152604091829020805493151560ff1990941693909317909255805163ffffffff84168152429281019290925260ff8916828201526001600160a01b038b166060830152608082018590525185917ff052b28ca720e670068c23c54488dc5b4db3ed42fde7c3fd2d0ea7aee06406eb919081900360a00190a2604080516000808252602082018d9052818301526060810184905290516001600160a01b038a16917f6d7aac54bd3d1c91db3b1fd7b8d6cb45324ad6b5e373c0f0ea4d7b2606c4c2c8919081900360800190a2505060016068555050505050505050505050565b606e5481565b60035463ffffffff1681565b606c546001600160a01b031633146111ee5760405162461bcd60e51b81526004018080602001828103825260258152602001806124166025913960400191505060405180910390fd5b606b80546001600160a01b0319166001600160a01b0392909216919091179055565b60408051828152602080840282010190915260609082801561123c578160200160208202803883390190505b50905060005b828110156112915761126584848381811061125957fe5b9050602002013561198a565b1561128957600182828151811061127857fe5b911515602092830291909101909101525b600101611242565b5092915050565b600260685414156112f0576040805162461bcd60e51b815260206004820152601f60248201527f5265656e7472616e637947756172643a207265656e7472616e742063616c6c00604482015290519081900360640190fd5b600260685560ff8316158061130857508260ff166001145b6113435760405162461bcd60e51b81526004018080602001828103825260268152602001806122116026913960400191505060405180910390fd5b6001600160a01b03821661135657600080fd5b60005b8681101561139a5761139288888381811061137057fe5b9050602002013587878481811061138357fe5b90506020020135868686611c04565b600101611359565b50506001606855505050505050565b606a5481565b60035460009060049063ffffffff16606481106113c857fe5b0154905090565b600481606481106113dc57fe5b0154905081565b606481565b60026068541415611440576040805162461bcd60e51b815260206004820152601f60248201527f5265656e7472616e637947756172643a207265656e7472616e742063616c6c00604482015290519081900360640190fd5b60026068556000868152606f602052604090205460ff16156114a9576040805162461bcd60e51b815260206004820152601f60248201527f546865206e6f746520686173206265656e20616c7265616479207370656e7400604482015290519081900360640190fd5b6114b287610a79565b611503576040805162461bcd60e51b815260206004820152601c60248201527f43616e6e6f742066696e6420796f7572206d65726b6c6520726f6f7400000000604482015290519081900360640190fd5b60008181526072602052604090205460ff16600114801561153d57506000818152607360205260409020546001600160a01b038681169116145b80611557575060008181526072602052604090205460ff16155b6115925760405162461bcd60e51b81526004018080602001828103825260278152602001806122b76027913960400191505060405180910390fd5b6000818152607160205260409020546115f2576040805162461bcd60e51b815260206004820152601f60248201527f4e6f2062616c616e636520616d6f756e74206f6620746869732070726f6f6600604482015290519081900360640190fd5b600081815260716020526040812054831061161b5760008281526071602052604090205461161d565b825b905060008111611674576040805162461bcd60e51b815260206004820152601d60248201527f526566756e6420616d6f756e742063616e206e6f74206265207a65726f000000604482015290519081900360640190fd5b6000828152607460205260409020544210156116c15760405162461bcd60e51b815260040180806020018281038252602d815260200180612378602d913960400191505060405180910390fd5b838110156117005760405162461bcd60e51b81526004018080602001828103825260258152602001806123036025913960400191505060405180910390fd5b606b546040805160c080820183528b8252602082018b90526001600160a01b038a81168385015289811660608401526080830189905260a08301889052925163695ef6f960e01b8152929093169263695ef6f9928e928e9290916004810191829160240190849080838360005b8381101561178557818101518382015260200161176d565b505050509050018281038252858582818152602001925080828437600081840152601f19601f820116905080830192505050945050505050602060405180830381600087803b1580156117d757600080fd5b505af11580156117eb573d6000803e3d6000fd5b505050506040513d602081101561180157600080fd5b505161184d576040805162461bcd60e51b815260206004820152601660248201527524b73b30b634b2103bb4ba34323930bb90383937b7b360511b604482015290519081900360640190fd5b60008281526072602052604081205460ff1660011461186c5786611885565b6000838152607360205260409020546001600160a01b03165b606d549091506118a19082906001600160a01b03168785611d91565b6000838152607160205260409020546118c0908363ffffffff611ba716565b6000848152607160205260409020556069546118e2908363ffffffff611ba716565b60695560008381526071602052604090205415611900576000611903565b60015b6000898152606f6020908152604091829020805460ff19169315159390931790925580516001600160a01b038a811682529281018b9052808201889052606081018590529051918816917f6d7aac54bd3d1c91db3b1fd7b8d6cb45324ad6b5e373c0f0ea4d7b2606c4c2c8916080908290030190a250506001606855505050505050505050565b6000908152606f602052604090205460ff1690565b600281815481106119ac57fe5b600091825260209091200154905081565b7f2fe54c60d3acabf3343a35b6eba15db4821b340f76e741e2249685ed4899af6c81565b600181815481106119ac57fe5b6075546001600160a01b031681565b600354600160201b900463ffffffff1681565b60035460008054909163ffffffff600160201b909104811691811660020a16811415611a6d5760405162461bcd60e51b815260040180806020018281038252602f815260200180612237602f913960400191505060405180910390fd5b6003805463ffffffff600160201b80830482166001019091160267ffffffff000000001990911617905582600080805b60005463ffffffff9081169082161015611b455760018516611b015783925060028163ffffffff1681548110611acf57fe5b906000526020600020015491508360018263ffffffff1681548110611af057fe5b600091825260209091200155611b25565b60018163ffffffff1681548110611b1457fe5b906000526020600020015492508391505b611b2f838361086b565b9350600263ffffffff8616049450600101611a9d565b5060035460649063ffffffff908116600101166003805463ffffffff19169290910663ffffffff908116929092179081905584916004911660648110611b8757fe5b01555050600354600160201b900463ffffffff1660001901949350505050565b600082821115611bfe576040805162461bcd60e51b815260206004820152601e60248201527f536166654d6174683a207375627472616374696f6e206f766572666c6f770000604482015290519081900360640190fd5b50900390565b60008481526070602052604090205460ff1615611c525760405162461bcd60e51b81526004018080602001828103825260218152602001806123c56021913960400191505060405180910390fd5b6000611c5d85611a10565b9050611c6886611db3565b6000858152607060209081526040808320805460ff199081166001908117909255607184528285208b905560729093529220805460ff881692168217905514611cb15733611cb3565b825b600086815260736020526040902080546001600160a01b0319166001600160a01b0392909216919091179055428210611cec5781611cee565b425b600086815260746020526040902055606954611d10908763ffffffff611dfe16565b606955606a54611d26908763ffffffff611dfe16565b606a556040805163ffffffff8316815242602082015260ff8616818301526001600160a01b038516606082015260808101849052905186917ff052b28ca720e670068c23c54488dc5b4db3ed42fde7c3fd2d0ea7aee06406eb919081900360a00190a2505050505050565b611d9d84838303611e5f565b8115611dad57611dad8383611e5f565b50505050565b3415611df05760405162461bcd60e51b81526004018080602001828103825260308152602001806123e66030913960400191505060405180910390fd5b611dfb33308361202a565b50565b600082820183811015611e58576040805162461bcd60e51b815260206004820152601b60248201527f536166654d6174683a206164646974696f6e206f766572666c6f770000000000604482015290519081900360640190fd5b9392505050565b607554604080516001600160a01b038581166024830152604480830186905283518084039091018152606490920183526020820180516001600160e01b031663a9059cbb60e01b178152925182516000956060959316939282918083835b60208310611edc5780518252601f199092019160209182019101611ebd565b6001836020036101000a0380198251168184511680821785525050505050509050019150506000604051808303816000865af19150503d8060008114611f3e576040519150601f19603f3d011682016040523d82523d6000602084013e611f43565b606091505b509150915081611f8e576040805162461bcd60e51b81526020600482015260116024820152706e6f7420656e6f75676820746f6b656e7360781b604482015290519081900360640190fd5b805115611dad578051602014611fd55760405162461bcd60e51b815260040180806020018281038252602a815260200180612266602a913960400191505060405180910390fd5b808060200190516020811015611fea57600080fd5b5051915081611dad5760405162461bcd60e51b81526004018080602001828103825260278152602001806122906027913960400191505060405180910390fd5b607554604080516001600160a01b0386811660248301528581166044830152606480830186905283518084039091018152608490920183526020820180516001600160e01b03166323b872dd60e01b178152925182516000956060959316939282918083835b602083106120af5780518252601f199092019160209182019101612090565b6001836020036101000a0380198251168184511680821785525050505050509050019150506000604051808303816000865af19150503d8060008114612111576040519150601f19603f3d011682016040523d82523d6000602084013e612116565b606091505b50915091508161216d576040805162461bcd60e51b815260206004820152601960248201527f6e6f7420656e6f75676820616c6c6f77656420746f6b656e7300000000000000604482015290519081900360640190fd5b8051156122095780516020146121b45760405162461bcd60e51b815260040180806020018281038252602a815260200180612266602a913960400191505060405180910390fd5b8080602001905160208110156121c957600080fd5b50519150816122095760405162461bcd60e51b815260040180806020018281038252602f815260200180612349602f913960400191505060405180910390fd5b505050505056fe546865726520617265206f6e6c79203220636865717565207374617475733a2030206f7220314d65726b6c6520747265652069732066756c6c2e204e6f206d6f7265206c656166732063616e20626520616464656464617461206c656e6774682073686f756c64206265206569746865722030206f722033322062797465736e6f7420656e6f75676820746f6b656e732e20546f6b656e2072657475726e732066616c73652e526563697069656e74206973206e6f7420746865206f726967696e616c20726563697069656e74546865206e657720636f6d6d69746d656e7420686173206265656e207375626d6974746564526566756e6420616d6f756e742073686f756c64206265206d6f7265207468616e206665655f72696768742073686f756c6420626520696e7369646520746865206669656c646e6f7420656e6f75676820616c6c6f77656420746f6b656e732e20546f6b656e2072657475726e732066616c73652e546865206465706f736974206973206c6f636b656420756e74696c207468652065666665637469766554696d6530644e72e131a029b85045b68181585d2833e84879b9709143e1f593f000000154686520636f6d6d69746d656e7420686173206265656e207375626d69747465644554482076616c756520697320737570706f73656420746f206265203020666f7220455243323020696e7374616e63654f6e6c79206f70657261746f722063616e2063616c6c20746869732066756e6374696f6e2e53656e646572206973206e6f7420746865206f726967696e616c20726563697069656e74a265627a7a7231582073aaebdcffd53cc5de5656edc2bce558b5136c08cf50c553b5efd1ff2f5c2f3a64736f6c6343000511003264656e6f6d696e6174696f6e2073686f756c642062652067726561746572207468616e2030405787fa12a823e0f2b7631cc41b3ba8828b3321ca811111fa75cd3aa3bb5ace5f72696768742073686f756c6420626520696e7369646520746865206669656c645f747265654c6576656c732073686f756c642062652067726561746572207468616e207a65726f30644e72e131a029b85045b68181585d2833e84879b9709143e1f593f00000015f747265654c6576656c732073686f756c64206265206c657373207468616e203332b10e2d527612073b26eecdfd717e6a320cf44b4afac2b0732d9fcbe2b7fa0cf6",
  "source": "/**\n *  $$$$$$\\  $$\\                 $$\\                           \n * $$  __$$\\ $$ |                $$ |                          \n * $$ /  \\__|$$$$$$$\\   $$$$$$\\  $$ |  $$\\  $$$$$$\\   $$$$$$\\  \n * \\$$$$$$\\  $$  __$$\\  \\____$$\\ $$ | $$  |$$  __$$\\ $$  __$$\\ \n *  \\____$$\\ $$ |  $$ | $$$$$$$ |$$$$$$  / $$$$$$$$ |$$ |  \\__|\n * $$\\   $$ |$$ |  $$ |$$  __$$ |$$  _$$<  $$   ____|$$ |      \n * \\$$$$$$  |$$ |  $$ |\\$$$$$$$ |$$ | \\$$\\ \\$$$$$$$\\ $$ |      \n *  \\______/ \\__|  \\__| \\_______|\\__|  \\__| \\_______|\\__|\n * $$$$$$$$$$$$$$$$$$$$$$$$$$$$$$$$$$$$$$$$$$$$$$$$$$$$$$$$$$$$\n * ____________________________________________________________\n*/\n\npragma solidity 0.5.17;\n// pragma experimental ABIEncoderV2;\n\nimport \"./Shaker.sol\";\n\ncontract ERC20Shaker is Shaker {\n  address public token;\n\n  constructor(\n    IVerifier _verifier,\n    uint256 _denomination,\n    uint32 _merkleTreeHeight,\n    address _operator,\n    address _feeAddress,\n    address _token\n  ) Shaker(_verifier, _denomination, _merkleTreeHeight, _operator, _feeAddress) public {\n    token = _token;\n  }\n\n  function _processDeposit(uint256 _amount) internal {\n    require(msg.value == 0, \"ETH value is supposed to be 0 for ERC20 instance\");\n    _safeErc20TransferFrom(msg.sender, address(this), _amount);\n  }\n\n  function _processWithdraw(address payable _recipient, address _relayer, uint256 _fee, uint256 _refund) internal {\n    // require(msg.value == _refund, \"Incorrect refund amount received by the contract\");\n\n    _safeErc20Transfer(_recipient, _refund - _fee);\n    if (_fee > 0) {\n      _safeErc20Transfer(_relayer, _fee);\n    }\n\n    // if (_refund > 0) {\n    //   (bool success, ) = _recipient.call.value(_refund)(\"\");\n    //   if (!success) {\n    //     // let's return _refund back to the relayer\n    //     _relayer.transfer(_refund);\n    //   }\n    // }\n  }\n\n  function _safeErc20TransferFrom(address _from, address _to, uint256 _amount) internal {\n    (bool success, bytes memory data) = token.call(abi.encodeWithSelector(0x23b872dd /* transferFrom */, _from, _to, _amount));\n    require(success, \"not enough allowed tokens\");\n\n    // if contract returns some data lets make sure that is `true` according to standard\n    if (data.length > 0) {\n      require(data.length == 32, \"data length should be either 0 or 32 bytes\");\n      success = abi.decode(data, (bool));\n      require(success, \"not enough allowed tokens. Token returns false.\");\n    }\n  }\n\n  function _safeErc20Transfer(address _to, uint256 _amount) internal {\n    (bool success, bytes memory data) = token.call(abi.encodeWithSelector(0xa9059cbb /* transfer */, _to, _amount));\n    require(success, \"not enough tokens\");\n\n    // if contract returns some data lets make sure that is `true` according to standard\n    if (data.length > 0) {\n      require(data.length == 32, \"data length should be either 0 or 32 bytes\");\n      success = abi.decode(data, (bool));\n      require(success, \"not enough tokens. Token returns false.\");\n    }\n  }\n}\n",
  "sourcePath": "/Users/guqianfeng/web/my_dapps/hunbi/tornado-core/contracts/ERC20Shaker.sol",
  "compiler": {
    "name": "solc",
    "version": "0.5.17+commit.d19bba13.Emscripten.clang"
  },
  "schemaVersion": "3.2.4",
  "updatedAt": "2020-09-25T09:23:50.733Z",
  "networkType": "ethereum",
  "devdoc": {
    "methods": {
      "changeFeeAddress(address)": {
        "details": "operator can change address of recieving fee "
      },
      "changeOperator(address)": {
        "details": "operator can change his address "
      },
      "depositERC20Batch(uint256[],bytes32[],uint8,address,uint256)": {
        "details": "Deposit a set of amount and commitments",
        "params": {
          "_amounts": ", array of ERC20 amount",
          "_commitments": ", array of commitments",
          "_effectiveTime": ", effective time of the Withdrawal",
          "_orderStatus": ", status of deposit, 0: cheque for bearer, 1: cheque for order",
          "_recipient": ", recipient address if cheque for order"
        }
      },
      "endorse(bytes,bytes32,bytes32,address,address,uint8,uint256,bytes32,bytes32,uint256)": {
        "details": "this function is for cheque endorsement",
        "params": {
          "_amount": ", endorsed amount, the endorsement amount can be part of balance of old cheque",
          "_effectiveTime": ", new effectiveTime of note",
          "_newCommitment": ", new commitment from frontend",
          "_nullifierHash": ", old nullifierHashe",
          "_oldCommitment": ", old commitment which will be endorsed",
          "_orderStatus": ", old cheque order type, 0- to Bearer cheque, 1- to order cheque",
          "_proof": ", Proof of zkSNARK",
          "_recipient": ", new recipient address, if orderStatus is 0, the _recipient is sender. Otherwise the _recipient is to order",
          "_relayer": ", relayer address",
          "_root": ", root of merkle tree"
        }
      },
      "getLastRoot()": {
        "details": "Returns the last root"
      },
      "hashLeftRight(bytes32,bytes32)": {
        "details": "Hash 2 tree leaves, returns MiMC(_left, _right)"
      },
      "isKnownRoot(bytes32)": {
        "details": "Whether the root is present in the root history"
      },
      "isSpent(bytes32)": {
        "details": "whether a note is already spent "
      },
      "isSpentArray(bytes32[])": {
        "details": "whether an array of notes is already spent "
      },
      "updateVerifier(address)": {
        "details": "allow operator to update SNARK verification keys. This is needed to update keys after the final trusted setup ceremony is held. After that operator rights are supposed to be transferred to zero address"
      },
      "withdraw(bytes,bytes32,bytes32,address,address,uint256,uint256,bytes32)": {
        "details": "Withdraw a deposit from the contract. `proof` is a zkSNARK proof data, and input is an array of circuit public inputs `input` array consists of: - merkle root of all deposits in the contract - hash of unique deposit nullifier to prevent double spends - the recipient of funds - optional fee that goes to the transaction sender (usually a relay)",
        "params": {
          "_fee": ", relayer decide the fee amount"
        }
      }
    }
  },
  "userdoc": {
    "methods": {}
  }
}