{
  "contractName": "ERC20Shaker",
  "abi": [
    {
      "inputs": [
        {
          "internalType": "contract IVerifier",
          "name": "_verifier",
          "type": "address"
        },
        {
          "internalType": "uint256",
          "name": "_denomination",
          "type": "uint256"
        },
        {
          "internalType": "uint32",
          "name": "_merkleTreeHeight",
          "type": "uint32"
        },
        {
          "internalType": "address",
          "name": "_operator",
          "type": "address"
        },
        {
          "internalType": "address",
          "name": "_token",
          "type": "address"
        }
      ],
      "payable": false,
      "stateMutability": "nonpayable",
      "type": "constructor"
    },
    {
      "anonymous": false,
      "inputs": [
        {
          "indexed": true,
          "internalType": "bytes32",
          "name": "commitment",
          "type": "bytes32"
        },
        {
          "indexed": false,
          "internalType": "uint32",
          "name": "leafIndex",
          "type": "uint32"
        },
        {
          "indexed": false,
          "internalType": "uint256",
          "name": "timestamp",
          "type": "uint256"
        },
        {
          "indexed": false,
          "internalType": "uint8",
          "name": "orderStatus",
          "type": "uint8"
        },
        {
          "indexed": false,
          "internalType": "address",
          "name": "recipient",
          "type": "address"
        },
        {
          "indexed": false,
          "internalType": "uint256",
          "name": "effectiveTime",
          "type": "uint256"
        }
      ],
      "name": "Deposit",
      "type": "event"
    },
    {
      "anonymous": false,
      "inputs": [
        {
          "indexed": false,
          "internalType": "address",
          "name": "to",
          "type": "address"
        },
        {
          "indexed": false,
          "internalType": "bytes32",
          "name": "nullifierHash",
          "type": "bytes32"
        },
        {
          "indexed": true,
          "internalType": "address",
          "name": "relayer",
          "type": "address"
        },
        {
          "indexed": false,
          "internalType": "uint256",
          "name": "fee",
          "type": "uint256"
        },
        {
          "indexed": false,
          "internalType": "uint256",
          "name": "amount",
          "type": "uint256"
        }
      ],
      "name": "Withdrawal",
      "type": "event"
    },
    {
      "constant": true,
      "inputs": [],
      "name": "FIELD_SIZE",
      "outputs": [
        {
          "internalType": "uint256",
          "name": "",
          "type": "uint256"
        }
      ],
      "payable": false,
      "stateMutability": "view",
      "type": "function"
    },
    {
      "constant": true,
      "inputs": [],
      "name": "ROOT_HISTORY_SIZE",
      "outputs": [
        {
          "internalType": "uint32",
          "name": "",
          "type": "uint32"
        }
      ],
      "payable": false,
      "stateMutability": "view",
      "type": "function"
    },
    {
      "constant": true,
      "inputs": [],
      "name": "ZERO_VALUE",
      "outputs": [
        {
          "internalType": "uint256",
          "name": "",
          "type": "uint256"
        }
      ],
      "payable": false,
      "stateMutability": "view",
      "type": "function"
    },
    {
      "constant": false,
      "inputs": [
        {
          "internalType": "address",
          "name": "_newOperator",
          "type": "address"
        }
      ],
      "name": "changeOperator",
      "outputs": [],
      "payable": false,
      "stateMutability": "nonpayable",
      "type": "function"
    },
    {
      "constant": true,
      "inputs": [],
      "name": "currentRootIndex",
      "outputs": [
        {
          "internalType": "uint32",
          "name": "",
          "type": "uint32"
        }
      ],
      "payable": false,
      "stateMutability": "view",
      "type": "function"
    },
    {
      "constant": true,
      "inputs": [],
      "name": "denomination",
      "outputs": [
        {
          "internalType": "uint256",
          "name": "",
          "type": "uint256"
        }
      ],
      "payable": false,
      "stateMutability": "view",
      "type": "function"
    },
    {
      "constant": false,
      "inputs": [
        {
          "internalType": "uint256[]",
          "name": "_amounts",
          "type": "uint256[]"
        },
        {
          "internalType": "bytes32[]",
          "name": "_commitments",
          "type": "bytes32[]"
        },
        {
          "internalType": "uint8",
          "name": "_orderStatus",
          "type": "uint8"
        },
        {
          "internalType": "address payable",
          "name": "_recipient",
          "type": "address"
        },
        {
          "internalType": "uint256",
          "name": "_effectiveTime",
          "type": "uint256"
        }
      ],
      "name": "depositERC20Batch",
      "outputs": [],
      "payable": true,
      "stateMutability": "payable",
      "type": "function"
    },
    {
      "constant": true,
      "inputs": [
        {
          "internalType": "uint256",
          "name": "",
          "type": "uint256"
        }
      ],
      "name": "filledSubtrees",
      "outputs": [
        {
          "internalType": "bytes32",
          "name": "",
          "type": "bytes32"
        }
      ],
      "payable": false,
      "stateMutability": "view",
      "type": "function"
    },
    {
      "constant": true,
      "inputs": [],
      "name": "getLastRoot",
      "outputs": [
        {
          "internalType": "bytes32",
          "name": "",
          "type": "bytes32"
        }
      ],
      "payable": false,
      "stateMutability": "view",
      "type": "function"
    },
    {
      "constant": true,
      "inputs": [
        {
          "internalType": "bytes32",
          "name": "_left",
          "type": "bytes32"
        },
        {
          "internalType": "bytes32",
          "name": "_right",
          "type": "bytes32"
        }
      ],
      "name": "hashLeftRight",
      "outputs": [
        {
          "internalType": "bytes32",
          "name": "",
          "type": "bytes32"
        }
      ],
      "payable": false,
      "stateMutability": "pure",
      "type": "function"
    },
    {
      "constant": true,
      "inputs": [
        {
          "internalType": "bytes32",
          "name": "_root",
          "type": "bytes32"
        }
      ],
      "name": "isKnownRoot",
      "outputs": [
        {
          "internalType": "bool",
          "name": "",
          "type": "bool"
        }
      ],
      "payable": false,
      "stateMutability": "view",
      "type": "function"
    },
    {
      "constant": true,
      "inputs": [
        {
          "internalType": "bytes32",
          "name": "_nullifierHash",
          "type": "bytes32"
        }
      ],
      "name": "isSpent",
      "outputs": [
        {
          "internalType": "bool",
          "name": "",
          "type": "bool"
        }
      ],
      "payable": false,
      "stateMutability": "view",
      "type": "function"
    },
    {
      "constant": true,
      "inputs": [
        {
          "internalType": "bytes32[]",
          "name": "_nullifierHashes",
          "type": "bytes32[]"
        }
      ],
      "name": "isSpentArray",
      "outputs": [
        {
          "internalType": "bool[]",
          "name": "spent",
          "type": "bool[]"
        }
      ],
      "payable": false,
      "stateMutability": "view",
      "type": "function"
    },
    {
      "constant": true,
      "inputs": [],
      "name": "levels",
      "outputs": [
        {
          "internalType": "uint32",
          "name": "",
          "type": "uint32"
        }
      ],
      "payable": false,
      "stateMutability": "view",
      "type": "function"
    },
    {
      "constant": true,
      "inputs": [],
      "name": "nextIndex",
      "outputs": [
        {
          "internalType": "uint32",
          "name": "",
          "type": "uint32"
        }
      ],
      "payable": false,
      "stateMutability": "view",
      "type": "function"
    },
    {
      "constant": true,
      "inputs": [],
      "name": "operator",
      "outputs": [
        {
          "internalType": "address",
          "name": "",
          "type": "address"
        }
      ],
      "payable": false,
      "stateMutability": "view",
      "type": "function"
    },
    {
      "constant": true,
      "inputs": [
        {
          "internalType": "uint256",
          "name": "",
          "type": "uint256"
        }
      ],
      "name": "roots",
      "outputs": [
        {
          "internalType": "bytes32",
          "name": "",
          "type": "bytes32"
        }
      ],
      "payable": false,
      "stateMutability": "view",
      "type": "function"
    },
    {
      "constant": true,
      "inputs": [],
      "name": "token",
      "outputs": [
        {
          "internalType": "address",
          "name": "",
          "type": "address"
        }
      ],
      "payable": false,
      "stateMutability": "view",
      "type": "function"
    },
    {
      "constant": true,
      "inputs": [],
      "name": "totalAmount",
      "outputs": [
        {
          "internalType": "uint256",
          "name": "",
          "type": "uint256"
        }
      ],
      "payable": false,
      "stateMutability": "view",
      "type": "function"
    },
    {
      "constant": true,
      "inputs": [],
      "name": "totalBalance",
      "outputs": [
        {
          "internalType": "uint256",
          "name": "",
          "type": "uint256"
        }
      ],
      "payable": false,
      "stateMutability": "view",
      "type": "function"
    },
    {
      "constant": false,
      "inputs": [
        {
          "internalType": "address",
          "name": "_newVerifier",
          "type": "address"
        }
      ],
      "name": "updateVerifier",
      "outputs": [],
      "payable": false,
      "stateMutability": "nonpayable",
      "type": "function"
    },
    {
      "constant": true,
      "inputs": [],
      "name": "verifier",
      "outputs": [
        {
          "internalType": "contract IVerifier",
          "name": "",
          "type": "address"
        }
      ],
      "payable": false,
      "stateMutability": "view",
      "type": "function"
    },
    {
      "constant": false,
      "inputs": [
        {
          "internalType": "bytes",
          "name": "_proof",
          "type": "bytes"
        },
        {
          "internalType": "bytes32",
          "name": "_root",
          "type": "bytes32"
        },
        {
          "internalType": "bytes32",
          "name": "_nullifierHash",
          "type": "bytes32"
        },
        {
          "internalType": "address payable",
          "name": "_recipient",
          "type": "address"
        },
        {
          "internalType": "address payable",
          "name": "_relayer",
          "type": "address"
        },
        {
          "internalType": "uint256",
          "name": "_fee",
          "type": "uint256"
        },
        {
          "internalType": "uint256",
          "name": "_refund",
          "type": "uint256"
        },
        {
          "internalType": "bytes32",
          "name": "_commitment",
          "type": "bytes32"
        }
      ],
      "name": "withdraw",
      "outputs": [],
      "payable": true,
      "stateMutability": "payable",
      "type": "function"
    },
    {
      "constant": true,
      "inputs": [
        {
          "internalType": "uint256",
          "name": "",
          "type": "uint256"
        }
      ],
      "name": "zeros",
      "outputs": [
        {
          "internalType": "bytes32",
          "name": "",
          "type": "bytes32"
        }
      ],
      "payable": false,
      "stateMutability": "view",
      "type": "function"
    }
  ],
  "bytecode": "0x6080604052600380546001600160401b031916905560006069819055606a553480156200002b57600080fd5b506040516200208838038062002088833981810160405260a08110156200005157600080fd5b50805160208201516040830151606084015160809094015192939192909190848484848163ffffffff8116620000b95760405162461bcd60e51b815260040180806020018281038252602781526020018062001fff6027913960400191505060405180910390fd5b60208163ffffffff1610620001005760405162461bcd60e51b8152600401808060200182810382526022815260200180620020466022913960400191505060405180910390fd5b6000805463ffffffff191663ffffffff83161781556002805460018181019092557f2fe54c60d3acabf3343a35b6eba15db4821b340f76e741e2249685ed4899af6c60008051602062001fbe8339815191529091018190558154808301835592829052600080516020620020688339815191529092018290555b60005463ffffffff9081169082161015620001ee57620001a482806001600160e01b036200029e16565b60028054600181810190925560008051602062001fbe833981519152018290558054808201825560008290526000805160206200206883398151915201829055909250016200017a565b506200020481806001600160e01b036200029e16565b60045550506001606855826200024c5760405162461bcd60e51b815260040180806020018281038252602581526020018062001f996025913960400191505060405180910390fd5b606b80546001600160a01b039586166001600160a01b031991821617909155606c805492861692821692909217909155606d929092555060748054939092169216919091179055506200048b92505050565b600060008051602062002026833981519152831062000304576040805162461bcd60e51b815260206004820181905260248201527f5f6c6566742073686f756c6420626520696e7369646520746865206669656c64604482015290519081900360640190fd5b600080516020620020268339815191528210620003535760405162461bcd60e51b815260040180806020018281038252602181526020018062001fde6021913960400191505060405180910390fd5b6040805163f47d33b560e01b81526004810185905260006024820181905282518693919273__Hasher________________________________9263f47d33b592604480840193829003018186803b158015620003ae57600080fd5b505af4158015620003c3573d6000803e3d6000fd5b505050506040513d6040811015620003da57600080fd5b508051602090910151909250905060008051602062002026833981519152848308915073__Hasher________________________________63f47d33b583836040518363ffffffff1660e01b81526004018083815260200182815260200192505050604080518083038186803b1580156200045457600080fd5b505af415801562000469573d6000803e3d6000fd5b505050506040513d60408110156200048057600080fd5b505195945050505050565b611afe806200049b6000396000f3fe60806040526004361061014b5760003560e01c8063a8be3cd6116100b6578063e5285dcc1161006f578063e5285dcc146105aa578063e8295588146105d4578063ec732959146105fe578063f178e47c14610613578063fc0c546a1461063d578063fc7e9c6f146106525761014b565b8063a8be3cd6146103cb578063ad7a672f146104a1578063ba70f757146104b6578063c2b40ae4146104cb578063cd87a3b4146104f5578063da9080391461050a5761014b565b8063570ca73511610108578063570ca735146102505780636d9833e3146102655780638bca6d16146102a357806390eeb02b146102b857806397fc007c146102cd5780639fa12d0b146103005761014b565b806306394c9b146101505780631a39d8ef146101855780632b7ac3f3146101ac57806338bf282e146101dd578063414a37ba1461020d5780634ecf518b14610222575b600080fd5b34801561015c57600080fd5b506101836004803603602081101561017357600080fd5b50356001600160a01b0316610667565b005b34801561019157600080fd5b5061019a6106d2565b60408051918252519081900360200190f35b3480156101b857600080fd5b506101c16106d8565b604080516001600160a01b039092168252519081900360200190f35b3480156101e957600080fd5b5061019a6004803603604081101561020057600080fd5b50803590602001356106e7565b34801561021957600080fd5b5061019a6108c8565b34801561022e57600080fd5b506102376108da565b6040805163ffffffff9092168252519081900360200190f35b34801561025c57600080fd5b506101c16108e6565b34801561027157600080fd5b5061028f6004803603602081101561028857600080fd5b50356108f5565b604080519115158252519081900360200190f35b3480156102af57600080fd5b5061019a610968565b3480156102c457600080fd5b5061023761096e565b3480156102d957600080fd5b50610183600480360360208110156102f057600080fd5b50356001600160a01b031661097a565b34801561030c57600080fd5b5061037b6004803603602081101561032357600080fd5b810190602081018135600160201b81111561033d57600080fd5b82018360208201111561034f57600080fd5b803590602001918460208302840111600160201b8311171561037057600080fd5b5090925090506109e5565b60408051602080825283518183015283519192839290830191858101910280838360005b838110156103b757818101518382015260200161039f565b505050509050019250505060405180910390f35b610183600480360360a08110156103e157600080fd5b810190602081018135600160201b8111156103fb57600080fd5b82018360208201111561040d57600080fd5b803590602001918460208302840111600160201b8311171561042e57600080fd5b919390929091602081019035600160201b81111561044b57600080fd5b82018360208201111561045d57600080fd5b803590602001918460208302840111600160201b8311171561047e57600080fd5b919350915060ff813516906001600160a01b036020820135169060400135610a6d565b3480156104ad57600080fd5b5061019a610b7e565b3480156104c257600080fd5b5061019a610b84565b3480156104d757600080fd5b5061019a600480360360208110156104ee57600080fd5b5035610ba4565b34801561050157600080fd5b50610237610bb8565b610183600480360361010081101561052157600080fd5b810190602081018135600160201b81111561053b57600080fd5b82018360208201111561054d57600080fd5b803590602001918460018302840111600160201b8311171561056e57600080fd5b91935091508035906020810135906001600160a01b03604082013581169160608101359091169060808101359060a08101359060c00135610bbd565b3480156105b657600080fd5b5061028f600480360360208110156105cd57600080fd5b503561113b565b3480156105e057600080fd5b5061019a600480360360208110156105f757600080fd5b5035611150565b34801561060a57600080fd5b5061019a61116e565b34801561061f57600080fd5b5061019a6004803603602081101561063657600080fd5b5035611192565b34801561064957600080fd5b506101c161119f565b34801561065e57600080fd5b506102376111ae565b606c546001600160a01b031633146106b05760405162461bcd60e51b8152600401808060200182810382526025815260200180611aa56025913960400191505060405180910390fd5b606c80546001600160a01b0319166001600160a01b0392909216919091179055565b60695481565b606b546001600160a01b031681565b60006000805160206119fb833981519152831061074b576040805162461bcd60e51b815260206004820181905260248201527f5f6c6566742073686f756c6420626520696e7369646520746865206669656c64604482015290519081900360640190fd5b6000805160206119fb83398151915282106107975760405162461bcd60e51b815260040180806020018281038252602181526020018061197e6021913960400191505060405180910390fd5b6040805163f47d33b560e01b81526004810185905260006024820181905282518693919273__Hasher________________________________9263f47d33b592604480840193829003018186803b1580156107f157600080fd5b505af4158015610805573d6000803e3d6000fd5b505050506040513d604081101561081b57600080fd5b50805160209091015190925090506000805160206119fb833981519152848308915073__Hasher________________________________63f47d33b583836040518363ffffffff1660e01b81526004018083815260200182815260200192505050604080518083038186803b15801561089357600080fd5b505af41580156108a7573d6000803e3d6000fd5b505050506040513d60408110156108bd57600080fd5b505195945050505050565b6000805160206119fb83398151915281565b60005463ffffffff1681565b606c546001600160a01b031681565b60008161090457506000610963565b60035463ffffffff165b60048163ffffffff166064811061092157fe5b0154831415610934576001915050610963565b63ffffffff8116610943575060645b6003546000199091019063ffffffff8083169116141561090e5760009150505b919050565b606d5481565b60035463ffffffff1681565b606c546001600160a01b031633146109c35760405162461bcd60e51b8152600401808060200182810382526025815260200180611aa56025913960400191505060405180910390fd5b606b80546001600160a01b0319166001600160a01b0392909216919091179055565b604080518281526020808402820101909152606090828015610a11578160200160208202803883390190505b50905060005b82811015610a6657610a3a848483818110610a2e57fe5b9050602002013561113b565b15610a5e576001828281518110610a4d57fe5b911515602092830291909101909101525b600101610a17565b5092915050565b60026068541415610ac5576040805162461bcd60e51b815260206004820152601f60248201527f5265656e7472616e637947756172643a207265656e7472616e742063616c6c00604482015290519081900360640190fd5b600260685560ff83161580610add57508260ff166001145b610b185760405162461bcd60e51b81526004018080602001828103825260268152602001806118d86026913960400191505060405180910390fd5b6001600160a01b038216610b2b57600080fd5b60005b86811015610b6f57610b67888883818110610b4557fe5b90506020020135878784818110610b5857fe5b905060200201358686866111c1565b600101610b2e565b50506001606855505050505050565b606a5481565b60035460009060049063ffffffff1660648110610b9d57fe5b0154905090565b60048160648110610bb157fe5b0154905081565b606481565b60026068541415610c15576040805162461bcd60e51b815260206004820152601f60248201527f5265656e7472616e637947756172643a207265656e7472616e742063616c6c00604482015290519081900360640190fd5b6002606855606d54831115610c71576040805162461bcd60e51b815260206004820152601a60248201527f4665652065786365656473207472616e736665722076616c7565000000000000604482015290519081900360640190fd5b6000868152606e602052604090205460ff1615610cd5576040805162461bcd60e51b815260206004820152601f60248201527f546865206e6f746520686173206265656e20616c7265616479207370656e7400604482015290519081900360640190fd5b610cde876108f5565b610d2f576040805162461bcd60e51b815260206004820152601c60248201527f43616e6e6f742066696e6420796f7572206d65726b6c6520726f6f7400000000604482015290519081900360640190fd5b600081815260706020526040902054610d8f576040805162461bcd60e51b815260206004820152601f60248201527f4e6f2062616c616e636520616d6f756e74206f6620746869732070726f6f6600604482015290519081900360640190fd5b6000808311610dac57600082815260706020526040902054610dae565b825b905060008111610e05576040805162461bcd60e51b815260206004820152601d60248201527f526566756e6420616d6f756e742063616e206e6f74206265207a65726f000000604482015290519081900360640190fd5b606b546040805160c080820183528b8252602082018b90526001600160a01b038a81168385015289811660608401526080830189905260a08301889052925163695ef6f960e01b8152929093169263695ef6f9928e928e9290916004810191829160240190849080838360005b83811015610e8a578181015183820152602001610e72565b505050509050018281038252858582818152602001925080828437600081840152601f19601f820116905080830192505050945050505050602060405180830381600087803b158015610edc57600080fd5b505af1158015610ef0573d6000803e3d6000fd5b505050506040513d6020811015610f0657600080fd5b5051610f52576040805162461bcd60e51b815260206004820152601660248201527524b73b30b634b2103bb4ba34323930bb90383937b7b360511b604482015290519081900360640190fd5b600082815260736020526040902054421015610f9f5760405162461bcd60e51b815260040180806020018281038252602d8152602001806119ce602d913960400191505060405180910390fd5b60008281526071602052604090205460ff166001148015610fd657506000828152607260205260409020546001600160a01b031615155b6110115760405162461bcd60e51b8152600401808060200182810382526039815260200180611a6c6039913960400191505060405180910390fd5b600082815260706020526040902054811161102c578061103c565b6000828152607060205260409020545b6000838152607160205260408120549192509060ff1660011461105f5786611078565b6000838152607260205260409020546001600160a01b03165b905061108681878785611322565b60008381526070602052604090208054839003815560698054849003905554156110b15760006110b4565b60015b6000898152606e6020908152604091829020805460ff19169315159390931790925580516001600160a01b038a811682529281018b9052808201889052606081018590529051918816917f6d7aac54bd3d1c91db3b1fd7b8d6cb45324ad6b5e373c0f0ea4d7b2606c4c2c8916080908290030190a250506001606855505050505050505050565b6000908152606e602052604090205460ff1690565b6002818154811061115d57fe5b600091825260209091200154905081565b7f2fe54c60d3acabf3343a35b6eba15db4821b340f76e741e2249685ed4899af6c81565b6001818154811061115d57fe5b6074546001600160a01b031681565b600354600160201b900463ffffffff1681565b6000848152606f602052604090205460ff161561120f5760405162461bcd60e51b8152600401808060200182810382526021815260200180611a1b6021913960400191505060405180910390fd5b600061121a85611344565b6000868152606f60209081526040808320805460ff199081166001908117909255607084528285208c905560719093529220805460ff891692168217905591925014611267576000611269565b825b600086815260726020908152604080832080546001600160a01b0319166001600160a01b03959095169490941790935560739052208290556069805487019055606a8054870190556112ba866114db565b6040805163ffffffff8316815242602082015260ff8616818301526001600160a01b038516606082015260808101849052905186917ff052b28ca720e670068c23c54488dc5b4db3ed42fde7c3fd2d0ea7aee06406eb919081900360a00190a2505050505050565b61132e84838303611526565b811561133e5761133e8383611526565b50505050565b60035460008054909163ffffffff600160201b909104811691811660020a168114156113a15760405162461bcd60e51b815260040180806020018281038252602f8152602001806118fe602f913960400191505060405180910390fd5b6003805463ffffffff600160201b80830482166001019091160267ffffffff000000001990911617905582600080805b60005463ffffffff908116908216101561147957600185166114355783925060028163ffffffff168154811061140357fe5b906000526020600020015491508360018263ffffffff168154811061142457fe5b600091825260209091200155611459565b60018163ffffffff168154811061144857fe5b906000526020600020015492508391505b61146383836106e7565b9350600263ffffffff86160494506001016113d1565b5060035460649063ffffffff908116600101166003805463ffffffff19169290910663ffffffff9081169290921790819055849160049116606481106114bb57fe5b01555050600354600160201b900463ffffffff1660001901949350505050565b34156115185760405162461bcd60e51b8152600401808060200182810382526030815260200180611a3c6030913960400191505060405180910390fd5b6115233330836116f1565b50565b607454604080516001600160a01b038581166024830152604480830186905283518084039091018152606490920183526020820180516001600160e01b031663a9059cbb60e01b178152925182516000956060959316939282918083835b602083106115a35780518252601f199092019160209182019101611584565b6001836020036101000a0380198251168184511680821785525050505050509050019150506000604051808303816000865af19150503d8060008114611605576040519150601f19603f3d011682016040523d82523d6000602084013e61160a565b606091505b509150915081611655576040805162461bcd60e51b81526020600482015260116024820152706e6f7420656e6f75676820746f6b656e7360781b604482015290519081900360640190fd5b80511561133e57805160201461169c5760405162461bcd60e51b815260040180806020018281038252602a81526020018061192d602a913960400191505060405180910390fd5b8080602001905160208110156116b157600080fd5b505191508161133e5760405162461bcd60e51b81526004018080602001828103825260278152602001806119576027913960400191505060405180910390fd5b607454604080516001600160a01b0386811660248301528581166044830152606480830186905283518084039091018152608490920183526020820180516001600160e01b03166323b872dd60e01b178152925182516000956060959316939282918083835b602083106117765780518252601f199092019160209182019101611757565b6001836020036101000a0380198251168184511680821785525050505050509050019150506000604051808303816000865af19150503d80600081146117d8576040519150601f19603f3d011682016040523d82523d6000602084013e6117dd565b606091505b509150915081611834576040805162461bcd60e51b815260206004820152601960248201527f6e6f7420656e6f75676820616c6c6f77656420746f6b656e7300000000000000604482015290519081900360640190fd5b8051156118d057805160201461187b5760405162461bcd60e51b815260040180806020018281038252602a81526020018061192d602a913960400191505060405180910390fd5b80806020019051602081101561189057600080fd5b50519150816118d05760405162461bcd60e51b815260040180806020018281038252602f81526020018061199f602f913960400191505060405180910390fd5b505050505056fe546865726520617265206f6e6c79203220636865717565207374617475733a2030206f7220314d65726b6c6520747265652069732066756c6c2e204e6f206d6f7265206c656166732063616e20626520616464656464617461206c656e6774682073686f756c64206265206569746865722030206f722033322062797465736e6f7420656e6f75676820746f6b656e732e20546f6b656e2072657475726e732066616c73652e5f72696768742073686f756c6420626520696e7369646520746865206669656c646e6f7420656e6f75676820616c6c6f77656420746f6b656e732e20546f6b656e2072657475726e732066616c73652e546865206465706f736974206973206c6f636b656420756e74696c207468652065666665637469766554696d6530644e72e131a029b85045b68181585d2833e84879b9709143e1f593f000000154686520636f6d6d69746d656e7420686173206265656e207375626d69747465644554482076616c756520697320737570706f73656420746f206265203020666f7220455243323020696e7374616e6365546869732069732063686571756520746f206f726465722c206275742074686520726563697069656e742061646472657373206973203078304f6e6c79206f70657261746f722063616e2063616c6c20746869732066756e6374696f6e2ea265627a7a723158201cd7eacedcfea3f34c6fdf285c6691bae94f80a2060464aec94b87c6ec87b89a64736f6c6343000511003264656e6f6d696e6174696f6e2073686f756c642062652067726561746572207468616e2030405787fa12a823e0f2b7631cc41b3ba8828b3321ca811111fa75cd3aa3bb5ace5f72696768742073686f756c6420626520696e7369646520746865206669656c645f747265654c6576656c732073686f756c642062652067726561746572207468616e207a65726f30644e72e131a029b85045b68181585d2833e84879b9709143e1f593f00000015f747265654c6576656c732073686f756c64206265206c657373207468616e203332b10e2d527612073b26eecdfd717e6a320cf44b4afac2b0732d9fcbe2b7fa0cf6",
  "source": "/**\n *  $$$$$$\\  $$\\                 $$\\                           \n * $$  __$$\\ $$ |                $$ |                          \n * $$ /  \\__|$$$$$$$\\   $$$$$$\\  $$ |  $$\\  $$$$$$\\   $$$$$$\\  \n * \\$$$$$$\\  $$  __$$\\  \\____$$\\ $$ | $$  |$$  __$$\\ $$  __$$\\ \n *  \\____$$\\ $$ |  $$ | $$$$$$$ |$$$$$$  / $$$$$$$$ |$$ |  \\__|\n * $$\\   $$ |$$ |  $$ |$$  __$$ |$$  _$$<  $$   ____|$$ |      \n * \\$$$$$$  |$$ |  $$ |\\$$$$$$$ |$$ | \\$$\\ \\$$$$$$$\\ $$ |      \n *  \\______/ \\__|  \\__| \\_______|\\__|  \\__| \\_______|\\__|\n * $$$$$$$$$$$$$$$$$$$$$$$$$$$$$$$$$$$$$$$$$$$$$$$$$$$$$$$$$$$$\n * ____________________________________________________________\n*/\n\npragma solidity 0.5.17;\n// pragma experimental ABIEncoderV2;\n\nimport \"./Shaker.sol\";\n\ncontract ERC20Shaker is Shaker {\n  address public token;\n\n  constructor(\n    IVerifier _verifier,\n    uint256 _denomination,\n    uint32 _merkleTreeHeight,\n    address _operator,\n    address _token\n  ) Shaker(_verifier, _denomination, _merkleTreeHeight, _operator) public {\n    token = _token;\n  }\n\n  function _processDeposit(uint256 _amount) internal {\n    require(msg.value == 0, \"ETH value is supposed to be 0 for ERC20 instance\");\n    _safeErc20TransferFrom(msg.sender, address(this), _amount);\n  }\n\n  function _processWithdraw(address payable _recipient, address payable _relayer, uint256 _fee, uint256 _refund) internal {\n    // require(msg.value == _refund, \"Incorrect refund amount received by the contract\");\n\n    _safeErc20Transfer(_recipient, _refund - _fee);\n    if (_fee > 0) {\n      _safeErc20Transfer(_relayer, _fee);\n    }\n\n    // if (_refund > 0) {\n    //   (bool success, ) = _recipient.call.value(_refund)(\"\");\n    //   if (!success) {\n    //     // let's return _refund back to the relayer\n    //     _relayer.transfer(_refund);\n    //   }\n    // }\n  }\n\n  function _safeErc20TransferFrom(address _from, address _to, uint256 _amount) internal {\n    (bool success, bytes memory data) = token.call(abi.encodeWithSelector(0x23b872dd /* transferFrom */, _from, _to, _amount));\n    require(success, \"not enough allowed tokens\");\n\n    // if contract returns some data lets make sure that is `true` according to standard\n    if (data.length > 0) {\n      require(data.length == 32, \"data length should be either 0 or 32 bytes\");\n      success = abi.decode(data, (bool));\n      require(success, \"not enough allowed tokens. Token returns false.\");\n    }\n  }\n\n  function _safeErc20Transfer(address _to, uint256 _amount) internal {\n    (bool success, bytes memory data) = token.call(abi.encodeWithSelector(0xa9059cbb /* transfer */, _to, _amount));\n    require(success, \"not enough tokens\");\n\n    // if contract returns some data lets make sure that is `true` according to standard\n    if (data.length > 0) {\n      require(data.length == 32, \"data length should be either 0 or 32 bytes\");\n      success = abi.decode(data, (bool));\n      require(success, \"not enough tokens. Token returns false.\");\n    }\n  }\n}\n",
  "sourcePath": "/Users/guqianfeng/web/my_dapps/hunbi/tornado-core/contracts/ERC20Shaker.sol",
  "compiler": {
    "name": "solc",
    "version": "0.5.17+commit.d19bba13.Emscripten.clang"
  },
  "schemaVersion": "3.2.4",
  "updatedAt": "2020-09-21T10:20:23.156Z",
  "networkType": "ethereum",
  "devdoc": {
    "methods": {
      "changeOperator(address)": {
        "details": "operator can change his address "
      },
      "depositERC20Batch(uint256[],bytes32[],uint8,address,uint256)": {
        "details": "Deposit a set of amount and commitments",
        "params": {
          "_amounts": ", array of ERC20 amount",
          "_commitments": ", array of commitments",
          "_effectiveTime": ", effective time of the Withdrawal",
          "_orderStatus": ", status of deposit, 0: cheque for bearer, 1: cheque for order",
          "_recipient": ", recipient address if cheque for order"
        }
      },
      "getLastRoot()": {
        "details": "Returns the last root"
      },
      "hashLeftRight(bytes32,bytes32)": {
        "details": "Hash 2 tree leaves, returns MiMC(_left, _right)"
      },
      "isKnownRoot(bytes32)": {
        "details": "Whether the root is present in the root history"
      },
      "isSpent(bytes32)": {
        "details": "whether a note is already spent "
      },
      "isSpentArray(bytes32[])": {
        "details": "whether an array of notes is already spent "
      },
      "updateVerifier(address)": {
        "details": "allow operator to update SNARK verification keys. This is needed to update keys after the final trusted setup ceremony is held. After that operator rights are supposed to be transferred to zero address"
      },
      "withdraw(bytes,bytes32,bytes32,address,address,uint256,uint256,bytes32)": {
        "details": "Withdraw a deposit from the contract. `proof` is a zkSNARK proof data, and input is an array of circuit public inputs `input` array consists of: - merkle root of all deposits in the contract - hash of unique deposit nullifier to prevent double spends - the recipient of funds - optional fee that goes to the transaction sender (usually a relay)"
      }
    }
  },
  "userdoc": {
    "methods": {}
  }
}