{
  "contractName": "ETHShaker",
  "abi": [
    {
      "inputs": [
        {
          "internalType": "contract IVerifier",
          "name": "_verifier",
          "type": "address"
        },
        {
          "internalType": "uint256",
          "name": "_denomination",
          "type": "uint256"
        },
        {
          "internalType": "uint32",
          "name": "_merkleTreeHeight",
          "type": "uint32"
        },
        {
          "internalType": "address",
          "name": "_operator",
          "type": "address"
        }
      ],
      "payable": false,
      "stateMutability": "nonpayable",
      "type": "constructor"
    },
    {
      "anonymous": false,
      "inputs": [
        {
          "indexed": true,
          "internalType": "bytes32",
          "name": "commitment",
          "type": "bytes32"
        },
        {
          "indexed": false,
          "internalType": "uint32",
          "name": "leafIndex",
          "type": "uint32"
        },
        {
          "indexed": false,
          "internalType": "uint256",
          "name": "timestamp",
          "type": "uint256"
        }
      ],
      "name": "Deposit",
      "type": "event"
    },
    {
      "anonymous": false,
      "inputs": [
        {
          "indexed": false,
          "internalType": "address",
          "name": "to",
          "type": "address"
        },
        {
          "indexed": false,
          "internalType": "bytes32",
          "name": "nullifierHash",
          "type": "bytes32"
        },
        {
          "indexed": true,
          "internalType": "address",
          "name": "relayer",
          "type": "address"
        },
        {
          "indexed": false,
          "internalType": "uint256",
          "name": "fee",
          "type": "uint256"
        },
        {
          "indexed": false,
          "internalType": "uint256",
          "name": "amount",
          "type": "uint256"
        }
      ],
      "name": "Withdrawal",
      "type": "event"
    },
    {
      "constant": true,
      "inputs": [],
      "name": "FIELD_SIZE",
      "outputs": [
        {
          "internalType": "uint256",
          "name": "",
          "type": "uint256"
        }
      ],
      "payable": false,
      "stateMutability": "view",
      "type": "function"
    },
    {
      "constant": true,
      "inputs": [],
      "name": "ROOT_HISTORY_SIZE",
      "outputs": [
        {
          "internalType": "uint32",
          "name": "",
          "type": "uint32"
        }
      ],
      "payable": false,
      "stateMutability": "view",
      "type": "function"
    },
    {
      "constant": true,
      "inputs": [],
      "name": "ZERO_VALUE",
      "outputs": [
        {
          "internalType": "uint256",
          "name": "",
          "type": "uint256"
        }
      ],
      "payable": false,
      "stateMutability": "view",
      "type": "function"
    },
    {
      "constant": true,
      "inputs": [
        {
          "internalType": "bytes32",
          "name": "",
          "type": "bytes32"
        }
      ],
      "name": "amounts",
      "outputs": [
        {
          "internalType": "uint256",
          "name": "",
          "type": "uint256"
        }
      ],
      "payable": false,
      "stateMutability": "view",
      "type": "function"
    },
    {
      "constant": false,
      "inputs": [
        {
          "internalType": "address",
          "name": "_newOperator",
          "type": "address"
        }
      ],
      "name": "changeOperator",
      "outputs": [],
      "payable": false,
      "stateMutability": "nonpayable",
      "type": "function"
    },
    {
      "constant": true,
      "inputs": [
        {
          "internalType": "bytes32",
          "name": "",
          "type": "bytes32"
        }
      ],
      "name": "commitments",
      "outputs": [
        {
          "internalType": "bool",
          "name": "",
          "type": "bool"
        }
      ],
      "payable": false,
      "stateMutability": "view",
      "type": "function"
    },
    {
      "constant": true,
      "inputs": [],
      "name": "currentRootIndex",
      "outputs": [
        {
          "internalType": "uint32",
          "name": "",
          "type": "uint32"
        }
      ],
      "payable": false,
      "stateMutability": "view",
      "type": "function"
    },
    {
      "constant": true,
      "inputs": [],
      "name": "currentTreeId",
      "outputs": [
        {
          "internalType": "uint256",
          "name": "",
          "type": "uint256"
        }
      ],
      "payable": false,
      "stateMutability": "view",
      "type": "function"
    },
    {
      "constant": true,
      "inputs": [],
      "name": "denomination",
      "outputs": [
        {
          "internalType": "uint256",
          "name": "",
          "type": "uint256"
        }
      ],
      "payable": false,
      "stateMutability": "view",
      "type": "function"
    },
    {
      "constant": false,
      "inputs": [
        {
          "internalType": "uint256",
          "name": "_amount",
          "type": "uint256"
        },
        {
          "internalType": "bytes32",
          "name": "_commitment",
          "type": "bytes32"
        }
      ],
      "name": "deposit",
      "outputs": [],
      "payable": true,
      "stateMutability": "payable",
      "type": "function"
    },
    {
      "constant": false,
      "inputs": [
        {
          "internalType": "uint256[]",
          "name": "_amounts",
          "type": "uint256[]"
        },
        {
          "internalType": "bytes32[]",
          "name": "_commitments",
          "type": "bytes32[]"
        }
      ],
      "name": "depositERC20Batch",
      "outputs": [],
      "payable": true,
      "stateMutability": "payable",
      "type": "function"
    },
    {
      "constant": true,
      "inputs": [
        {
          "internalType": "uint256",
          "name": "",
          "type": "uint256"
        }
      ],
      "name": "filledSubtrees",
      "outputs": [
        {
          "internalType": "bytes32",
          "name": "",
          "type": "bytes32"
        }
      ],
      "payable": false,
      "stateMutability": "view",
      "type": "function"
    },
    {
      "constant": true,
      "inputs": [],
      "name": "getLastRoot",
      "outputs": [
        {
          "internalType": "bytes32",
          "name": "",
          "type": "bytes32"
        }
      ],
      "payable": false,
      "stateMutability": "view",
      "type": "function"
    },
    {
      "constant": true,
      "inputs": [
        {
          "internalType": "bytes32",
          "name": "_left",
          "type": "bytes32"
        },
        {
          "internalType": "bytes32",
          "name": "_right",
          "type": "bytes32"
        }
      ],
      "name": "hashLeftRight",
      "outputs": [
        {
          "internalType": "bytes32",
          "name": "",
          "type": "bytes32"
        }
      ],
      "payable": false,
      "stateMutability": "pure",
      "type": "function"
    },
    {
      "constant": true,
      "inputs": [
        {
          "internalType": "bytes32",
          "name": "_root",
          "type": "bytes32"
        }
      ],
      "name": "isKnownRoot",
      "outputs": [
        {
          "internalType": "bool",
          "name": "",
          "type": "bool"
        }
      ],
      "payable": false,
      "stateMutability": "view",
      "type": "function"
    },
    {
      "constant": true,
      "inputs": [
        {
          "internalType": "bytes32",
          "name": "_nullifierHash",
          "type": "bytes32"
        }
      ],
      "name": "isSpent",
      "outputs": [
        {
          "internalType": "bool",
          "name": "",
          "type": "bool"
        }
      ],
      "payable": false,
      "stateMutability": "view",
      "type": "function"
    },
    {
      "constant": true,
      "inputs": [
        {
          "internalType": "bytes32[]",
          "name": "_nullifierHashes",
          "type": "bytes32[]"
        }
      ],
      "name": "isSpentArray",
      "outputs": [
        {
          "internalType": "bool[]",
          "name": "spent",
          "type": "bool[]"
        }
      ],
      "payable": false,
      "stateMutability": "view",
      "type": "function"
    },
    {
      "constant": true,
      "inputs": [],
      "name": "levels",
      "outputs": [
        {
          "internalType": "uint32",
          "name": "",
          "type": "uint32"
        }
      ],
      "payable": false,
      "stateMutability": "view",
      "type": "function"
    },
    {
      "constant": true,
      "inputs": [],
      "name": "nextIndex",
      "outputs": [
        {
          "internalType": "uint32",
          "name": "",
          "type": "uint32"
        }
      ],
      "payable": false,
      "stateMutability": "view",
      "type": "function"
    },
    {
      "constant": true,
      "inputs": [
        {
          "internalType": "bytes32",
          "name": "",
          "type": "bytes32"
        }
      ],
      "name": "nullifierHashes",
      "outputs": [
        {
          "internalType": "bool",
          "name": "",
          "type": "bool"
        }
      ],
      "payable": false,
      "stateMutability": "view",
      "type": "function"
    },
    {
      "constant": true,
      "inputs": [],
      "name": "operator",
      "outputs": [
        {
          "internalType": "address",
          "name": "",
          "type": "address"
        }
      ],
      "payable": false,
      "stateMutability": "view",
      "type": "function"
    },
    {
      "constant": true,
      "inputs": [
        {
          "internalType": "uint256",
          "name": "",
          "type": "uint256"
        }
      ],
      "name": "roots",
      "outputs": [
        {
          "internalType": "bytes32",
          "name": "",
          "type": "bytes32"
        }
      ],
      "payable": false,
      "stateMutability": "view",
      "type": "function"
    },
    {
      "constant": true,
      "inputs": [
        {
          "internalType": "uint256",
          "name": "",
          "type": "uint256"
        }
      ],
      "name": "trees",
      "outputs": [
        {
          "internalType": "contract MerkleTreeWithHistory",
          "name": "",
          "type": "address"
        }
      ],
      "payable": false,
      "stateMutability": "view",
      "type": "function"
    },
    {
      "constant": false,
      "inputs": [
        {
          "internalType": "address",
          "name": "_newVerifier",
          "type": "address"
        }
      ],
      "name": "updateVerifier",
      "outputs": [],
      "payable": false,
      "stateMutability": "nonpayable",
      "type": "function"
    },
    {
      "constant": true,
      "inputs": [],
      "name": "verifier",
      "outputs": [
        {
          "internalType": "contract IVerifier",
          "name": "",
          "type": "address"
        }
      ],
      "payable": false,
      "stateMutability": "view",
      "type": "function"
    },
    {
      "constant": false,
      "inputs": [
        {
          "internalType": "bytes",
          "name": "_proof",
          "type": "bytes"
        },
        {
          "internalType": "bytes32",
          "name": "_root",
          "type": "bytes32"
        },
        {
          "internalType": "bytes32",
          "name": "_nullifierHash",
          "type": "bytes32"
        },
        {
          "internalType": "address payable",
          "name": "_recipient",
          "type": "address"
        },
        {
          "internalType": "address payable",
          "name": "_relayer",
          "type": "address"
        },
        {
          "internalType": "uint256",
          "name": "_fee",
          "type": "uint256"
        },
        {
          "internalType": "uint256",
          "name": "_refund",
          "type": "uint256"
        },
        {
          "internalType": "bytes32",
          "name": "_commitment",
          "type": "bytes32"
        }
      ],
      "name": "withdraw",
      "outputs": [],
      "payable": true,
      "stateMutability": "payable",
      "type": "function"
    },
    {
      "constant": true,
      "inputs": [
        {
          "internalType": "uint256",
          "name": "",
          "type": "uint256"
        }
      ],
      "name": "zeros",
      "outputs": [
        {
          "internalType": "bytes32",
          "name": "",
          "type": "bytes32"
        }
      ],
      "payable": false,
      "stateMutability": "view",
      "type": "function"
    }
  ],
  "bytecode": "0x6080604052600380546001600160401b03191690553480156200002157600080fd5b5060405162001d2438038062001d24833981810160405260808110156200004757600080fd5b5080516020820151604083015160609093015191929091838383838163ffffffff8116620000a75760405162461bcd60e51b815260040180806020018281038252602781526020018062001c9b6027913960400191505060405180910390fd5b60208163ffffffff1610620000ee5760405162461bcd60e51b815260040180806020018281038252602281526020018062001ce26022913960400191505060405180910390fd5b6000805463ffffffff191663ffffffff83161781556002805460018181019092557f2fe54c60d3acabf3343a35b6eba15db4821b340f76e741e2249685ed4899af6c60008051602062001c5a833981519152909101819055815480830183559282905260008051602062001d048339815191529092018290555b60005463ffffffff9081169082161015620001dc576200019282806001600160e01b036200027616565b60028054600181810190925560008051602062001c5a8339815191520182905580548082018255600082905260008051602062001d04833981519152018290559092500162000168565b50620001f281806001600160e01b036200027616565b60045550506001606855826200023a5760405162461bcd60e51b815260040180806020018281038252602581526020018062001c356025913960400191505060405180910390fd5b606f80546001600160a01b039586166001600160a01b031991821617909155607080549290951691161790925560695550620004639350505050565b600060008051602062001cc28339815191528310620002dc576040805162461bcd60e51b815260206004820181905260248201527f5f6c6566742073686f756c6420626520696e7369646520746865206669656c64604482015290519081900360640190fd5b60008051602062001cc283398151915282106200032b5760405162461bcd60e51b815260040180806020018281038252602181526020018062001c7a6021913960400191505060405180910390fd5b6040805163f47d33b560e01b81526004810185905260006024820181905282518693919273__Hasher________________________________9263f47d33b592604480840193829003018186803b1580156200038657600080fd5b505af41580156200039b573d6000803e3d6000fd5b505050506040513d6040811015620003b257600080fd5b508051602090910151909250905060008051602062001cc2833981519152848308915073__Hasher________________________________63f47d33b583836040518363ffffffff1660e01b81526004018083815260200182815260200192505050604080518083038186803b1580156200042c57600080fd5b505af415801562000441573d6000803e3d6000fd5b505050506040513d60408110156200045857600080fd5b505195945050505050565b6117c280620004736000396000f3fe60806040526004361061019c5760003560e01c806390eeb02b116100ec578063cd87a3b41161008a578063e829558811610064578063e8295588146106c3578063ec732959146106ed578063f178e47c14610702578063fc7e9c6f1461072c5761019c565b8063cd87a3b4146105e4578063da908039146105f9578063e5285dcc146106995761019c565b8063ba70f757116100c6578063ba70f75714610558578063c2b40ae41461056d578063c8662d9514610597578063c9630cb0146105c15761019c565b806390eeb02b1461044557806397fc007c1461045a5780639fa12d0b1461048d5761019c565b8063414a37ba116101595780636d9833e3116101335780636d9833e3146103b25780637a508022146103dc578063839df945146104065780638bca6d16146104305761019c565b8063414a37ba1461035a5780634ecf518b1461036f578063570ca7351461039d5761019c565b806306394c9b146101a15780631004c6a6146101d657806312fce751146101fd57806317cc915c146102bb5780632b7ac3f3146102f957806338bf282e1461032a575b600080fd5b3480156101ad57600080fd5b506101d4600480360360208110156101c457600080fd5b50356001600160a01b0316610741565b005b3480156101e257600080fd5b506101eb6107ac565b60408051918252519081900360200190f35b6101d46004803603604081101561021357600080fd5b810190602081018135600160201b81111561022d57600080fd5b82018360208201111561023f57600080fd5b803590602001918460208302840111600160201b8311171561026057600080fd5b919390929091602081019035600160201b81111561027d57600080fd5b82018360208201111561028f57600080fd5b803590602001918460208302840111600160201b831117156102b057600080fd5b5090925090506107b2565b3480156102c757600080fd5b506102e5600480360360208110156102de57600080fd5b5035610815565b604080519115158252519081900360200190f35b34801561030557600080fd5b5061030e61082a565b604080516001600160a01b039092168252519081900360200190f35b34801561033657600080fd5b506101eb6004803603604081101561034d57600080fd5b5080359060200135610839565b34801561036657600080fd5b506101eb610a1a565b34801561037b57600080fd5b50610384610a2c565b6040805163ffffffff9092168252519081900360200190f35b3480156103a957600080fd5b5061030e610a38565b3480156103be57600080fd5b506102e5600480360360208110156103d557600080fd5b5035610a47565b3480156103e857600080fd5b5061030e600480360360208110156103ff57600080fd5b5035610aba565b34801561041257600080fd5b506102e56004803603602081101561042957600080fd5b5035610ae1565b34801561043c57600080fd5b506101eb610af6565b34801561045157600080fd5b50610384610afc565b34801561046657600080fd5b506101d46004803603602081101561047d57600080fd5b50356001600160a01b0316610b08565b34801561049957600080fd5b50610508600480360360208110156104b057600080fd5b810190602081018135600160201b8111156104ca57600080fd5b8201836020820111156104dc57600080fd5b803590602001918460208302840111600160201b831117156104fd57600080fd5b509092509050610b73565b60408051602080825283518183015283519192839290830191858101910280838360005b8381101561054457818101518382015260200161052c565b505050509050019250505060405180910390f35b34801561056457600080fd5b506101eb610bfb565b34801561057957600080fd5b506101eb6004803603602081101561059057600080fd5b5035610c1b565b3480156105a357600080fd5b506101eb600480360360208110156105ba57600080fd5b5035610c2f565b6101d4600480360360408110156105d757600080fd5b5080359060200135610c41565b3480156105f057600080fd5b50610384610d71565b6101d4600480360361010081101561061057600080fd5b810190602081018135600160201b81111561062a57600080fd5b82018360208201111561063c57600080fd5b803590602001918460018302840111600160201b8311171561065d57600080fd5b91935091508035906020810135906001600160a01b03604082013581169160608101359091169060808101359060a08101359060c00135610d76565b3480156106a557600080fd5b506102e5600480360360208110156106bc57600080fd5b50356111f0565b3480156106cf57600080fd5b506101eb600480360360208110156106e657600080fd5b5035611205565b3480156106f957600080fd5b506101eb611223565b34801561070e57600080fd5b506101eb6004803603602081101561072557600080fd5b5035611247565b34801561073857600080fd5b50610384611254565b6070546001600160a01b0316331461078a5760405162461bcd60e51b81526004018080602001828103825260258152602001806117346025913960400191505060405180910390fd5b607080546001600160a01b0319166001600160a01b0392909216919091179055565b606d5481565b6002606854141561080a576040805162461bcd60e51b815260206004820152601f60248201527f5265656e7472616e637947756172643a207265656e7472616e742063616c6c00604482015290519081900360640190fd5b505060016068555050565b606a6020526000908152604090205460ff1681565b606f546001600160a01b031681565b60006000805160206116ab833981519152831061089d576040805162461bcd60e51b815260206004820181905260248201527f5f6c6566742073686f756c6420626520696e7369646520746865206669656c64604482015290519081900360640190fd5b6000805160206116ab83398151915282106108e95760405162461bcd60e51b81526004018080602001828103825260218152602001806116566021913960400191505060405180910390fd5b6040805163f47d33b560e01b81526004810185905260006024820181905282518693919273__Hasher________________________________9263f47d33b592604480840193829003018186803b15801561094357600080fd5b505af4158015610957573d6000803e3d6000fd5b505050506040513d604081101561096d57600080fd5b50805160209091015190925090506000805160206116ab833981519152848308915073__Hasher________________________________63f47d33b583836040518363ffffffff1660e01b81526004018083815260200182815260200192505050604080518083038186803b1580156109e557600080fd5b505af41580156109f9573d6000803e3d6000fd5b505050506040513d6040811015610a0f57600080fd5b505195945050505050565b6000805160206116ab83398151915281565b60005463ffffffff1681565b6070546001600160a01b031681565b600081610a5657506000610ab5565b60035463ffffffff165b60048163ffffffff1660648110610a7357fe5b0154831415610a86576001915050610ab5565b63ffffffff8116610a95575060645b6003546000199091019063ffffffff80831691161415610a605760009150505b919050565b606e8181548110610ac757fe5b6000918252602090912001546001600160a01b0316905081565b606b6020526000908152604090205460ff1681565b60695481565b60035463ffffffff1681565b6070546001600160a01b03163314610b515760405162461bcd60e51b81526004018080602001828103825260258152602001806117346025913960400191505060405180910390fd5b606f80546001600160a01b0319166001600160a01b0392909216919091179055565b604080518281526020808402820101909152606090828015610b9f578160200160208202803883390190505b50905060005b82811015610bf457610bc8848483818110610bbc57fe5b905060200201356111f0565b15610bec576001828281518110610bdb57fe5b911515602092830291909101909101525b600101610ba5565b5092915050565b60035460009060049063ffffffff1660648110610c1457fe5b0154905090565b60048160648110610c2857fe5b0154905081565b606c6020526000908152604090205481565b60026068541415610c99576040805162461bcd60e51b815260206004820152601f60248201527f5265656e7472616e637947756172643a207265656e7472616e742063616c6c00604482015290519081900360640190fd5b60026068556000818152606b602052604090205460ff1615610cec5760405162461bcd60e51b81526004018080602001828103825260218152602001806116cb6021913960400191505060405180910390fd5b6000610cf782611267565b6000838152606b60209081526040808320805460ff19166001179055606c90915290208490559050610d28836113fe565b6040805163ffffffff83168152426020820152815184927fa945e51eec50ab98c161376f0db4cf2aeba3ec92755fe2fcd388bdbbb80ff196928290030190a25050600160685550565b606481565b60026068541415610dce576040805162461bcd60e51b815260206004820152601f60248201527f5265656e7472616e637947756172643a207265656e7472616e742063616c6c00604482015290519081900360640190fd5b6002606855606954831115610e2a576040805162461bcd60e51b815260206004820152601a60248201527f4665652065786365656473207472616e736665722076616c7565000000000000604482015290519081900360640190fd5b6000868152606a602052604090205460ff1615610e8e576040805162461bcd60e51b815260206004820152601f60248201527f546865206e6f746520686173206265656e20616c7265616479207370656e7400604482015290519081900360640190fd5b610e9787610a47565b610ee8576040805162461bcd60e51b815260206004820152601c60248201527f43616e6e6f742066696e6420796f7572206d65726b6c6520726f6f7400000000604482015290519081900360640190fd5b6000818152606c6020526040902054610f48576040805162461bcd60e51b815260206004820152601f60248201527f4e6f2062616c616e636520616d6f756e74206f6620746869732070726f6f6600604482015290519081900360640190fd5b6000808311610f65576000828152606c6020526040902054610f67565b825b905060008111610fbe576040805162461bcd60e51b815260206004820152601d60248201527f526566756e6420616d6f756e742063616e206e6f74206265207a65726f000000604482015290519081900360640190fd5b606f546040805160c080820183528b8252602082018b90526001600160a01b038a81168385015289811660608401526080830189905260a08301889052925163695ef6f960e01b8152929093169263695ef6f9928e928e9290916004810191829160240190849080838360005b8381101561104357818101518382015260200161102b565b505050509050018281038252858582818152602001925080828437600081840152601f19601f820116905080830192505050945050505050602060405180830381600087803b15801561109557600080fd5b505af11580156110a9573d6000803e3d6000fd5b505050506040513d60208110156110bf57600080fd5b505161110b576040805162461bcd60e51b815260206004820152601660248201527524b73b30b634b2103bb4ba34323930bb90383937b7b360511b604482015290519081900360640190fd5b6000828152606c602052604090205481116111265780611136565b6000828152606c60205260409020545b905061114486868684611441565b6000828152606c602052604090208054829003908190551561116757600061116a565b60015b6000888152606a6020908152604091829020805460ff19169315159390931790925580516001600160a01b0389811682529281018a9052808201879052606081018490529051918716917f6d7aac54bd3d1c91db3b1fd7b8d6cb45324ad6b5e373c0f0ea4d7b2606c4c2c8916080908290030190a2505060016068555050505050505050565b6000908152606a602052604090205460ff1690565b6002818154811061121257fe5b600091825260209091200154905081565b7f2fe54c60d3acabf3343a35b6eba15db4821b340f76e741e2249685ed4899af6c81565b6001818154811061121257fe5b600354600160201b900463ffffffff1681565b60035460008054909163ffffffff600160201b909104811691811660020a168114156112c45760405162461bcd60e51b815260040180806020018281038252602f8152602001806115ef602f913960400191505060405180910390fd5b6003805463ffffffff600160201b80830482166001019091160267ffffffff000000001990911617905582600080805b60005463ffffffff908116908216101561139c57600185166113585783925060028163ffffffff168154811061132657fe5b906000526020600020015491508360018263ffffffff168154811061134757fe5b60009182526020909120015561137c565b60018163ffffffff168154811061136b57fe5b906000526020600020015492508391505b6113868383610839565b9350600263ffffffff86160494506001016112f4565b5060035460649063ffffffff908116600101166003805463ffffffff19169290910663ffffffff9081169290921790819055849160049116606481106113de57fe5b01555050600354600160201b900463ffffffff1660001901949350505050565b606954341461143e5760405162461bcd60e51b815260040180806020018281038252603881526020018061161e6038913960400191505060405180910390fd5b50565b341561147e5760405162461bcd60e51b81526004018080602001828103825260358152602001806117596035913960400191505060405180910390fd5b80156114bb5760405162461bcd60e51b81526004018080602001828103825260348152602001806116776034913960400191505060405180910390fd5b6069546040516000916001600160a01b0387169190859003908381818185875af1925050503d806000811461150c576040519150601f19603f3d011682016040523d82523d6000602084013e611511565b606091505b50509050806115515760405162461bcd60e51b81526004018080602001828103825260258152602001806116ec6025913960400191505060405180910390fd5b82156115e7576040516001600160a01b038516908490600081818185875af1925050503d80600081146115a0576040519150601f19603f3d011682016040523d82523d6000602084013e6115a5565b606091505b505080915050806115e75760405162461bcd60e51b81526004018080602001828103825260238152602001806117116023913960400191505060405180910390fd5b505050505056fe4d65726b6c6520747265652069732066756c6c2e204e6f206d6f7265206c656166732063616e206265206164646564506c656173652073656e6420606d697844656e6f6d696e6174696f6e602045544820616c6f6e672077697468207472616e73616374696f6e5f72696768742073686f756c6420626520696e7369646520746865206669656c64526566756e642076616c756520697320737570706f73656420746f206265207a65726f20666f722045544820696e7374616e636530644e72e131a029b85045b68181585d2833e84879b9709143e1f593f000000154686520636f6d6d69746d656e7420686173206265656e207375626d69747465647061796d656e7420746f205f726563697069656e7420646964206e6f7420676f20746872757061796d656e7420746f205f72656c6179657220646964206e6f7420676f20746872754f6e6c79206f70657261746f722063616e2063616c6c20746869732066756e6374696f6e2e4d6573736167652076616c756520697320737570706f73656420746f206265207a65726f20666f722045544820696e7374616e6365a265627a7a7231582016d3c5d688861e94d94011ee2993640bb45776805228692c715959d6066a1a0e64736f6c6343000511003264656e6f6d696e6174696f6e2073686f756c642062652067726561746572207468616e2030405787fa12a823e0f2b7631cc41b3ba8828b3321ca811111fa75cd3aa3bb5ace5f72696768742073686f756c6420626520696e7369646520746865206669656c645f747265654c6576656c732073686f756c642062652067726561746572207468616e207a65726f30644e72e131a029b85045b68181585d2833e84879b9709143e1f593f00000015f747265654c6576656c732073686f756c64206265206c657373207468616e203332b10e2d527612073b26eecdfd717e6a320cf44b4afac2b0732d9fcbe2b7fa0cf6",
  "source": "/**\n *  $$$$$$\\  $$\\                 $$\\                           \n * $$  __$$\\ $$ |                $$ |                          \n * $$ /  \\__|$$$$$$$\\   $$$$$$\\  $$ |  $$\\  $$$$$$\\   $$$$$$\\  \n * \\$$$$$$\\  $$  __$$\\  \\____$$\\ $$ | $$  |$$  __$$\\ $$  __$$\\ \n *  \\____$$\\ $$ |  $$ | $$$$$$$ |$$$$$$  / $$$$$$$$ |$$ |  \\__|\n * $$\\   $$ |$$ |  $$ |$$  __$$ |$$  _$$<  $$   ____|$$ |      \n * \\$$$$$$  |$$ |  $$ |\\$$$$$$$ |$$ | \\$$\\ \\$$$$$$$\\ $$ |      \n *  \\______/ \\__|  \\__| \\_______|\\__|  \\__| \\_______|\\__|\n * $$$$$$$$$$$$$$$$$$$$$$$$$$$$$$$$$$$$$$$$$$$$$$$$$$$$$$$$$$$$\n * ____________________________________________________________\n*/\n\npragma solidity 0.5.17;\n\nimport \"./Shaker.sol\";\n\ncontract ETHShaker is Shaker {\n  constructor(\n    IVerifier _verifier,\n    uint256 _denomination,\n    uint32 _merkleTreeHeight,\n    address _operator\n  ) Shaker(_verifier, _denomination, _merkleTreeHeight, _operator) public {\n  }\n\n  function _processDeposit(uint256 _amount) internal {\n    require(msg.value == denomination, \"Please send `mixDenomination` ETH along with transaction\");\n  }\n\n  function _processWithdraw(address payable _recipient, address payable _relayer, uint256 _fee, uint256 _refund) internal {\n    // sanity checks\n    require(msg.value == 0, \"Message value is supposed to be zero for ETH instance\");\n    require(_refund == 0, \"Refund value is supposed to be zero for ETH instance\");\n\n    (bool success, ) = _recipient.call.value(denomination - _fee)(\"\");\n    require(success, \"payment to _recipient did not go thru\");\n    if (_fee > 0) {\n      (success, ) = _relayer.call.value(_fee)(\"\");\n      require(success, \"payment to _relayer did not go thru\");\n    }\n  }\n}\n",
  "sourcePath": "/Users/guqianfeng/web/my_dapps/hunbi/tornado-core/contracts/ETHShaker.sol",
  "compiler": {
    "name": "solc",
    "version": "0.5.17+commit.d19bba13.Emscripten.clang"
  },
  "schemaVersion": "3.2.4",
  "updatedAt": "2020-09-14T09:00:45.948Z",
  "networkType": "ethereum",
  "devdoc": {
    "methods": {
      "changeOperator(address)": {
        "details": "operator can change his address "
      },
      "deposit(uint256,bytes32)": {
        "details": "Deposit funds into the contract. The caller must send (for ETH) or approve (for ERC20) value equal to or `denomination` of this instance.",
        "params": {
          "_amount": "the ERC20 amount",
          "_commitment": "the 2nd note commitment"
        }
      },
      "depositERC20Batch(uint256[],bytes32[])": {
        "details": "Deposit a set of amount and commitments",
        "params": {
          "_amounts": ", array of ERC20 amount",
          "_commitments": ", array of commitments"
        }
      },
      "getLastRoot()": {
        "details": "Returns the last root"
      },
      "hashLeftRight(bytes32,bytes32)": {
        "details": "Hash 2 tree leaves, returns MiMC(_left, _right)"
      },
      "isKnownRoot(bytes32)": {
        "details": "Whether the root is present in the root history"
      },
      "isSpent(bytes32)": {
        "details": "whether a note is already spent "
      },
      "isSpentArray(bytes32[])": {
        "details": "whether an array of notes is already spent "
      },
      "updateVerifier(address)": {
        "details": "allow operator to update SNARK verification keys. This is needed to update keys after the final trusted setup ceremony is held. After that operator rights are supposed to be transferred to zero address"
      },
      "withdraw(bytes,bytes32,bytes32,address,address,uint256,uint256,bytes32)": {
        "details": "Withdraw a deposit from the contract. `proof` is a zkSNARK proof data, and input is an array of circuit public inputs `input` array consists of: - merkle root of all deposits in the contract - hash of unique deposit nullifier to prevent double spends - the recipient of funds - optional fee that goes to the transaction sender (usually a relay)"
      }
    }
  },
  "userdoc": {
    "methods": {}
  }
}