{
  "contractName": "ETHShakerV2",
  "abi": [
    {
      "inputs": [
        {
          "internalType": "contract IVerifier",
          "name": "_verifier",
          "type": "address"
        },
        {
          "internalType": "uint256",
          "name": "_denomination",
          "type": "uint256"
        },
        {
          "internalType": "address",
          "name": "_operator",
          "type": "address"
        },
        {
          "internalType": "address",
          "name": "_commonWithdrawAddress",
          "type": "address"
        }
      ],
      "payable": false,
      "stateMutability": "nonpayable",
      "type": "constructor"
    },
    {
      "anonymous": false,
      "inputs": [
        {
          "indexed": true,
          "internalType": "bytes32",
          "name": "commitment",
          "type": "bytes32"
        },
        {
          "indexed": false,
          "internalType": "uint32",
          "name": "leafIndex",
          "type": "uint32"
        },
        {
          "indexed": false,
          "internalType": "uint256",
          "name": "timestamp",
          "type": "uint256"
        },
        {
          "indexed": false,
          "internalType": "uint8",
          "name": "orderStatus",
          "type": "uint8"
        },
        {
          "indexed": false,
          "internalType": "address",
          "name": "recipient",
          "type": "address"
        },
        {
          "indexed": false,
          "internalType": "uint256",
          "name": "effectiveTime",
          "type": "uint256"
        }
      ],
      "name": "Deposit",
      "type": "event"
    },
    {
      "anonymous": false,
      "inputs": [
        {
          "indexed": false,
          "internalType": "address",
          "name": "to",
          "type": "address"
        },
        {
          "indexed": false,
          "internalType": "bytes32",
          "name": "nullifierHash",
          "type": "bytes32"
        },
        {
          "indexed": true,
          "internalType": "address",
          "name": "relayer",
          "type": "address"
        },
        {
          "indexed": false,
          "internalType": "uint256",
          "name": "fee",
          "type": "uint256"
        },
        {
          "indexed": false,
          "internalType": "uint256",
          "name": "amount",
          "type": "uint256"
        }
      ],
      "name": "Withdrawal",
      "type": "event"
    },
    {
      "constant": true,
      "inputs": [],
      "name": "commonFee",
      "outputs": [
        {
          "internalType": "uint256",
          "name": "",
          "type": "uint256"
        }
      ],
      "payable": false,
      "stateMutability": "view",
      "type": "function"
    },
    {
      "constant": true,
      "inputs": [],
      "name": "commonFeeRate",
      "outputs": [
        {
          "internalType": "uint256",
          "name": "",
          "type": "uint256"
        }
      ],
      "payable": false,
      "stateMutability": "view",
      "type": "function"
    },
    {
      "constant": true,
      "inputs": [],
      "name": "commonWithdrawAddress",
      "outputs": [
        {
          "internalType": "address",
          "name": "",
          "type": "address"
        }
      ],
      "payable": false,
      "stateMutability": "view",
      "type": "function"
    },
    {
      "constant": true,
      "inputs": [],
      "name": "councilAddress",
      "outputs": [
        {
          "internalType": "address",
          "name": "",
          "type": "address"
        }
      ],
      "payable": false,
      "stateMutability": "view",
      "type": "function"
    },
    {
      "constant": true,
      "inputs": [],
      "name": "denomination",
      "outputs": [
        {
          "internalType": "uint256",
          "name": "",
          "type": "uint256"
        }
      ],
      "payable": false,
      "stateMutability": "view",
      "type": "function"
    },
    {
      "constant": false,
      "inputs": [
        {
          "internalType": "uint256[]",
          "name": "_amounts",
          "type": "uint256[]"
        },
        {
          "internalType": "bytes32[]",
          "name": "_commitments",
          "type": "bytes32[]"
        },
        {
          "internalType": "uint8",
          "name": "_orderStatus",
          "type": "uint8"
        },
        {
          "internalType": "address payable",
          "name": "_recipient",
          "type": "address"
        },
        {
          "internalType": "uint256",
          "name": "_effectiveTime",
          "type": "uint256"
        }
      ],
      "name": "depositERC20Batch",
      "outputs": [],
      "payable": true,
      "stateMutability": "payable",
      "type": "function"
    },
    {
      "constant": false,
      "inputs": [
        {
          "internalType": "bytes",
          "name": "_proof",
          "type": "bytes"
        },
        {
          "internalType": "bytes32",
          "name": "_root",
          "type": "bytes32"
        },
        {
          "internalType": "bytes32",
          "name": "_nullifierHash",
          "type": "bytes32"
        },
        {
          "internalType": "address payable",
          "name": "_recipient",
          "type": "address"
        },
        {
          "internalType": "address payable",
          "name": "_relayer",
          "type": "address"
        },
        {
          "internalType": "uint8",
          "name": "_orderStatus",
          "type": "uint8"
        },
        {
          "internalType": "uint256",
          "name": "_amount",
          "type": "uint256"
        },
        {
          "internalType": "bytes32",
          "name": "_oldCommitment",
          "type": "bytes32"
        },
        {
          "internalType": "bytes32",
          "name": "_newCommitment",
          "type": "bytes32"
        },
        {
          "internalType": "uint256",
          "name": "_effectiveTime",
          "type": "uint256"
        }
      ],
      "name": "endorse",
      "outputs": [],
      "payable": true,
      "stateMutability": "payable",
      "type": "function"
    },
    {
      "constant": true,
      "inputs": [],
      "name": "getRelayerWithdrawAddress",
      "outputs": [
        {
          "internalType": "address",
          "name": "",
          "type": "address"
        }
      ],
      "payable": false,
      "stateMutability": "view",
      "type": "function"
    },
    {
      "constant": true,
      "inputs": [
        {
          "internalType": "bytes32",
          "name": "_nullifierHash",
          "type": "bytes32"
        }
      ],
      "name": "isSpent",
      "outputs": [
        {
          "internalType": "bool",
          "name": "",
          "type": "bool"
        }
      ],
      "payable": false,
      "stateMutability": "view",
      "type": "function"
    },
    {
      "constant": true,
      "inputs": [
        {
          "internalType": "bytes32[]",
          "name": "_nullifierHashes",
          "type": "bytes32[]"
        }
      ],
      "name": "isSpentArray",
      "outputs": [
        {
          "internalType": "bool[]",
          "name": "spent",
          "type": "bool[]"
        }
      ],
      "payable": false,
      "stateMutability": "view",
      "type": "function"
    },
    {
      "constant": true,
      "inputs": [
        {
          "internalType": "uint256",
          "name": "",
          "type": "uint256"
        }
      ],
      "name": "lockCommitments",
      "outputs": [
        {
          "internalType": "bytes32",
          "name": "",
          "type": "bytes32"
        }
      ],
      "payable": false,
      "stateMutability": "view",
      "type": "function"
    },
    {
      "constant": false,
      "inputs": [
        {
          "internalType": "bytes",
          "name": "_proof",
          "type": "bytes"
        },
        {
          "internalType": "bytes32",
          "name": "_root",
          "type": "bytes32"
        },
        {
          "internalType": "bytes32",
          "name": "_nullifierHash",
          "type": "bytes32"
        },
        {
          "internalType": "address payable",
          "name": "_recipient",
          "type": "address"
        },
        {
          "internalType": "address payable",
          "name": "_relayer",
          "type": "address"
        },
        {
          "internalType": "uint256",
          "name": "_fee",
          "type": "uint256"
        },
        {
          "internalType": "uint256",
          "name": "_refund",
          "type": "uint256"
        },
        {
          "internalType": "bytes32",
          "name": "_commitment",
          "type": "bytes32"
        },
        {
          "internalType": "string",
          "name": "_description",
          "type": "string"
        }
      ],
      "name": "lockDeposit",
      "outputs": [
        {
          "internalType": "uint256",
          "name": "",
          "type": "uint256"
        }
      ],
      "payable": true,
      "stateMutability": "payable",
      "type": "function"
    },
    {
      "constant": true,
      "inputs": [
        {
          "internalType": "bytes32",
          "name": "",
          "type": "bytes32"
        }
      ],
      "name": "lockReason",
      "outputs": [
        {
          "internalType": "string",
          "name": "description",
          "type": "string"
        },
        {
          "internalType": "uint8",
          "name": "status",
          "type": "uint8"
        },
        {
          "internalType": "uint256",
          "name": "datetime",
          "type": "uint256"
        },
        {
          "internalType": "address",
          "name": "recipient",
          "type": "address"
        },
        {
          "internalType": "address",
          "name": "relayer",
          "type": "address"
        },
        {
          "internalType": "address",
          "name": "locker",
          "type": "address"
        },
        {
          "internalType": "uint256",
          "name": "refund",
          "type": "uint256"
        }
      ],
      "payable": false,
      "stateMutability": "view",
      "type": "function"
    },
    {
      "constant": true,
      "inputs": [],
      "name": "operator",
      "outputs": [
        {
          "internalType": "address",
          "name": "",
          "type": "address"
        }
      ],
      "payable": false,
      "stateMutability": "view",
      "type": "function"
    },
    {
      "constant": false,
      "inputs": [
        {
          "internalType": "address",
          "name": "_councilAddress",
          "type": "address"
        }
      ],
      "name": "setCouncial",
      "outputs": [],
      "payable": false,
      "stateMutability": "nonpayable",
      "type": "function"
    },
    {
      "constant": true,
      "inputs": [],
      "name": "totalAmount",
      "outputs": [
        {
          "internalType": "uint256",
          "name": "",
          "type": "uint256"
        }
      ],
      "payable": false,
      "stateMutability": "view",
      "type": "function"
    },
    {
      "constant": true,
      "inputs": [],
      "name": "totalBalance",
      "outputs": [
        {
          "internalType": "uint256",
          "name": "",
          "type": "uint256"
        }
      ],
      "payable": false,
      "stateMutability": "view",
      "type": "function"
    },
    {
      "constant": false,
      "inputs": [
        {
          "internalType": "uint256",
          "name": "id",
          "type": "uint256"
        }
      ],
      "name": "unlockDeposit",
      "outputs": [],
      "payable": false,
      "stateMutability": "nonpayable",
      "type": "function"
    },
    {
      "constant": false,
      "inputs": [
        {
          "internalType": "uint256",
          "name": "_fee",
          "type": "uint256"
        },
        {
          "internalType": "uint256",
          "name": "_rate",
          "type": "uint256"
        }
      ],
      "name": "updateCommonFee",
      "outputs": [],
      "payable": false,
      "stateMutability": "nonpayable",
      "type": "function"
    },
    {
      "constant": false,
      "inputs": [
        {
          "internalType": "address",
          "name": "_commonWithdrawAddress",
          "type": "address"
        }
      ],
      "name": "updateCommonWithdrawAddress",
      "outputs": [],
      "payable": false,
      "stateMutability": "nonpayable",
      "type": "function"
    },
    {
      "constant": false,
      "inputs": [
        {
          "internalType": "address",
          "name": "_newOperator",
          "type": "address"
        }
      ],
      "name": "updateOperator",
      "outputs": [],
      "payable": false,
      "stateMutability": "nonpayable",
      "type": "function"
    },
    {
      "constant": false,
      "inputs": [
        {
          "internalType": "address",
          "name": "_relayer",
          "type": "address"
        },
        {
          "internalType": "address",
          "name": "_withdrawAddress",
          "type": "address"
        }
      ],
      "name": "updateRelayer",
      "outputs": [],
      "payable": false,
      "stateMutability": "nonpayable",
      "type": "function"
    },
    {
      "constant": false,
      "inputs": [
        {
          "internalType": "address",
          "name": "_newVerifier",
          "type": "address"
        }
      ],
      "name": "updateVerifier",
      "outputs": [],
      "payable": false,
      "stateMutability": "nonpayable",
      "type": "function"
    },
    {
      "constant": true,
      "inputs": [],
      "name": "verifier",
      "outputs": [
        {
          "internalType": "contract IVerifier",
          "name": "",
          "type": "address"
        }
      ],
      "payable": false,
      "stateMutability": "view",
      "type": "function"
    },
    {
      "constant": false,
      "inputs": [
        {
          "internalType": "bytes",
          "name": "_proof",
          "type": "bytes"
        },
        {
          "internalType": "bytes32",
          "name": "_root",
          "type": "bytes32"
        },
        {
          "internalType": "bytes32",
          "name": "_nullifierHash",
          "type": "bytes32"
        },
        {
          "internalType": "address payable",
          "name": "_recipient",
          "type": "address"
        },
        {
          "internalType": "address payable",
          "name": "_relayer",
          "type": "address"
        },
        {
          "internalType": "uint256",
          "name": "_fee",
          "type": "uint256"
        },
        {
          "internalType": "uint256",
          "name": "_refund",
          "type": "uint256"
        },
        {
          "internalType": "bytes32",
          "name": "_commitment",
          "type": "bytes32"
        }
      ],
      "name": "withdraw",
      "outputs": [],
      "payable": true,
      "stateMutability": "payable",
      "type": "function"
    }
  ],
  "bytecode": "0x6080604052600060015560006002556000600f55600060105534801561002457600080fd5b506040516128933803806128938339818101604052608081101561004757600080fd5b5080516020820151604083015160609093015160016000559192909183838383826100a35760405162461bcd60e51b815260040180806020018281038252602581526020018061286e6025913960400191505060405180910390fd5b600380546001600160a01b039586166001600160a01b0319918216179091556004805493861693821693909317909255600692909255600e805492909316911617905550505050612775806100f96000396000f3fe6080604052600436106101665760003560e01c8063807c7ba3116100d1578063a8be3cd61161008a578063bbe9cd8c11610064578063bbe9cd8c146106f9578063da90803914610729578063e5285dcc146107c9578063eece3bd51461080757610166565b8063a8be3cd6146105db578063ac7475ed146106b1578063ad7a672f146106e457610166565b8063807c7ba3146103bb578063827a2600146103e55780638bca6d161461049557806397fc007c146104aa5780639fa12d0b146104dd578063a4cab45c146105a857610166565b80634d10b2fb116101235780634d10b2fb1461023f57806354b45fc314610254578063570ca735146102875780635c64ae911461029c57806362bc0cd61461037c57806377b9de8e1461039157610166565b806315d232db1461016b5780631a39d8ef1461019c578063266c0aa7146101c35780632b7ac3f31461020057806335795ea7146102155780634adf3d151461022a575b600080fd5b34801561017757600080fd5b506101806108fc565b604080516001600160a01b039092168252519081900360200190f35b3480156101a857600080fd5b506101b161096e565b60408051918252519081900360200190f35b3480156101cf57600080fd5b506101fe600480360360408110156101e657600080fd5b506001600160a01b0381358116916020013516610974565b005b34801561020c57600080fd5b506101806109eb565b34801561022157600080fd5b506101b16109fa565b34801561023657600080fd5b506101b1610a00565b34801561024b57600080fd5b50610180610a06565b34801561026057600080fd5b506101fe6004803603602081101561027757600080fd5b50356001600160a01b0316610a15565b34801561029357600080fd5b50610180610a80565b3480156102a857600080fd5b506102c6600480360360208110156102bf57600080fd5b5035610a8f565b6040805160ff88166020808301919091529181018790526001600160a01b0380871660608301528581166080830152841660a082015260c0810183905260e08082528951908201528851909182916101008301918b019080838360005b8381101561033b578181015183820152602001610323565b50505050905090810190601f1680156103685780820380516001836020036101000a031916815260200191505b509850505050505050505060405180910390f35b34801561038857600080fd5b50610180610b68565b34801561039d57600080fd5b506101fe600480360360208110156103b457600080fd5b5035610b77565b3480156103c757600080fd5b506101b1600480360360208110156103de57600080fd5b5035610c46565b6101fe60048036036101408110156103fc57600080fd5b810190602081018135600160201b81111561041657600080fd5b82018360208201111561042857600080fd5b803590602001918460018302840111600160201b8311171561044957600080fd5b91935091508035906020810135906001600160a01b03604082013581169160608101359091169060ff6080820135169060a08101359060c08101359060e0810135906101000135610c64565b3480156104a157600080fd5b506101b16112f7565b3480156104b657600080fd5b506101fe600480360360208110156104cd57600080fd5b50356001600160a01b03166112fd565b3480156104e957600080fd5b506105586004803603602081101561050057600080fd5b810190602081018135600160201b81111561051a57600080fd5b82018360208201111561052c57600080fd5b803590602001918460208302840111600160201b8311171561054d57600080fd5b509092509050611368565b60408051602080825283518183015283519192839290830191858101910280838360005b8381101561059457818101518382015260200161057c565b505050509050019250505060405180910390f35b3480156105b457600080fd5b506101fe600480360360208110156105cb57600080fd5b50356001600160a01b03166113f0565b6101fe600480360360a08110156105f157600080fd5b810190602081018135600160201b81111561060b57600080fd5b82018360208201111561061d57600080fd5b803590602001918460208302840111600160201b8311171561063e57600080fd5b919390929091602081019035600160201b81111561065b57600080fd5b82018360208201111561066d57600080fd5b803590602001918460208302840111600160201b8311171561068e57600080fd5b919350915060ff813516906001600160a01b03602082013516906040013561145b565b3480156106bd57600080fd5b506101fe600480360360208110156106d457600080fd5b50356001600160a01b031661155a565b3480156106f057600080fd5b506101b16115c5565b34801561070557600080fd5b506101fe6004803603604081101561071c57600080fd5b50803590602001356115cb565b6101fe600480360361010081101561074057600080fd5b810190602081018135600160201b81111561075a57600080fd5b82018360208201111561076c57600080fd5b803590602001918460018302840111600160201b8311171561078d57600080fd5b91935091508035906020810135906001600160a01b03604082013581169160608101359091169060808101359060a08101359060c0013561161f565b3480156107d557600080fd5b506107f3600480360360208110156107ec57600080fd5b5035611c6e565b604080519115158252519081900360200190f35b6101b1600480360361012081101561081e57600080fd5b810190602081018135600160201b81111561083857600080fd5b82018360208201111561084a57600080fd5b803590602001918460018302840111600160201b8311171561086b57600080fd5b919390928235926020810135926001600160a01b03604083013581169360608401359091169260808101359260a08201359260c08301359261010081019060e00135600160201b8111156108be57600080fd5b8201836020820111156108d057600080fd5b803590602001918460018302840111600160201b831117156108f157600080fd5b509092509050611c83565b336000908152600d60205260408120546001600160a01b03166109505760405162461bcd60e51b81526004018080602001828103825260248152602001806126576024913960400191505060405180910390fd5b50336000908152600d60205260409020546001600160a01b03165b90565b60015481565b6004546001600160a01b031633146109bd5760405162461bcd60e51b81526004018080602001828103825260258152602001806126c36025913960400191505060405180910390fd5b6001600160a01b039182166000908152600d6020526040902080546001600160a01b03191691909216179055565b6003546001600160a01b031681565b600f5481565b60105481565b600e546001600160a01b031681565b6004546001600160a01b03163314610a5e5760405162461bcd60e51b81526004018080602001828103825260258152602001806126c36025913960400191505060405180910390fd5b600580546001600160a01b0319166001600160a01b0392909216919091179055565b6004546001600160a01b031681565b60116020908152600091825260409182902080548351601f60026000196101006001861615020190931692909204918201849004840281018401909452808452909291839190830182828015610b265780601f10610afb57610100808354040283529160200191610b26565b820191906000526020600020905b815481529060010190602001808311610b0957829003601f168201915b50505060018401546002850154600386015460048701546005880154600690980154969760ff909416969295506001600160a01b039182169450811692169087565b6005546001600160a01b031681565b6005546001600160a01b03163314610bc05760405162461bcd60e51b815260040180806020018281038252602c8152602001806125e0602c913960400191505060405180910390fd5b6011600060128381548110610bd157fe5b60009182526020808320909101548352820192909252604001902060019081015460ff161415610c435760026011600060128481548110610c0e57fe5b9060005260206000200154815260200190815260200160002060010160006101000a81548160ff021916908360ff1602179055505b50565b60128181548110610c5357fe5b600091825260209091200154905081565b60026000541415610caa576040805162461bcd60e51b815260206004820152601f6024820152600080516020612490833981519152604482015290519081900360640190fd5b6002600090815583815260116020526040902060019081015460ff161415610d13576040805162461bcd60e51b8152602060048201526017602482015276151a1a5cc819195c1bdcda5d081dd85cc81b1bd8dad959604a1b604482015290519081900360640190fd5b60008381526008602052604090205460ff16610d76576040805162461bcd60e51b815260206004820152601b60248201527f4f6c6420636f6d6d69746d656e742063616e206e6f742066696e640000000000604482015290519081900360640190fd5b60008281526008602052604090205460ff1615610dc45760405162461bcd60e51b81526004018080602001828103825260258152602001806125356025913960400191505060405180910390fd5b60008881526007602052604090205460ff1615610e28576040805162461bcd60e51b815260206004820152601f60248201527f546865206e6f746520686173206265656e20616c7265616479207370656e7400604482015290519081900360640190fd5b600083815260096020526040902054610e88576040805162461bcd60e51b815260206004820152601f60248201527f4e6f2062616c616e636520616d6f756e74206f6620746869732070726f6f6600604482015290519081900360640190fd5b6000838152600960205260408120548510610eb157600084815260096020526040902054610eb3565b845b905060008111610f0a576040805162461bcd60e51b815260206004820152601d60248201527f526566756e6420616d6f756e742063616e206e6f74206265207a65726f000000604482015290519081900360640190fd5b6000848152600a602052604090205460ff166001148015610f4157506000848152600b60205260409020546001600160a01b031633145b80610f5b57506000848152600a602052604090205460ff16155b610f965760405162461bcd60e51b81526004018080602001828103825260248152602001806126e86024913960400191505060405180910390fd5b600360009054906101000a90046001600160a01b03166001600160a01b031663695ef6f98d8d6040518060c001604052808f60001c81526020018e60001c81526020018d6001600160a01b031681526020018c6001600160a01b031681526020018b60ff1681526020018a8152506040518463ffffffff1660e01b8152600401808060200183600660200280838360005b8381101561103f578181015183820152602001611027565b505050509050018281038252858582818152602001925080828437600081840152601f19601f820116905080830192505050945050505050602060405180830381600087803b15801561109157600080fd5b505af11580156110a5573d6000803e3d6000fd5b505050506040513d60208110156110bb57600080fd5b505161110e576040805162461bcd60e51b815260206004820152601960248201527f496e76616c696420656e646f7273656d656e742070726f6f6600000000000000604482015290519081900360640190fd5b6000821580159061112d57506000858152600c60205260409020544210155b15611148576000848152600c6020526040902083905561115f565b6000858152600c6020526040808220548683529120555b6000848152600860209081526040808320805460ff199081166001908117909255600984528285208b9055600a9093529220805460ff8b16921682179055146111a857336111aa565b885b6000858152600b6020908152604080832080546001600160a01b0319166001600160a01b0395909516949094179093558782526009905220546111ed9083611fae565b60008681526009602052604090208190551561120a57600061120d565b60015b60008b815260076020908152604091829020805493151560ff1990941693909317909255805163ffffffff84168152429281019290925260ff8916828201526001600160a01b038b166060830152608082018590525185917ff052b28ca720e670068c23c54488dc5b4db3ed42fde7c3fd2d0ea7aee06406eb919081900360a00190a2604080516000808252602082018d9052818301526060810184905290516001600160a01b038a16917f6d7aac54bd3d1c91db3b1fd7b8d6cb45324ad6b5e373c0f0ea4d7b2606c4c2c8919081900360800190a2505060016000555050505050505050505050565b60065481565b6004546001600160a01b031633146113465760405162461bcd60e51b81526004018080602001828103825260258152602001806126c36025913960400191505060405180910390fd5b600380546001600160a01b0319166001600160a01b0392909216919091179055565b604080518281526020808402820101909152606090828015611394578160200160208202803883390190505b50905060005b828110156113e9576113bd8484838181106113b157fe5b90506020020135611c6e565b156113e15760018282815181106113d057fe5b911515602092830291909101909101525b60010161139a565b5092915050565b6004546001600160a01b031633146114395760405162461bcd60e51b81526004018080602001828103825260258152602001806126c36025913960400191505060405180910390fd5b600e80546001600160a01b0319166001600160a01b0392909216919091179055565b600260005414156114a1576040805162461bcd60e51b815260206004820152601f6024820152600080516020612490833981519152604482015290519081900360640190fd5b600260005560ff831615806114b957508260ff166001145b6114f45760405162461bcd60e51b81526004018080602001828103825260268152602001806124b06026913960400191505060405180910390fd5b6001600160a01b03821661150757600080fd5b60005b8681101561154b5761154388888381811061152157fe5b9050602002013587878481811061153457fe5b9050602002013586868661200b565b60010161150a565b50506001600055505050505050565b6004546001600160a01b031633146115a35760405162461bcd60e51b81526004018080602001828103825260258152602001806126c36025913960400191505060405180910390fd5b600480546001600160a01b0319166001600160a01b0392909216919091179055565b60025481565b6004546001600160a01b031633146116145760405162461bcd60e51b81526004018080602001828103825260258152602001806126c36025913960400191505060405180910390fd5b600f91909155601055565b60026000541415611665576040805162461bcd60e51b815260206004820152601f6024820152600080516020612490833981519152604482015290519081900360640190fd5b6002600090815581815260116020526040902060019081015460ff1614156116ce576040805162461bcd60e51b8152602060048201526017602482015276151a1a5cc819195c1bdcda5d081dd85cc81b1bd8dad959604a1b604482015290519081900360640190fd5b60008681526007602052604090205460ff1615611732576040805162461bcd60e51b815260206004820152601f60248201527f546865206e6f746520686173206265656e20616c7265616479207370656e7400604482015290519081900360640190fd5b6000818152600a602052604090205460ff16600114801561176c57506000818152600b60205260409020546001600160a01b038681169116145b8061178657506000818152600a602052604090205460ff16155b6117c15760405162461bcd60e51b815260040180806020018281038252602781526020018061250e6027913960400191505060405180910390fd5b600081815260096020526040902054611821576040805162461bcd60e51b815260206004820152601f60248201527f4e6f2062616c616e636520616d6f756e74206f6620746869732070726f6f6600604482015290519081900360640190fd5b600081815260096020526040812054831061184a5760008281526009602052604090205461184c565b825b9050600081116118a3576040805162461bcd60e51b815260206004820152601d60248201527f526566756e6420616d6f756e742063616e206e6f74206265207a65726f000000604482015290519081900360640190fd5b6000828152600c60205260409020544210156118f05760405162461bcd60e51b815260040180806020018281038252602d81526020018061257f602d913960400191505060405180910390fd5b8381101561192f5760405162461bcd60e51b815260040180806020018281038252602581526020018061255a6025913960400191505060405180910390fd5b6003546040805160c080820183528b8252602082018b90526001600160a01b038a81168385015289811660608401526080830189905260a08301889052925163695ef6f960e01b8152929093169263695ef6f9928e928e9290916004810191829160240190849080838360005b838110156119b457818101518382015260200161199c565b505050509050018281038252858582818152602001925080828437600081840152601f19601f820116905080830192505050945050505050602060405180830381600087803b158015611a0657600080fd5b505af1158015611a1a573d6000803e3d6000fd5b505050506040513d6020811015611a3057600080fd5b5051611a7c576040805162461bcd60e51b815260206004820152601660248201527524b73b30b634b2103bb4ba34323930bb90383937b7b360511b604482015290519081900360640190fd5b6000828152600a602052604081205460ff16600114611a9b5786611ab4565b6000838152600b60205260409020546001600160a01b03165b336000908152600d6020526040812054919250906001600160a01b031615611af457336000908152600d60205260409020546001600160a01b0316611b01565b600e546001600160a01b03165b90506000611b0e8461218d565b905083811115611b4f5760405162461bcd60e51b815260040180806020018281038252602a81526020018061260c602a913960400191505060405180910390fd5b336000908152600d60205260409020546001600160a01b031615611b735786611b75565b805b9650611b83838389876121a9565b600085815260096020526040902054611ba2908563ffffffff611fae16565b600086815260096020526040902055600154611bc4908563ffffffff611fae16565b60015560008581526009602052604090205415611be2576000611be5565b60015b60008b815260076020908152604091829020805460ff19169315159390931790925580516001600160a01b038c811682529281018d90528082018a9052606081018790529051918a16917f6d7aac54bd3d1c91db3b1fd7b8d6cb45324ad6b5e373c0f0ea4d7b2606c4c2c8916080908290030190a2505060016000555050505050505050505050565b60009081526007602052604090205460ff1690565b600060026000541415611ccb576040805162461bcd60e51b815260206004820152601f6024820152600080516020612490833981519152604482015290519081900360640190fd5b6002600081905550600360009054906101000a90046001600160a01b03166001600160a01b031663695ef6f98d8d6040518060c001604052808f60001c81526020018e60001c81526020018d6001600160a01b031681526020018c6001600160a01b031681526020018b81526020018a8152506040518463ffffffff1660e01b8152600401808060200183600660200280838360005b83811015611d79578181015183820152602001611d61565b505050509050018281038252858582818152602001925080828437600081840152601f19601f820116905080830192505050945050505050602060405180830381600087803b158015611dcb57600080fd5b505af1158015611ddf573d6000803e3d6000fd5b505050506040513d6020811015611df557600080fd5b5051611e41576040805162461bcd60e51b815260206004820152601660248201527524b73b30b634b2103bb4ba34323930bb90383937b7b360511b604482015290519081900360640190fd5b6040518060e0016040528084848080601f016020809104026020016040519081016040528093929190818152602001838380828437600092018290525093855250506001602080850191909152426040808601919091526001600160a01b03808f1660608701528d1660808601523360a086015260c09094018a90528883526011815292909120835180519193611edd935084929101906123f7565b5060208201516001828101805460ff191660ff909316929092179091556040830151600283015560608301516003830180546001600160a01b03199081166001600160a01b03938416179091556080850151600485018054831691841691909117905560a0850151600585018054909216921691909117905560c09092015160069091015560128054808301825560008281527fbb8a6a4669ba250d26cd7a459eca9d215f8307e33aebe50379bc5a3617ec3444909101969096555494555050506000190198975050505050505050565b600082821115612005576040805162461bcd60e51b815260206004820152601e60248201527f536166654d6174683a207375627472616374696f6e206f766572666c6f770000604482015290519081900360640190fd5b50900390565b60008481526008602052604090205460ff16156120595760405162461bcd60e51b81526004018080602001828103825260218152602001806126366021913960400191505060405180910390fd5b600061206486612356565b6000858152600860209081526040808320805460ff199081166001908117909255600984528285208b9055600a9093529220805460ff8816921682179055146120ad57336120af565b825b6000868152600b6020526040902080546001600160a01b0319166001600160a01b03929092169190911790554282106120e857816120ea565b425b6000868152600c602052604090205560015461210c908763ffffffff61239616565b600155600254612122908763ffffffff61239616565b6002556040805163ffffffff8316815242602082015260ff8616818301526001600160a01b038516606082015260808101849052905186917ff052b28ca720e670068c23c54488dc5b4db3ed42fde7c3fd2d0ea7aee06406eb919081900360a00190a2505050505050565b6000600f546127106010548402816121a157fe5b040192915050565b34156121e65760405162461bcd60e51b815260040180806020018281038252603581526020018061270c6035913960400191505060405180910390fd5b80156122235760405162461bcd60e51b81526004018080602001828103825260348152602001806125ac6034913960400191505060405180910390fd5b6006546040516000916001600160a01b0387169190859003908381818185875af1925050503d8060008114612274576040519150601f19603f3d011682016040523d82523d6000602084013e612279565b606091505b50509050806122b95760405162461bcd60e51b815260040180806020018281038252602581526020018061267b6025913960400191505060405180910390fd5b821561234f576040516001600160a01b038516908490600081818185875af1925050503d8060008114612308576040519150601f19603f3d011682016040523d82523d6000602084013e61230d565b606091505b5050809150508061234f5760405162461bcd60e51b81526004018080602001828103825260238152602001806126a06023913960400191505060405180910390fd5b5050505050565b6006543414610c435760405162461bcd60e51b81526004018080602001828103825260388152602001806124d66038913960400191505060405180910390fd5b6000828201838110156123f0576040805162461bcd60e51b815260206004820152601b60248201527f536166654d6174683a206164646974696f6e206f766572666c6f770000000000604482015290519081900360640190fd5b9392505050565b828054600181600116156101000203166002900490600052602060002090601f016020900481019282601f1061243857805160ff1916838001178555612465565b82800160010185558215612465579182015b8281111561246557825182559160200191906001019061244a565b50612471929150612475565b5090565b61096b91905b80821115612471576000815560010161247b56fe5265656e7472616e637947756172643a207265656e7472616e742063616c6c00546865726520617265206f6e6c79203220636865717565207374617475733a2030206f722031506c656173652073656e6420606d697844656e6f6d696e6174696f6e602045544820616c6f6e672077697468207472616e73616374696f6e526563697069656e74206973206e6f7420746865206f726967696e616c20726563697069656e74546865206e657720636f6d6d69746d656e7420686173206265656e207375626d6974746564526566756e6420616d6f756e742073686f756c64206265206d6f7265207468616e20666565546865206465706f736974206973206c6f636b656420756e74696c207468652065666665637469766554696d65526566756e642076616c756520697320737570706f73656420746f206265207a65726f20666f722045544820696e7374616e63654f6e6c7920636f756e63696c206163636f756e742063616e2063616c6c20746869732066756e6374696f6e2e546865206665652063616e206e6f74206265206d6f7265207468616e20726566756e6420616d6f756e7454686520636f6d6d69746d656e7420686173206265656e207375626d69747465644f6e6c792072656c617965722063616e2063616c6c20746869732066756e6374696f6e2e7061796d656e7420746f205f726563697069656e7420646964206e6f7420676f20746872757061796d656e7420746f205f72656c6179657220646964206e6f7420676f20746872754f6e6c79206f70657261746f722063616e2063616c6c20746869732066756e6374696f6e2e53656e646572206973206e6f7420746865206f726967696e616c20726563697069656e744d6573736167652076616c756520697320737570706f73656420746f206265207a65726f20666f722045544820696e7374616e6365a265627a7a72315820f54c9b056d91a2fbf5fb3cdbf051954ae9450d4ecc1610ba451f7fae1ebddb4764736f6c6343000511003264656e6f6d696e6174696f6e2073686f756c642062652067726561746572207468616e2030",
  "source": "/**\n *  $$$$$$\\  $$\\                 $$\\                           \n * $$  __$$\\ $$ |                $$ |                          \n * $$ /  \\__|$$$$$$$\\   $$$$$$\\  $$ |  $$\\  $$$$$$\\   $$$$$$\\  \n * \\$$$$$$\\  $$  __$$\\  \\____$$\\ $$ | $$  |$$  __$$\\ $$  __$$\\ \n *  \\____$$\\ $$ |  $$ | $$$$$$$ |$$$$$$  / $$$$$$$$ |$$ |  \\__|\n * $$\\   $$ |$$ |  $$ |$$  __$$ |$$  _$$<  $$   ____|$$ |      \n * \\$$$$$$  |$$ |  $$ |\\$$$$$$$ |$$ | \\$$\\ \\$$$$$$$\\ $$ |      \n *  \\______/ \\__|  \\__| \\_______|\\__|  \\__| \\_______|\\__|\n * $$$$$$$$$$$$$$$$$$$$$$$$$$$$$$$$$$$$$$$$$$$$$$$$$$$$$$$$$$$$\n * ____________________________________________________________\n*/\n\npragma solidity 0.5.17;\n\nimport \"./ShakerV2.sol\";\n\ncontract ETHShakerV2 is ShakerV2 {\n  constructor(\n    IVerifier _verifier,\n    uint256 _denomination,\n    address _operator,\n    address _commonWithdrawAddress\n  ) ShakerV2(_verifier, _denomination, _operator, _commonWithdrawAddress) public {\n  }\n\n  function _processDeposit(uint256 _amount) internal {\n    require(msg.value == denomination, \"Please send `mixDenomination` ETH along with transaction\");\n  }\n\n  function _processWithdraw(address payable _recipient, address _relayer, uint256 _fee, uint256 _refund) internal {\n    // sanity checks\n    require(msg.value == 0, \"Message value is supposed to be zero for ETH instance\");\n    require(_refund == 0, \"Refund value is supposed to be zero for ETH instance\");\n\n    (bool success, ) = _recipient.call.value(denomination - _fee)(\"\");\n    require(success, \"payment to _recipient did not go thru\");\n    if (_fee > 0) {\n      (success, ) = _relayer.call.value(_fee)(\"\");\n      require(success, \"payment to _relayer did not go thru\");\n    }\n  }\n}\n",
  "sourcePath": "/Users/guqianfeng/web/my_dapps/hunbi/tornado-core/contracts/ETHShakerV2.sol",
  "compiler": {
    "name": "solc",
    "version": "0.5.17+commit.d19bba13.Emscripten.clang"
  },
  "schemaVersion": "3.2.4",
  "updatedAt": "2020-09-29T02:52:15.536Z",
  "networkType": "ethereum",
  "devdoc": {
    "methods": {
      "depositERC20Batch(uint256[],bytes32[],uint8,address,uint256)": {
        "details": "Deposit a set of amount and commitments",
        "params": {
          "_amounts": ", array of ERC20 amount",
          "_commitments": ", array of commitments",
          "_effectiveTime": ", effective time of the Withdrawal",
          "_orderStatus": ", status of deposit, 0: cheque for bearer, 1: cheque for order",
          "_recipient": ", recipient address if cheque for order"
        }
      },
      "endorse(bytes,bytes32,bytes32,address,address,uint8,uint256,bytes32,bytes32,uint256)": {
        "details": "this function is for cheque endorsement",
        "params": {
          "_amount": ", endorsed amount, the endorsement amount can be part of balance of old cheque",
          "_effectiveTime": ", new effectiveTime of note",
          "_newCommitment": ", new commitment from frontend",
          "_nullifierHash": ", old nullifierHashe",
          "_oldCommitment": ", old commitment which will be endorsed",
          "_orderStatus": ", old cheque order type, 0- to Bearer cheque, 1- to order cheque",
          "_proof": ", Proof of zkSNARK",
          "_recipient": ", new recipient address, if orderStatus is 0, the _recipient is sender. Otherwise the _recipient is to order",
          "_relayer": ", relayer address",
          "_root": ", root of merkle tree"
        }
      },
      "getRelayerWithdrawAddress()": {
        "details": "get relayer Withdrawal address "
      },
      "isSpent(bytes32)": {
        "details": "whether a note is already spent "
      },
      "isSpentArray(bytes32[])": {
        "details": "whether an array of notes is already spent "
      },
      "lockDeposit(bytes,bytes32,bytes32,address,address,uint256,uint256,bytes32,string)": {
        "details": "lock commitment, this operation can be only called by note holder "
      },
      "setCouncial(address)": {
        "details": "set council address "
      },
      "unlockDeposit(uint256)": {
        "details": "unlock commitment by council "
      },
      "updateCommonFee(uint256,uint256)": {
        "details": "set common fee and fee rate "
      },
      "updateCommonWithdrawAddress(address)": {
        "details": "update commonWithdrawAddress "
      },
      "updateOperator(address)": {
        "details": "operator can change his address "
      },
      "updateRelayer(address,address)": {
        "details": "update authority relayer "
      },
      "updateVerifier(address)": {
        "details": "allow operator to update SNARK verification keys. This is needed to update keys after the final trusted setup ceremony is held. After that operator rights are supposed to be transferred to zero address"
      },
      "withdraw(bytes,bytes32,bytes32,address,address,uint256,uint256,bytes32)": {
        "details": "Withdraw a deposit from the contract. `proof` is a zkSNARK proof data, and input is an array of circuit public inputs `input` array consists of: - merkle root of all deposits in the contract - hash of unique deposit nullifier to prevent double spends - the recipient of funds - optional fee that goes to the transaction sender (usually a relay)",
        "params": {
          "_fee": ", relayer decide the fee amount"
        }
      }
    }
  },
  "userdoc": {
    "methods": {}
  }
}